{
  "address": "0x7606c839B24b5A894b9602F3a506f69E2BE3A347",
  "abi": [
    {
      "inputs": [
        {
          "internalType": "address",
          "name": "_tokenAddress",
          "type": "address"
        },
        {
          "internalType": "address",
          "name": "_aaveAddress",
          "type": "address"
        }
      ],
      "stateMutability": "nonpayable",
      "type": "constructor"
    },
    {
      "anonymous": false,
      "inputs": [
        {
          "indexed": true,
          "internalType": "address",
          "name": "previousOwner",
          "type": "address"
        },
        {
          "indexed": true,
          "internalType": "address",
          "name": "newOwner",
          "type": "address"
        }
      ],
      "name": "OwnershipTransferred",
      "type": "event"
    },
    {
      "inputs": [
        {
          "internalType": "address",
          "name": "_tokenAddress",
          "type": "address"
        },
        {
          "internalType": "address",
          "name": "userAddress",
          "type": "address"
        },
        {
          "internalType": "uint256",
          "name": "amount",
          "type": "uint256"
        }
      ],
      "name": "enterStrategy",
      "outputs": [],
      "stateMutability": "payable",
      "type": "function"
    },
    {
      "inputs": [
        {
          "internalType": "address",
          "name": "userAddress",
          "type": "address"
        },
        {
          "internalType": "uint256",
          "name": "amount",
          "type": "uint256"
        }
      ],
      "name": "exitStrategy",
      "outputs": [],
      "stateMutability": "nonpayable",
      "type": "function"
    },
    {
      "inputs": [],
      "name": "getAaveAddress",
      "outputs": [
        {
          "internalType": "address",
          "name": "",
          "type": "address"
        }
      ],
      "stateMutability": "view",
      "type": "function"
    },
    {
      "inputs": [],
      "name": "getTokenToDeposit",
      "outputs": [
        {
          "internalType": "address",
          "name": "",
          "type": "address"
        }
      ],
      "stateMutability": "view",
      "type": "function"
    },
    {
      "inputs": [
        {
          "internalType": "address",
          "name": "userAddress",
          "type": "address"
        }
      ],
      "name": "getUserBalance",
      "outputs": [
        {
          "internalType": "uint256",
          "name": "",
          "type": "uint256"
        }
      ],
      "stateMutability": "view",
      "type": "function"
    },
    {
      "inputs": [],
      "name": "owner",
      "outputs": [
        {
          "internalType": "address",
          "name": "",
          "type": "address"
        }
      ],
      "stateMutability": "view",
      "type": "function"
    },
    {
      "inputs": [],
      "name": "recolt",
      "outputs": [],
      "stateMutability": "nonpayable",
      "type": "function"
    },
    {
      "inputs": [],
      "name": "renounceOwnership",
      "outputs": [],
      "stateMutability": "nonpayable",
      "type": "function"
    },
    {
      "inputs": [
        {
          "internalType": "address",
          "name": "_aaveAddress",
          "type": "address"
        }
      ],
      "name": "setAaveAddress",
      "outputs": [],
      "stateMutability": "nonpayable",
      "type": "function"
    },
    {
      "inputs": [
        {
          "internalType": "address",
          "name": "newTokenAddress",
          "type": "address"
        }
      ],
      "name": "setTokenToDeposit",
      "outputs": [],
      "stateMutability": "nonpayable",
      "type": "function"
    },
    {
      "inputs": [],
      "name": "strategyTest",
      "outputs": [
        {
          "internalType": "string",
          "name": "",
          "type": "string"
        }
      ],
      "stateMutability": "view",
      "type": "function"
    },
    {
      "inputs": [
        {
          "internalType": "address",
          "name": "asset",
          "type": "address"
        },
        {
          "internalType": "uint256",
          "name": "amount",
          "type": "uint256"
        }
      ],
      "name": "test",
      "outputs": [],
      "stateMutability": "nonpayable",
      "type": "function"
    },
    {
      "inputs": [
        {
          "internalType": "address",
          "name": "asset",
          "type": "address"
        },
        {
          "internalType": "uint256",
          "name": "amount",
          "type": "uint256"
        }
      ],
      "name": "test2",
      "outputs": [],
      "stateMutability": "nonpayable",
      "type": "function"
    },
    {
      "inputs": [
        {
          "internalType": "address",
          "name": "newOwner",
          "type": "address"
        }
      ],
      "name": "transferOwnership",
      "outputs": [],
      "stateMutability": "nonpayable",
      "type": "function"
    }
  ],
  "transactionHash": "0xb44fc691439f8f977b4281abe619cd3d2f9a1de3e00f9f52a5c606261a286308",
  "args": [
    "0x2791Bca1f2de4661ED88A30C99A7a9449Aa84174",
    "0x794a61358d6845594f94dc1db02a252b5b4814ad"
  ],
  "numDeployments": 1,
  "solcInputHash": "e80d5e2d9f9cba569597be8f8c1d5057",
  "bytecode": "0x60806040526040518060400160405280600f81526020017f4e6f742063616c6c6564207965742e000000000000000000000000000000000081525060059080519060200190620000519291906200023c565b503480156200005f57600080fd5b5060405162001c3a38038062001c3a833981810160405281019062000085919062000303565b620000a5620000996200017060201b60201c565b6200017860201b60201c565b81600160006101000a81548173ffffffffffffffffffffffffffffffffffffffff021916908373ffffffffffffffffffffffffffffffffffffffff16021790555080600260006101000a81548173ffffffffffffffffffffffffffffffffffffffff021916908373ffffffffffffffffffffffffffffffffffffffff16021790555080600360006101000a81548173ffffffffffffffffffffffffffffffffffffffff021916908373ffffffffffffffffffffffffffffffffffffffff160217905550505062000402565b600033905090565b60008060009054906101000a900473ffffffffffffffffffffffffffffffffffffffff169050816000806101000a81548173ffffffffffffffffffffffffffffffffffffffff021916908373ffffffffffffffffffffffffffffffffffffffff1602179055508173ffffffffffffffffffffffffffffffffffffffff168173ffffffffffffffffffffffffffffffffffffffff167f8be0079c531659141344cd1fd0a4f28419497f9722a3daafe3b4186f6b6457e060405160405180910390a35050565b8280546200024a906200037e565b90600052602060002090601f0160209004810192826200026e5760008555620002ba565b82601f106200028957805160ff1916838001178555620002ba565b82800160010185558215620002ba579182015b82811115620002b95782518255916020019190600101906200029c565b5b509050620002c99190620002cd565b5090565b5b80821115620002e8576000816000905550600101620002ce565b5090565b600081519050620002fd81620003e8565b92915050565b600080604083850312156200031d576200031c620003e3565b5b60006200032d85828601620002ec565b92505060206200034085828601620002ec565b9150509250929050565b600062000357826200035e565b9050919050565b600073ffffffffffffffffffffffffffffffffffffffff82169050919050565b600060028204905060018216806200039757607f821691505b60208210811415620003ae57620003ad620003b4565b5b50919050565b7f4e487b7100000000000000000000000000000000000000000000000000000000600052602260045260246000fd5b600080fd5b620003f3816200034a565b8114620003ff57600080fd5b50565b61182880620004126000396000f3fe6080604052600436106100dd5760003560e01c80638da5cb5b1161007f578063ba14d60611610059578063ba14d60614610267578063bc07c44314610290578063dc77b9ee146102b9578063f2fde38b146102e2576100dd565b80638da5cb5b146101f7578063b1035aa414610222578063b8837f001461024b576100dd565b80634e47c85f116100bb5780634e47c85f14610161578063715018a61461018c578063742128a8146101a357806384c7dae6146101ce576100dd565b80633889f2d6146100e257806347734892146100f95780634998550314610136575b600080fd5b3480156100ee57600080fd5b506100f761030b565b005b34801561010557600080fd5b50610120600480360381019061011b9190610ff2565b610359565b60405161012d919061141d565b60405180910390f35b34801561014257600080fd5b5061014b6103a2565b604051610158919061133b565b60405180910390f35b34801561016d57600080fd5b50610176610430565b6040516101839190611244565b60405180910390f35b34801561019857600080fd5b506101a161045a565b005b3480156101af57600080fd5b506101b861046e565b6040516101c59190611244565b60405180910390f35b3480156101da57600080fd5b506101f560048036038101906101f09190611072565b610498565b005b34801561020357600080fd5b5061020c6106bc565b6040516102199190611244565b60405180910390f35b34801561022e57600080fd5b5061024960048036038101906102449190610ff2565b6106e5565b005b6102656004803603810190610260919061101f565b6107e2565b005b34801561027357600080fd5b5061028e60048036038101906102899190611072565b610a1f565b005b34801561029c57600080fd5b506102b760048036038101906102b29190611072565b610b6d565b005b3480156102c557600080fd5b506102e060048036038101906102db9190610ff2565b610c23565b005b3480156102ee57600080fd5b5061030960048036038101906103049190610ff2565b610cdf565b005b6040518060400160405280600981526020017f5265636f6c7465642e000000000000000000000000000000000000000000000081525060059080519060200190610356929190610efb565b50565b6000600460008373ffffffffffffffffffffffffffffffffffffffff1673ffffffffffffffffffffffffffffffffffffffff168152602001908152602001600020549050919050565b600580546103af90611579565b80601f01602080910402602001604051908101604052809291908181526020018280546103db90611579565b80156104285780601f106103fd57610100808354040283529160200191610428565b820191906000526020600020905b81548152906001019060200180831161040b57829003601f168201915b505050505081565b6000600260009054906101000a900473ffffffffffffffffffffffffffffffffffffffff16905090565b610462610d63565b61046c6000610de1565b565b6000600160009054906101000a900473ffffffffffffffffffffffffffffffffffffffff16905090565b80600460008473ffffffffffffffffffffffffffffffffffffffff1673ffffffffffffffffffffffffffffffffffffffff16815260200190815260200160002054101561051a576040517f08c379a0000000000000000000000000000000000000000000000000000000008152600401610511906113dd565b60405180910390fd5b600073ffffffffffffffffffffffffffffffffffffffff16600160009054906101000a900473ffffffffffffffffffffffffffffffffffffffff1673ffffffffffffffffffffffffffffffffffffffff1614156105ac576040517f08c379a00000000000000000000000000000000000000000000000000000000081526004016105a3906113fd565b60405180910390fd5b6000600160009054906101000a900473ffffffffffffffffffffffffffffffffffffffff1690508073ffffffffffffffffffffffffffffffffffffffff1663a9059cbb33846040518363ffffffff1660e01b815260040161060e929190611296565b602060405180830381600087803b15801561062857600080fd5b505af115801561063c573d6000803e3d6000fd5b505050506040513d601f19601f8201168201806040525081019061066091906110b2565b5081600460008573ffffffffffffffffffffffffffffffffffffffff1673ffffffffffffffffffffffffffffffffffffffff16815260200190815260200160002060008282546106b091906114aa565b92505081905550505050565b60008060009054906101000a900473ffffffffffffffffffffffffffffffffffffffff16905090565b6106ed610d63565b600073ffffffffffffffffffffffffffffffffffffffff168173ffffffffffffffffffffffffffffffffffffffff16141561075d576040517f08c379a00000000000000000000000000000000000000000000000000000000081526004016107549061139d565b60405180910390fd5b80600260006101000a81548173ffffffffffffffffffffffffffffffffffffffff021916908373ffffffffffffffffffffffffffffffffffffffff16021790555080600360006101000a81548173ffffffffffffffffffffffffffffffffffffffff021916908373ffffffffffffffffffffffffffffffffffffffff16021790555050565b600160009054906101000a900473ffffffffffffffffffffffffffffffffffffffff1673ffffffffffffffffffffffffffffffffffffffff168373ffffffffffffffffffffffffffffffffffffffff1614610872576040517f08c379a00000000000000000000000000000000000000000000000000000000081526004016108699061137d565b60405180910390fd5b600073ffffffffffffffffffffffffffffffffffffffff16600160009054906101000a900473ffffffffffffffffffffffffffffffffffffffff1673ffffffffffffffffffffffffffffffffffffffff161415610904576040517f08c379a00000000000000000000000000000000000000000000000000000000081526004016108fb906113fd565b60405180910390fd5b6000600160009054906101000a900473ffffffffffffffffffffffffffffffffffffffff1690508073ffffffffffffffffffffffffffffffffffffffff166323b872dd3330856040518463ffffffff1660e01b81526004016109689392919061125f565b602060405180830381600087803b15801561098257600080fd5b505af1158015610996573d6000803e3d6000fd5b505050506040513d601f19601f820116820180604052508101906109ba91906110b2565b5081600460008573ffffffffffffffffffffffffffffffffffffffff1673ffffffffffffffffffffffffffffffffffffffff1681526020019081526020016000206000828254610a0a9190611454565b92505081905550610a19610ea5565b50505050565b60008290508073ffffffffffffffffffffffffffffffffffffffff1663095ea7b3600260009054906101000a900473ffffffffffffffffffffffffffffffffffffffff16846040518363ffffffff1660e01b8152600401610a81929190611296565b602060405180830381600087803b158015610a9b57600080fd5b505af1158015610aaf573d6000803e3d6000fd5b505050506040513d601f19601f82011682018060405250810190610ad391906110b2565b50600360009054906101000a900473ffffffffffffffffffffffffffffffffffffffff1673ffffffffffffffffffffffffffffffffffffffff1663617ba03784843060006040518563ffffffff1660e01b8152600401610b3694939291906112f6565b600060405180830381600087803b158015610b5057600080fd5b505af1158015610b64573d6000803e3d6000fd5b50505050505050565b600360009054906101000a900473ffffffffffffffffffffffffffffffffffffffff1673ffffffffffffffffffffffffffffffffffffffff166369328dec8383306040518463ffffffff1660e01b8152600401610bcc939291906112bf565b602060405180830381600087803b158015610be657600080fd5b505af1158015610bfa573d6000803e3d6000fd5b505050506040513d601f19601f82011682018060405250810190610c1e91906110df565b505050565b610c2b610d63565b600073ffffffffffffffffffffffffffffffffffffffff168173ffffffffffffffffffffffffffffffffffffffff161415610c9b576040517f08c379a0000000000000000000000000000000000000000000000000000000008152600401610c929061139d565b60405180910390fd5b80600160006101000a81548173ffffffffffffffffffffffffffffffffffffffff021916908373ffffffffffffffffffffffffffffffffffffffff16021790555050565b610ce7610d63565b600073ffffffffffffffffffffffffffffffffffffffff168173ffffffffffffffffffffffffffffffffffffffff161415610d57576040517f08c379a0000000000000000000000000000000000000000000000000000000008152600401610d4e9061135d565b60405180910390fd5b610d6081610de1565b50565b610d6b610ef3565b73ffffffffffffffffffffffffffffffffffffffff16610d896106bc565b73ffffffffffffffffffffffffffffffffffffffff1614610ddf576040517f08c379a0000000000000000000000000000000000000000000000000000000008152600401610dd6906113bd565b60405180910390fd5b565b60008060009054906101000a900473ffffffffffffffffffffffffffffffffffffffff169050816000806101000a81548173ffffffffffffffffffffffffffffffffffffffff021916908373ffffffffffffffffffffffffffffffffffffffff1602179055508173ffffffffffffffffffffffffffffffffffffffff168173ffffffffffffffffffffffffffffffffffffffff167f8be0079c531659141344cd1fd0a4f28419497f9722a3daafe3b4186f6b6457e060405160405180910390a35050565b6040518060400160405280600781526020017f537563636573730000000000000000000000000000000000000000000000000081525060059080519060200190610ef0929190610efb565b50565b600033905090565b828054610f0790611579565b90600052602060002090601f016020900481019282610f295760008555610f70565b82601f10610f4257805160ff1916838001178555610f70565b82800160010185558215610f70579182015b82811115610f6f578251825591602001919060010190610f54565b5b509050610f7d9190610f81565b5090565b5b80821115610f9a576000816000905550600101610f82565b5090565b600081359050610fad816117ad565b92915050565b600081519050610fc2816117c4565b92915050565b600081359050610fd7816117db565b92915050565b600081519050610fec816117db565b92915050565b60006020828403121561100857611007611609565b5b600061101684828501610f9e565b91505092915050565b60008060006060848603121561103857611037611609565b5b600061104686828701610f9e565b935050602061105786828701610f9e565b925050604061106886828701610fc8565b9150509250925092565b6000806040838503121561108957611088611609565b5b600061109785828601610f9e565b92505060206110a885828601610fc8565b9150509250929050565b6000602082840312156110c8576110c7611609565b5b60006110d684828501610fb3565b91505092915050565b6000602082840312156110f5576110f4611609565b5b600061110384828501610fdd565b91505092915050565b611115816114de565b82525050565b61112481611534565b82525050565b600061113582611438565b61113f8185611443565b935061114f818560208601611546565b6111588161160e565b840191505092915050565b6000611170602683611443565b915061117b8261161f565b604082019050919050565b6000611193602d83611443565b915061119e8261166e565b604082019050919050565b60006111b6601d83611443565b91506111c1826116bd565b602082019050919050565b60006111d9602083611443565b91506111e4826116e6565b602082019050919050565b60006111fc602f83611443565b91506112078261170f565b604082019050919050565b600061121f602a83611443565b915061122a8261175e565b604082019050919050565b61123e8161152a565b82525050565b6000602082019050611259600083018461110c565b92915050565b6000606082019050611274600083018661110c565b611281602083018561110c565b61128e6040830184611235565b949350505050565b60006040820190506112ab600083018561110c565b6112b86020830184611235565b9392505050565b60006060820190506112d4600083018661110c565b6112e16020830185611235565b6112ee604083018461110c565b949350505050565b600060808201905061130b600083018761110c565b6113186020830186611235565b611325604083018561110c565b611332606083018461111b565b95945050505050565b60006020820190508181036000830152611355818461112a565b905092915050565b6000602082019050818103600083015261137681611163565b9050919050565b6000602082019050818103600083015261139681611186565b9050919050565b600060208201905081810360008301526113b6816111a9565b9050919050565b600060208201905081810360008301526113d6816111cc565b9050919050565b600060208201905081810360008301526113f6816111ef565b9050919050565b6000602082019050818103600083015261141681611212565b9050919050565b60006020820190506114326000830184611235565b92915050565b600081519050919050565b600082825260208201905092915050565b600061145f8261152a565b915061146a8361152a565b9250827fffffffffffffffffffffffffffffffffffffffffffffffffffffffffffffffff0382111561149f5761149e6115ab565b5b828201905092915050565b60006114b58261152a565b91506114c08361152a565b9250828210156114d3576114d26115ab565b5b828203905092915050565b60006114e98261150a565b9050919050565b60008115159050919050565b600061ffff82169050919050565b600073ffffffffffffffffffffffffffffffffffffffff82169050919050565b6000819050919050565b600061153f826114fc565b9050919050565b60005b83811015611564578082015181840152602081019050611549565b83811115611573576000848401525b50505050565b6000600282049050600182168061159157607f821691505b602082108114156115a5576115a46115da565b5b50919050565b7f4e487b7100000000000000000000000000000000000000000000000000000000600052601160045260246000fd5b7f4e487b7100000000000000000000000000000000000000000000000000000000600052602260045260246000fd5b600080fd5b6000601f19601f8301169050919050565b7f4f776e61626c653a206e6577206f776e657220697320746865207a65726f206160008201527f6464726573730000000000000000000000000000000000000000000000000000602082015250565b7f5468697320746f6b656e206973206e6f7420617661696c61626c6520696e207460008201527f6869732073747261746567792e00000000000000000000000000000000000000602082015250565b7f546869732061646472657373206973206e6f7420617661696c61626c65000000600082015250565b7f4f776e61626c653a2063616c6c6572206973206e6f7420746865206f776e6572600082015250565b7f596f752063616e2774207769746864726177206d6f7265207468616e20796f7560008201527f722077616c6c65742066756e64732e0000000000000000000000000000000000602082015250565b7f546869732061646472657373206973206e6f742076616c696420666f7220455260008201527f43323020746f6b656e2e00000000000000000000000000000000000000000000602082015250565b6117b6816114de565b81146117c157600080fd5b50565b6117cd816114f0565b81146117d857600080fd5b50565b6117e48161152a565b81146117ef57600080fd5b5056fea264697066735822122049f1b967652c4ae05c2013bdfb2bf93d39d2db9f9a8adf7f7456f0c356420acf64736f6c63430008070033",
  "devdoc": {
    "kind": "dev",
    "methods": {
      "owner()": {
        "details": "Returns the address of the current owner."
      },
      "renounceOwnership()": {
        "details": "Leaves the contract without owner. It will not be possible to call `onlyOwner` functions anymore. Can only be called by the current owner. NOTE: Renouncing ownership will leave the contract without an owner, thereby removing any functionality that is only available to the owner."
      },
      "transferOwnership(address)": {
        "details": "Transfers ownership of the contract to a new account (`newOwner`). Can only be called by the current owner."
      }
    },
    "version": 1
  },
  "userdoc": {
    "kind": "user",
    "methods": {},
    "version": 1
  },
  "storageLayout": {
    "storage": [
      {
        "astId": 7,
        "contract": "contracts/strategies/AaveBasicStrategy.sol:AaveBasicStrategy",
        "label": "_owner",
        "offset": 0,
        "slot": "0",
        "type": "t_address"
      },
      {
        "astId": 1880,
        "contract": "contracts/strategies/AaveBasicStrategy.sol:AaveBasicStrategy",
        "label": "tokenAddress",
        "offset": 0,
        "slot": "1",
        "type": "t_address"
      },
      {
        "astId": 1882,
        "contract": "contracts/strategies/AaveBasicStrategy.sol:AaveBasicStrategy",
        "label": "aaveAddress",
        "offset": 0,
        "slot": "2",
        "type": "t_address"
      },
      {
        "astId": 1885,
        "contract": "contracts/strategies/AaveBasicStrategy.sol:AaveBasicStrategy",
        "label": "aave",
        "offset": 0,
        "slot": "3",
        "type": "t_contract(IPool)1837"
      },
      {
        "astId": 1889,
        "contract": "contracts/strategies/AaveBasicStrategy.sol:AaveBasicStrategy",
        "label": "s_userBalances",
        "offset": 0,
        "slot": "4",
        "type": "t_mapping(t_address,t_uint256)"
      },
      {
        "astId": 1892,
        "contract": "contracts/strategies/AaveBasicStrategy.sol:AaveBasicStrategy",
        "label": "strategyTest",
        "offset": 0,
        "slot": "5",
        "type": "t_string_storage"
      }
    ],
    "types": {
      "t_address": {
        "encoding": "inplace",
        "label": "address",
        "numberOfBytes": "20"
      },
      "t_contract(IPool)1837": {
        "encoding": "inplace",
        "label": "contract IPool",
        "numberOfBytes": "20"
      },
      "t_mapping(t_address,t_uint256)": {
        "encoding": "mapping",
        "key": "t_address",
        "label": "mapping(address => uint256)",
        "numberOfBytes": "32",
        "value": "t_uint256"
      },
      "t_string_storage": {
        "encoding": "bytes",
        "label": "string",
        "numberOfBytes": "32"
      },
      "t_uint256": {
        "encoding": "inplace",
        "label": "uint256",
        "numberOfBytes": "32"
      }
    }
  }
}