{
  "address": "0xA9BDf7764DeeED5F75dCe4F986F9349Eb20C6469",
  "abi": [
    {
      "inputs": [
        {
          "internalType": "address",
          "name": "_tokenAddress",
          "type": "address"
        },
        {
          "internalType": "address",
          "name": "_tokenToBorrow",
          "type": "address"
        },
        {
          "internalType": "address",
          "name": "_aaveAddress",
          "type": "address"
        },
        {
          "internalType": "address",
          "name": "_paraswapAddress",
          "type": "address"
        }
      ],
      "stateMutability": "nonpayable",
      "type": "constructor"
    },
    {
      "anonymous": false,
      "inputs": [
        {
          "indexed": true,
          "internalType": "address",
          "name": "previousOwner",
          "type": "address"
        },
        {
          "indexed": true,
          "internalType": "address",
          "name": "newOwner",
          "type": "address"
        }
      ],
      "name": "OwnershipTransferred",
      "type": "event"
    },
    {
      "inputs": [
        {
          "internalType": "address",
          "name": "_tokenAddress",
          "type": "address"
        },
        {
          "internalType": "address",
          "name": "userAddress",
          "type": "address"
        },
        {
          "internalType": "uint256",
          "name": "amount",
          "type": "uint256"
        }
      ],
      "name": "enterStrategy",
      "outputs": [],
      "stateMutability": "payable",
      "type": "function"
    },
    {
      "inputs": [
        {
          "internalType": "address",
          "name": "userAddress",
          "type": "address"
        },
        {
          "internalType": "uint256",
          "name": "amount",
          "type": "uint256"
        }
      ],
      "name": "exitStrategy",
      "outputs": [],
      "stateMutability": "nonpayable",
      "type": "function"
    },
    {
      "inputs": [],
      "name": "getAaveAddress",
      "outputs": [
        {
          "internalType": "address",
          "name": "",
          "type": "address"
        }
      ],
      "stateMutability": "view",
      "type": "function"
    },
    {
      "inputs": [],
      "name": "getParaswapAddress",
      "outputs": [
        {
          "internalType": "address",
          "name": "",
          "type": "address"
        }
      ],
      "stateMutability": "view",
      "type": "function"
    },
    {
      "inputs": [],
      "name": "getTokenToBorrow",
      "outputs": [
        {
          "internalType": "address",
          "name": "",
          "type": "address"
        }
      ],
      "stateMutability": "view",
      "type": "function"
    },
    {
      "inputs": [],
      "name": "getTokenToDeposit",
      "outputs": [
        {
          "internalType": "address",
          "name": "",
          "type": "address"
        }
      ],
      "stateMutability": "view",
      "type": "function"
    },
    {
      "inputs": [
        {
          "internalType": "address",
          "name": "userAddress",
          "type": "address"
        }
      ],
      "name": "getUserBalance",
      "outputs": [
        {
          "internalType": "uint256",
          "name": "",
          "type": "uint256"
        }
      ],
      "stateMutability": "view",
      "type": "function"
    },
    {
      "inputs": [],
      "name": "owner",
      "outputs": [
        {
          "internalType": "address",
          "name": "",
          "type": "address"
        }
      ],
      "stateMutability": "view",
      "type": "function"
    },
    {
      "inputs": [],
      "name": "recolt",
      "outputs": [],
      "stateMutability": "nonpayable",
      "type": "function"
    },
    {
      "inputs": [],
      "name": "renounceOwnership",
      "outputs": [],
      "stateMutability": "nonpayable",
      "type": "function"
    },
    {
      "inputs": [
        {
          "internalType": "address",
          "name": "_aaveAddress",
          "type": "address"
        }
      ],
      "name": "setAaveAddress",
      "outputs": [],
      "stateMutability": "nonpayable",
      "type": "function"
    },
    {
      "inputs": [
        {
          "internalType": "address",
          "name": "_paraswapAddress",
          "type": "address"
        }
      ],
      "name": "setParaswapAddress",
      "outputs": [],
      "stateMutability": "nonpayable",
      "type": "function"
    },
    {
      "inputs": [
        {
          "internalType": "address",
          "name": "newTokenAddress",
          "type": "address"
        }
      ],
      "name": "setTokenToBorrow",
      "outputs": [],
      "stateMutability": "nonpayable",
      "type": "function"
    },
    {
      "inputs": [
        {
          "internalType": "address",
          "name": "newTokenAddress",
          "type": "address"
        }
      ],
      "name": "setTokenToDeposit",
      "outputs": [],
      "stateMutability": "nonpayable",
      "type": "function"
    },
    {
      "inputs": [],
      "name": "strategyTest",
      "outputs": [
        {
          "internalType": "string",
          "name": "",
          "type": "string"
        }
      ],
      "stateMutability": "view",
      "type": "function"
    },
    {
      "inputs": [
        {
          "internalType": "uint256",
          "name": "amount",
          "type": "uint256"
        }
      ],
      "name": "test",
      "outputs": [],
      "stateMutability": "nonpayable",
      "type": "function"
    },
    {
      "inputs": [
        {
          "internalType": "address",
          "name": "newOwner",
          "type": "address"
        }
      ],
      "name": "transferOwnership",
      "outputs": [],
      "stateMutability": "nonpayable",
      "type": "function"
    }
  ],
  "transactionHash": "0x40c2b46503ea4dbf3b5d1a01aed1458fa3c58a45dff278a9e5e38e58cf635bff",
  "args": [
    "0x2791Bca1f2de4661ED88A30C99A7a9449Aa84174",
    "0x8f3Cf7ad23Cd3CaDbD9735AFf958023239c6A063",
    "0x794a61358d6845594f94dc1db02a252b5b4814ad",
    "0xDEF171Fe48CF0115B1d80b88dc8eAB59176FEe57"
  ],
  "numDeployments": 3,
  "solcInputHash": "425a13162f5c1e90546afa044fd469e3",
  "bytecode": "0x60806040526040518060400160405280600f81526020017f4e6f742063616c6c6564207965742e0000000000000000000000000000000000815250600890805190602001906200005192919062000301565b503480156200005f57600080fd5b5060405162002a2638038062002a268339818101604052810190620000859190620003c8565b620000a5620000996200023560201b60201c565b6200023d60201b60201c565b83600160006101000a81548173ffffffffffffffffffffffffffffffffffffffff021916908373ffffffffffffffffffffffffffffffffffffffff16021790555082600260006101000a81548173ffffffffffffffffffffffffffffffffffffffff021916908373ffffffffffffffffffffffffffffffffffffffff16021790555081600360006101000a81548173ffffffffffffffffffffffffffffffffffffffff021916908373ffffffffffffffffffffffffffffffffffffffff16021790555081600560006101000a81548173ffffffffffffffffffffffffffffffffffffffff021916908373ffffffffffffffffffffffffffffffffffffffff16021790555080600460006101000a81548173ffffffffffffffffffffffffffffffffffffffff021916908373ffffffffffffffffffffffffffffffffffffffff16021790555080600660006101000a81548173ffffffffffffffffffffffffffffffffffffffff021916908373ffffffffffffffffffffffffffffffffffffffff16021790555050505050620004f2565b600033905090565b60008060009054906101000a900473ffffffffffffffffffffffffffffffffffffffff169050816000806101000a81548173ffffffffffffffffffffffffffffffffffffffff021916908373ffffffffffffffffffffffffffffffffffffffff1602179055508173ffffffffffffffffffffffffffffffffffffffff168173ffffffffffffffffffffffffffffffffffffffff167f8be0079c531659141344cd1fd0a4f28419497f9722a3daafe3b4186f6b6457e060405160405180910390a35050565b8280546200030f906200046e565b90600052602060002090601f0160209004810192826200033357600085556200037f565b82601f106200034e57805160ff19168380011785556200037f565b828001600101855582156200037f579182015b828111156200037e57825182559160200191906001019062000361565b5b5090506200038e919062000392565b5090565b5b80821115620003ad57600081600090555060010162000393565b5090565b600081519050620003c281620004d8565b92915050565b60008060008060808587031215620003e557620003e4620004d3565b5b6000620003f587828801620003b1565b94505060206200040887828801620003b1565b93505060406200041b87828801620003b1565b92505060606200042e87828801620003b1565b91505092959194509250565b600062000447826200044e565b9050919050565b600073ffffffffffffffffffffffffffffffffffffffff82169050919050565b600060028204905060018216806200048757607f821691505b602082108114156200049e576200049d620004a4565b5b50919050565b7f4e487b7100000000000000000000000000000000000000000000000000000000600052602260045260246000fd5b600080fd5b620004e3816200043a565b8114620004ef57600080fd5b50565b61252480620005026000396000f3fe6080604052600436106100fe5760003560e01c806384c7dae611610095578063b8837f0011610064578063b8837f00146102eb578063dc77b9ee14610307578063f2fde38b14610330578063faaf3e0014610359578063fb27849314610382576100fe565b806384c7dae6146102435780638da5cb5b1461026c5780639cac2ccf14610297578063b1035aa4146102c2576100fe565b80634e47c85f116100d15780634e47c85f146101ab5780636dad4b35146101d6578063715018a614610201578063742128a814610218576100fe565b806329e99f07146101035780633889f2d61461012c57806347734892146101435780634998550314610180575b600080fd5b34801561010f57600080fd5b5061012a6004803603810190610125919061192a565b6103ab565b005b34801561013857600080fd5b50610141610837565b005b34801561014f57600080fd5b5061016a6004803603810190610165919061183d565b610885565b6040516101779190611f93565b60405180910390f35b34801561018c57600080fd5b506101956108ce565b6040516101a29190611e8f565b60405180910390f35b3480156101b757600080fd5b506101c061095c565b6040516101cd9190611d7c565b60405180910390f35b3480156101e257600080fd5b506101eb610986565b6040516101f89190611d7c565b60405180910390f35b34801561020d57600080fd5b506102166109b0565b005b34801561022457600080fd5b5061022d6109c4565b60405161023a9190611d7c565b60405180910390f35b34801561024f57600080fd5b5061026a600480360381019061026591906118bd565b6109ee565b005b34801561027857600080fd5b50610281610c12565b60405161028e9190611d7c565b60405180910390f35b3480156102a357600080fd5b506102ac610c3b565b6040516102b99190611d7c565b60405180910390f35b3480156102ce57600080fd5b506102e960048036038101906102e4919061183d565b610c65565b005b6103056004803603810190610300919061186a565b610d62565b005b34801561031357600080fd5b5061032e6004803603810190610329919061183d565b610fa0565b005b34801561033c57600080fd5b506103576004803603810190610352919061183d565b61105c565b005b34801561036557600080fd5b50610380600480360381019061037b919061183d565b6110e0565b005b34801561038e57600080fd5b506103a960048036038101906103a4919061183d565b61119c565b005b6040518060400160405280600181526020017f3100000000000000000000000000000000000000000000000000000000000000815250600890805190602001906103f6929190611665565b506000600160009054906101000a900473ffffffffffffffffffffffffffffffffffffffff1690506040518060400160405280600181526020017f320000000000000000000000000000000000000000000000000000000000000081525060089080519060200190610469929190611665565b508073ffffffffffffffffffffffffffffffffffffffff1663095ea7b3600460009054906101000a900473ffffffffffffffffffffffffffffffffffffffff16846040518363ffffffff1660e01b81526004016104c7929190611dce565b602060405180830381600087803b1580156104e157600080fd5b505af11580156104f5573d6000803e3d6000fd5b505050506040513d601f19601f8201168201806040525081019061051991906118fd565b506040518060400160405280600181526020017f330000000000000000000000000000000000000000000000000000000000000081525060089080519060200190610565929190611665565b5061056e6116eb565b6040518060400160405280600181526020017f3400000000000000000000000000000000000000000000000000000000000000815250600890805190602001906105b9929190611665565b50600160009054906101000a900473ffffffffffffffffffffffffffffffffffffffff16816000019073ffffffffffffffffffffffffffffffffffffffff16908173ffffffffffffffffffffffffffffffffffffffff1681525050600260009054906101000a900473ffffffffffffffffffffffffffffffffffffffff16816020019073ffffffffffffffffffffffffffffffffffffffff16908173ffffffffffffffffffffffffffffffffffffffff168152505082816040018181525050600a836106859190612139565b81606001818152505060018361069b9190612139565b8160800181815250508060a00151508060c00151508060e001515080610100015150806101200151508061014001515080610160015150806101800151506019816101a0018181525050806101c00151506040518060400160405280600181526020017f350000000000000000000000000000000000000000000000000000000000000081525060089080519060200190610737929190611665565b50600660009054906101000a900473ffffffffffffffffffffffffffffffffffffffff1673ffffffffffffffffffffffffffffffffffffffff166354e3f31b826040518263ffffffff1660e01b81526004016107939190611f71565b602060405180830381600087803b1580156107ad57600080fd5b505af11580156107c1573d6000803e3d6000fd5b505050506040513d601f19601f820116820180604052508101906107e59190611957565b506040518060400160405280600181526020017f360000000000000000000000000000000000000000000000000000000000000081525060089080519060200190610831929190611665565b50505050565b6040518060400160405280600981526020017f5265636f6c7465642e000000000000000000000000000000000000000000000081525060089080519060200190610882929190611665565b50565b6000600760008373ffffffffffffffffffffffffffffffffffffffff1673ffffffffffffffffffffffffffffffffffffffff168152602001908152602001600020549050919050565b600880546108db90612246565b80601f016020809104026020016040519081016040528092919081815260200182805461090790612246565b80156109545780601f1061092957610100808354040283529160200191610954565b820191906000526020600020905b81548152906001019060200180831161093757829003601f168201915b505050505081565b6000600360009054906101000a900473ffffffffffffffffffffffffffffffffffffffff16905090565b6000600260009054906101000a900473ffffffffffffffffffffffffffffffffffffffff16905090565b6109b8611299565b6109c26000611317565b565b6000600160009054906101000a900473ffffffffffffffffffffffffffffffffffffffff16905090565b80600760008473ffffffffffffffffffffffffffffffffffffffff1673ffffffffffffffffffffffffffffffffffffffff168152602001908152602001600020541015610a70576040517f08c379a0000000000000000000000000000000000000000000000000000000008152600401610a6790611f31565b60405180910390fd5b600073ffffffffffffffffffffffffffffffffffffffff16600160009054906101000a900473ffffffffffffffffffffffffffffffffffffffff1673ffffffffffffffffffffffffffffffffffffffff161415610b02576040517f08c379a0000000000000000000000000000000000000000000000000000000008152600401610af990611f51565b60405180910390fd5b6000600160009054906101000a900473ffffffffffffffffffffffffffffffffffffffff1690508073ffffffffffffffffffffffffffffffffffffffff1663a9059cbb33846040518363ffffffff1660e01b8152600401610b64929190611dce565b602060405180830381600087803b158015610b7e57600080fd5b505af1158015610b92573d6000803e3d6000fd5b505050506040513d601f19601f82011682018060405250810190610bb691906118fd565b5081600760008573ffffffffffffffffffffffffffffffffffffffff1673ffffffffffffffffffffffffffffffffffffffff1681526020019081526020016000206000828254610c069190612139565b92505081905550505050565b60008060009054906101000a900473ffffffffffffffffffffffffffffffffffffffff16905090565b6000600460009054906101000a900473ffffffffffffffffffffffffffffffffffffffff16905090565b610c6d611299565b600073ffffffffffffffffffffffffffffffffffffffff168173ffffffffffffffffffffffffffffffffffffffff161415610cdd576040517f08c379a0000000000000000000000000000000000000000000000000000000008152600401610cd490611ef1565b60405180910390fd5b80600360006101000a81548173ffffffffffffffffffffffffffffffffffffffff021916908373ffffffffffffffffffffffffffffffffffffffff16021790555080600560006101000a81548173ffffffffffffffffffffffffffffffffffffffff021916908373ffffffffffffffffffffffffffffffffffffffff16021790555050565b600160009054906101000a900473ffffffffffffffffffffffffffffffffffffffff1673ffffffffffffffffffffffffffffffffffffffff168373ffffffffffffffffffffffffffffffffffffffff1614610df2576040517f08c379a0000000000000000000000000000000000000000000000000000000008152600401610de990611ed1565b60405180910390fd5b600073ffffffffffffffffffffffffffffffffffffffff16600160009054906101000a900473ffffffffffffffffffffffffffffffffffffffff1673ffffffffffffffffffffffffffffffffffffffff161415610e84576040517f08c379a0000000000000000000000000000000000000000000000000000000008152600401610e7b90611f51565b60405180910390fd5b6000600160009054906101000a900473ffffffffffffffffffffffffffffffffffffffff1690508073ffffffffffffffffffffffffffffffffffffffff166323b872dd3330856040518463ffffffff1660e01b8152600401610ee893929190611d97565b602060405180830381600087803b158015610f0257600080fd5b505af1158015610f16573d6000803e3d6000fd5b505050506040513d601f19601f82011682018060405250810190610f3a91906118fd565b5081600760008573ffffffffffffffffffffffffffffffffffffffff1673ffffffffffffffffffffffffffffffffffffffff1681526020019081526020016000206000828254610f8a9190612058565b92505081905550610f9a826113db565b50505050565b610fa8611299565b600073ffffffffffffffffffffffffffffffffffffffff168173ffffffffffffffffffffffffffffffffffffffff161415611018576040517f08c379a000000000000000000000000000000000000000000000000000000000815260040161100f90611ef1565b60405180910390fd5b80600160006101000a81548173ffffffffffffffffffffffffffffffffffffffff021916908373ffffffffffffffffffffffffffffffffffffffff16021790555050565b611064611299565b600073ffffffffffffffffffffffffffffffffffffffff168173ffffffffffffffffffffffffffffffffffffffff1614156110d4576040517f08c379a00000000000000000000000000000000000000000000000000000000081526004016110cb90611eb1565b60405180910390fd5b6110dd81611317565b50565b6110e8611299565b600073ffffffffffffffffffffffffffffffffffffffff168173ffffffffffffffffffffffffffffffffffffffff161415611158576040517f08c379a000000000000000000000000000000000000000000000000000000000815260040161114f90611ef1565b60405180910390fd5b80600260006101000a81548173ffffffffffffffffffffffffffffffffffffffff021916908373ffffffffffffffffffffffffffffffffffffffff16021790555050565b6111a4611299565b600073ffffffffffffffffffffffffffffffffffffffff168173ffffffffffffffffffffffffffffffffffffffff161415611214576040517f08c379a000000000000000000000000000000000000000000000000000000000815260040161120b90611ef1565b60405180910390fd5b80600460006101000a81548173ffffffffffffffffffffffffffffffffffffffff021916908373ffffffffffffffffffffffffffffffffffffffff16021790555080600660006101000a81548173ffffffffffffffffffffffffffffffffffffffff021916908373ffffffffffffffffffffffffffffffffffffffff16021790555050565b6112a1611410565b73ffffffffffffffffffffffffffffffffffffffff166112bf610c12565b73ffffffffffffffffffffffffffffffffffffffff1614611315576040517f08c379a000000000000000000000000000000000000000000000000000000000815260040161130c90611f11565b60405180910390fd5b565b60008060009054906101000a900473ffffffffffffffffffffffffffffffffffffffff169050816000806101000a81548173ffffffffffffffffffffffffffffffffffffffff021916908373ffffffffffffffffffffffffffffffffffffffff1602179055508173ffffffffffffffffffffffffffffffffffffffff168173ffffffffffffffffffffffffffffffffffffffff167f8be0079c531659141344cd1fd0a4f28419497f9722a3daafe3b4186f6b6457e060405160405180910390a35050565b6113e481611418565b600060046003836113f591906120df565b6113ff91906120ae565b905061140c8160026115a9565b5050565b600033905090565b6000600160009054906101000a900473ffffffffffffffffffffffffffffffffffffffff1690508073ffffffffffffffffffffffffffffffffffffffff1663095ea7b3600360009054906101000a900473ffffffffffffffffffffffffffffffffffffffff16846040518363ffffffff1660e01b815260040161149c929190611dce565b602060405180830381600087803b1580156114b657600080fd5b505af11580156114ca573d6000803e3d6000fd5b505050506040513d601f19601f820116820180604052508101906114ee91906118fd565b50600560009054906101000a900473ffffffffffffffffffffffffffffffffffffffff1673ffffffffffffffffffffffffffffffffffffffff1663617ba037600160009054906101000a900473ffffffffffffffffffffffffffffffffffffffff16843060006040518563ffffffff1660e01b81526004016115739493929190611df7565b600060405180830381600087803b15801561158d57600080fd5b505af11580156115a1573d6000803e3d6000fd5b505050505050565b600560009054906101000a900473ffffffffffffffffffffffffffffffffffffffff1673ffffffffffffffffffffffffffffffffffffffff1663a415bcad600260009054906101000a900473ffffffffffffffffffffffffffffffffffffffff1684846000306040518663ffffffff1660e01b815260040161162f959493929190611e3c565b600060405180830381600087803b15801561164957600080fd5b505af115801561165d573d6000803e3d6000fd5b505050505050565b82805461167190612246565b90600052602060002090601f01602090048101928261169357600085556116da565b82601f106116ac57805160ff19168380011785556116da565b828001600101855582156116da579182015b828111156116d95782518255916020019190600101906116be565b5b5090506116e791906117cc565b5090565b604051806101e00160405280600073ffffffffffffffffffffffffffffffffffffffff168152602001600073ffffffffffffffffffffffffffffffffffffffff16815260200160008152602001600081526020016000815260200160608152602001606081526020016060815260200160608152602001600073ffffffffffffffffffffffffffffffffffffffff168152602001600073ffffffffffffffffffffffffffffffffffffffff16815260200160008152602001606081526020016000815260200160006fffffffffffffffffffffffffffffffff191681525090565b5b808211156117e55760008160009055506001016117cd565b5090565b6000813590506117f8816124a9565b92915050565b60008151905061180d816124c0565b92915050565b600081359050611822816124d7565b92915050565b600081519050611837816124d7565b92915050565b60006020828403121561185357611852612305565b5b6000611861848285016117e9565b91505092915050565b60008060006060848603121561188357611882612305565b5b6000611891868287016117e9565b93505060206118a2868287016117e9565b92505060406118b386828701611813565b9150509250925092565b600080604083850312156118d4576118d3612305565b5b60006118e2858286016117e9565b92505060206118f385828601611813565b9150509250929050565b60006020828403121561191357611912612305565b5b6000611921848285016117fe565b91505092915050565b6000602082840312156119405761193f612305565b5b600061194e84828501611813565b91505092915050565b60006020828403121561196d5761196c612305565b5b600061197b84828501611828565b91505092915050565b600061199083836119c3565b60208301905092915050565b60006119a88383611d5e565b60208301905092915050565b6119bd8161217f565b82525050565b6119cc8161216d565b82525050565b6119db8161216d565b82525050565b60006119ec82611fce565b6119f68185612014565b9350611a0183611fae565b8060005b83811015611a32578151611a198882611984565b9750611a2483611ffa565b925050600181019050611a05565b5085935050505092915050565b6000611a4a82611fd9565b611a548185612025565b9350611a5f83611fbe565b8060005b83811015611a90578151611a77888261199c565b9750611a8283612007565b925050600181019050611a63565b5085935050505092915050565b611aa68161219d565b82525050565b6000611ab782611fe4565b611ac18185612036565b9350611ad1818560208601612213565b611ada8161230a565b840191505092915050565b611aee81612201565b82525050565b6000611aff82611fef565b611b098185612047565b9350611b19818560208601612213565b611b228161230a565b840191505092915050565b6000611b3a602683612047565b9150611b458261231b565b604082019050919050565b6000611b5d602d83612047565b9150611b688261236a565b604082019050919050565b6000611b80601d83612047565b9150611b8b826123b9565b602082019050919050565b6000611ba3602083612047565b9150611bae826123e2565b602082019050919050565b6000611bc6602f83612047565b9150611bd18261240b565b604082019050919050565b6000611be9602a83612047565b9150611bf48261245a565b604082019050919050565b60006101e083016000830151611c1860008601826119c3565b506020830151611c2b60208601826119c3565b506040830151611c3e6040860182611d5e565b506060830151611c516060860182611d5e565b506080830151611c646080860182611d5e565b5060a083015184820360a0860152611c7c82826119e1565b91505060c083015184820360c0860152611c968282611aac565b91505060e083015184820360e0860152611cb08282611a3f565b915050610100830151848203610100860152611ccc8282611a3f565b915050610120830151611ce36101208601826119b4565b50610140830151611cf86101408601826119b4565b50610160830151611d0d610160860182611d5e565b50610180830151848203610180860152611d278282611aac565b9150506101a0830151611d3e6101a0860182611d5e565b506101c0830151611d536101c0860182611a9d565b508091505092915050565b611d67816121f7565b82525050565b611d76816121f7565b82525050565b6000602082019050611d9160008301846119d2565b92915050565b6000606082019050611dac60008301866119d2565b611db960208301856119d2565b611dc66040830184611d6d565b949350505050565b6000604082019050611de360008301856119d2565b611df06020830184611d6d565b9392505050565b6000608082019050611e0c60008301876119d2565b611e196020830186611d6d565b611e2660408301856119d2565b611e336060830184611ae5565b95945050505050565b600060a082019050611e5160008301886119d2565b611e5e6020830187611d6d565b611e6b6040830186611d6d565b611e786060830185611ae5565b611e8560808301846119d2565b9695505050505050565b60006020820190508181036000830152611ea98184611af4565b905092915050565b60006020820190508181036000830152611eca81611b2d565b9050919050565b60006020820190508181036000830152611eea81611b50565b9050919050565b60006020820190508181036000830152611f0a81611b73565b9050919050565b60006020820190508181036000830152611f2a81611b96565b9050919050565b60006020820190508181036000830152611f4a81611bb9565b9050919050565b60006020820190508181036000830152611f6a81611bdc565b9050919050565b60006020820190508181036000830152611f8b8184611bff565b905092915050565b6000602082019050611fa86000830184611d6d565b92915050565b6000819050602082019050919050565b6000819050602082019050919050565b600081519050919050565b600081519050919050565b600081519050919050565b600081519050919050565b6000602082019050919050565b6000602082019050919050565b600082825260208201905092915050565b600082825260208201905092915050565b600082825260208201905092915050565b600082825260208201905092915050565b6000612063826121f7565b915061206e836121f7565b9250827fffffffffffffffffffffffffffffffffffffffffffffffffffffffffffffffff038211156120a3576120a2612278565b5b828201905092915050565b60006120b9826121f7565b91506120c4836121f7565b9250826120d4576120d36122a7565b5b828204905092915050565b60006120ea826121f7565b91506120f5836121f7565b9250817fffffffffffffffffffffffffffffffffffffffffffffffffffffffffffffffff048311821515161561212e5761212d612278565b5b828202905092915050565b6000612144826121f7565b915061214f836121f7565b92508282101561216257612161612278565b5b828203905092915050565b6000612178826121d7565b9050919050565b600061218a826121d7565b9050919050565b60008115159050919050565b60007fffffffffffffffffffffffffffffffff0000000000000000000000000000000082169050919050565b600061ffff82169050919050565b600073ffffffffffffffffffffffffffffffffffffffff82169050919050565b6000819050919050565b600061220c826121c9565b9050919050565b60005b83811015612231578082015181840152602081019050612216565b83811115612240576000848401525b50505050565b6000600282049050600182168061225e57607f821691505b60208210811415612272576122716122d6565b5b50919050565b7f4e487b7100000000000000000000000000000000000000000000000000000000600052601160045260246000fd5b7f4e487b7100000000000000000000000000000000000000000000000000000000600052601260045260246000fd5b7f4e487b7100000000000000000000000000000000000000000000000000000000600052602260045260246000fd5b600080fd5b6000601f19601f8301169050919050565b7f4f776e61626c653a206e6577206f776e657220697320746865207a65726f206160008201527f6464726573730000000000000000000000000000000000000000000000000000602082015250565b7f5468697320746f6b656e206973206e6f7420617661696c61626c6520696e207460008201527f6869732073747261746567792e00000000000000000000000000000000000000602082015250565b7f546869732061646472657373206973206e6f7420617661696c61626c65000000600082015250565b7f4f776e61626c653a2063616c6c6572206973206e6f7420746865206f776e6572600082015250565b7f596f752063616e2774207769746864726177206d6f7265207468616e20796f7560008201527f722077616c6c65742066756e64732e0000000000000000000000000000000000602082015250565b7f546869732061646472657373206973206e6f742076616c696420666f7220455260008201527f43323020746f6b656e2e00000000000000000000000000000000000000000000602082015250565b6124b28161216d565b81146124bd57600080fd5b50565b6124c981612191565b81146124d457600080fd5b50565b6124e0816121f7565b81146124eb57600080fd5b5056fea2646970667358221220405d9c0f1824effa6e0a31e089aa89292c15e934964a0bc69b2668394b10e73364736f6c63430008070033",
  "devdoc": {
    "kind": "dev",
    "methods": {
      "owner()": {
        "details": "Returns the address of the current owner."
      },
      "renounceOwnership()": {
        "details": "Leaves the contract without owner. It will not be possible to call `onlyOwner` functions anymore. Can only be called by the current owner. NOTE: Renouncing ownership will leave the contract without an owner, thereby removing any functionality that is only available to the owner."
      },
      "transferOwnership(address)": {
        "details": "Transfers ownership of the contract to a new account (`newOwner`). Can only be called by the current owner."
      }
    },
    "version": 1
  },
  "userdoc": {
    "kind": "user",
    "methods": {},
    "version": 1
  },
  "storageLayout": {
    "storage": [
      {
        "astId": 7,
        "contract": "contracts/strategies/AaveBasicStrategy.sol:AaveBasicStrategy",
        "label": "_owner",
        "offset": 0,
        "slot": "0",
        "type": "t_address"
      },
      {
        "astId": 1374,
        "contract": "contracts/strategies/AaveBasicStrategy.sol:AaveBasicStrategy",
        "label": "tokenAddress",
        "offset": 0,
        "slot": "1",
        "type": "t_address"
      },
      {
        "astId": 1376,
        "contract": "contracts/strategies/AaveBasicStrategy.sol:AaveBasicStrategy",
        "label": "tokenToBorrow",
        "offset": 0,
        "slot": "2",
        "type": "t_address"
      },
      {
        "astId": 1378,
        "contract": "contracts/strategies/AaveBasicStrategy.sol:AaveBasicStrategy",
        "label": "aaveAddress",
        "offset": 0,
        "slot": "3",
        "type": "t_address"
      },
      {
        "astId": 1380,
        "contract": "contracts/strategies/AaveBasicStrategy.sol:AaveBasicStrategy",
        "label": "paraswapAddress",
        "offset": 0,
        "slot": "4",
        "type": "t_address"
      },
      {
        "astId": 1383,
        "contract": "contracts/strategies/AaveBasicStrategy.sol:AaveBasicStrategy",
        "label": "aave",
        "offset": 0,
        "slot": "5",
        "type": "t_contract(IPool)1238"
      },
      {
        "astId": 1386,
        "contract": "contracts/strategies/AaveBasicStrategy.sol:AaveBasicStrategy",
        "label": "paraswap",
        "offset": 0,
        "slot": "6",
        "type": "t_contract(IParaswap)1001"
      },
      {
        "astId": 1390,
        "contract": "contracts/strategies/AaveBasicStrategy.sol:AaveBasicStrategy",
        "label": "s_userBalances",
        "offset": 0,
        "slot": "7",
        "type": "t_mapping(t_address,t_uint256)"
      },
      {
        "astId": 1393,
        "contract": "contracts/strategies/AaveBasicStrategy.sol:AaveBasicStrategy",
        "label": "strategyTest",
        "offset": 0,
        "slot": "8",
        "type": "t_string_storage"
      }
    ],
    "types": {
      "t_address": {
        "encoding": "inplace",
        "label": "address",
        "numberOfBytes": "20"
      },
      "t_contract(IParaswap)1001": {
        "encoding": "inplace",
        "label": "contract IParaswap",
        "numberOfBytes": "20"
      },
      "t_contract(IPool)1238": {
        "encoding": "inplace",
        "label": "contract IPool",
        "numberOfBytes": "20"
      },
      "t_mapping(t_address,t_uint256)": {
        "encoding": "mapping",
        "key": "t_address",
        "label": "mapping(address => uint256)",
        "numberOfBytes": "32",
        "value": "t_uint256"
      },
      "t_string_storage": {
        "encoding": "bytes",
        "label": "string",
        "numberOfBytes": "32"
      },
      "t_uint256": {
        "encoding": "inplace",
        "label": "uint256",
        "numberOfBytes": "32"
      }
    }
  }
}