{
  "address": "0x58f7e38c245a82773F405871d26E1c08c961b43E",
  "abi": [
    {
      "inputs": [
        {
          "internalType": "address",
          "name": "_tokenAddress",
          "type": "address"
        },
        {
          "internalType": "address",
          "name": "_tokenToBorrow",
          "type": "address"
        },
        {
          "internalType": "address",
          "name": "_aaveAddress",
          "type": "address"
        },
        {
          "internalType": "address",
          "name": "_uniswapAddress",
          "type": "address"
        }
      ],
      "stateMutability": "nonpayable",
      "type": "constructor"
    },
    {
      "anonymous": false,
      "inputs": [
        {
          "indexed": true,
          "internalType": "address",
          "name": "previousOwner",
          "type": "address"
        },
        {
          "indexed": true,
          "internalType": "address",
          "name": "newOwner",
          "type": "address"
        }
      ],
      "name": "OwnershipTransferred",
      "type": "event"
    },
    {
      "inputs": [
        {
          "internalType": "address",
          "name": "_tokenAddress",
          "type": "address"
        },
        {
          "internalType": "address",
          "name": "userAddress",
          "type": "address"
        },
        {
          "internalType": "uint256",
          "name": "amount",
          "type": "uint256"
        }
      ],
      "name": "enterStrategy",
      "outputs": [],
      "stateMutability": "payable",
      "type": "function"
    },
    {
      "inputs": [
        {
          "internalType": "address",
          "name": "userAddress",
          "type": "address"
        },
        {
          "internalType": "uint256",
          "name": "amount",
          "type": "uint256"
        }
      ],
      "name": "exitStrategy",
      "outputs": [],
      "stateMutability": "nonpayable",
      "type": "function"
    },
    {
      "inputs": [],
      "name": "getAaveAddress",
      "outputs": [
        {
          "internalType": "address",
          "name": "",
          "type": "address"
        }
      ],
      "stateMutability": "view",
      "type": "function"
    },
    {
      "inputs": [],
      "name": "getTokenToBorrow",
      "outputs": [
        {
          "internalType": "address",
          "name": "",
          "type": "address"
        }
      ],
      "stateMutability": "view",
      "type": "function"
    },
    {
      "inputs": [],
      "name": "getTokenToDeposit",
      "outputs": [
        {
          "internalType": "address",
          "name": "",
          "type": "address"
        }
      ],
      "stateMutability": "view",
      "type": "function"
    },
    {
      "inputs": [],
      "name": "getUniswapAddress",
      "outputs": [
        {
          "internalType": "address",
          "name": "",
          "type": "address"
        }
      ],
      "stateMutability": "view",
      "type": "function"
    },
    {
      "inputs": [
        {
          "internalType": "address",
          "name": "userAddress",
          "type": "address"
        }
      ],
      "name": "getUserBalance",
      "outputs": [
        {
          "internalType": "uint256",
          "name": "",
          "type": "uint256"
        }
      ],
      "stateMutability": "view",
      "type": "function"
    },
    {
      "inputs": [],
      "name": "owner",
      "outputs": [
        {
          "internalType": "address",
          "name": "",
          "type": "address"
        }
      ],
      "stateMutability": "view",
      "type": "function"
    },
    {
      "inputs": [],
      "name": "recolt",
      "outputs": [],
      "stateMutability": "nonpayable",
      "type": "function"
    },
    {
      "inputs": [],
      "name": "renounceOwnership",
      "outputs": [],
      "stateMutability": "nonpayable",
      "type": "function"
    },
    {
      "inputs": [
        {
          "internalType": "address",
          "name": "_aaveAddress",
          "type": "address"
        }
      ],
      "name": "setAaveAddress",
      "outputs": [],
      "stateMutability": "nonpayable",
      "type": "function"
    },
    {
      "inputs": [
        {
          "internalType": "address",
          "name": "newTokenAddress",
          "type": "address"
        }
      ],
      "name": "setTokenToBorrow",
      "outputs": [],
      "stateMutability": "nonpayable",
      "type": "function"
    },
    {
      "inputs": [
        {
          "internalType": "address",
          "name": "newTokenAddress",
          "type": "address"
        }
      ],
      "name": "setTokenToDeposit",
      "outputs": [],
      "stateMutability": "nonpayable",
      "type": "function"
    },
    {
      "inputs": [
        {
          "internalType": "address",
          "name": "_uniswapAddress",
          "type": "address"
        }
      ],
      "name": "setUniswapAddress",
      "outputs": [],
      "stateMutability": "nonpayable",
      "type": "function"
    },
    {
      "inputs": [],
      "name": "strategyTest",
      "outputs": [
        {
          "internalType": "uint256",
          "name": "",
          "type": "uint256"
        }
      ],
      "stateMutability": "view",
      "type": "function"
    },
    {
      "inputs": [
        {
          "internalType": "address",
          "name": "tokenToSwap",
          "type": "address"
        },
        {
          "internalType": "address",
          "name": "tokenToGet",
          "type": "address"
        },
        {
          "internalType": "uint256",
          "name": "amount",
          "type": "uint256"
        },
        {
          "internalType": "uint24",
          "name": "fees",
          "type": "uint24"
        }
      ],
      "name": "swapOnUniswap",
      "outputs": [
        {
          "internalType": "uint256",
          "name": "",
          "type": "uint256"
        }
      ],
      "stateMutability": "nonpayable",
      "type": "function"
    },
    {
      "inputs": [
        {
          "internalType": "address",
          "name": "newOwner",
          "type": "address"
        }
      ],
      "name": "transferOwnership",
      "outputs": [],
      "stateMutability": "nonpayable",
      "type": "function"
    },
    {
      "inputs": [
        {
          "internalType": "address",
          "name": "_tokenAddress",
          "type": "address"
        }
      ],
      "name": "withdraw",
      "outputs": [],
      "stateMutability": "nonpayable",
      "type": "function"
    }
  ],
  "transactionHash": "0x3f3de2742061249c625bf4ae27dff5d7b39a0e4b12f2ea190c969dcaf2e8ae23",
  "args": [
    "0x9c3C9283D3e44854697Cd22D3Faa240Cfb032889",
    "0xA6FA4fB5f76172d178d61B04b0ecd319C5d1C0aa",
    "0x794a61358d6845594f94dc1db02a252b5b4814ad",
    "0xE592427A0AEce92De3Edee1F18E0157C05861564"
  ],
  "numDeployments": 3,
  "solcInputHash": "0543d6d8a79dbbe943d3565bf56ec6e4",
  "bytecode": "0x608060405260006008553480156200001657600080fd5b5060405162001ee838038062001ee883398181016040528101906200003c9190620002cf565b6200005c62000050620001ec60201b60201c565b620001f460201b60201c565b83600160006101000a81548173ffffffffffffffffffffffffffffffffffffffff021916908373ffffffffffffffffffffffffffffffffffffffff16021790555082600260006101000a81548173ffffffffffffffffffffffffffffffffffffffff021916908373ffffffffffffffffffffffffffffffffffffffff16021790555081600360006101000a81548173ffffffffffffffffffffffffffffffffffffffff021916908373ffffffffffffffffffffffffffffffffffffffff16021790555081600560006101000a81548173ffffffffffffffffffffffffffffffffffffffff021916908373ffffffffffffffffffffffffffffffffffffffff16021790555080600460006101000a81548173ffffffffffffffffffffffffffffffffffffffff021916908373ffffffffffffffffffffffffffffffffffffffff16021790555080600660006101000a81548173ffffffffffffffffffffffffffffffffffffffff021916908373ffffffffffffffffffffffffffffffffffffffff1602179055505050505062000394565b600033905090565b60008060009054906101000a900473ffffffffffffffffffffffffffffffffffffffff169050816000806101000a81548173ffffffffffffffffffffffffffffffffffffffff021916908373ffffffffffffffffffffffffffffffffffffffff1602179055508173ffffffffffffffffffffffffffffffffffffffff168173ffffffffffffffffffffffffffffffffffffffff167f8be0079c531659141344cd1fd0a4f28419497f9722a3daafe3b4186f6b6457e060405160405180910390a35050565b600081519050620002c9816200037a565b92915050565b60008060008060808587031215620002ec57620002eb62000375565b5b6000620002fc87828801620002b8565b94505060206200030f87828801620002b8565b93505060406200032287828801620002b8565b92505060606200033587828801620002b8565b91505092959194509250565b60006200034e8262000355565b9050919050565b600073ffffffffffffffffffffffffffffffffffffffff82169050919050565b600080fd5b620003858162000341565b81146200039157600080fd5b50565b611b4480620003a46000396000f3fe6080604052600436106101095760003560e01c80637884e7c611610095578063b1035aa411610064578063b1035aa414610333578063b8837f001461035c578063dc77b9ee14610378578063f2fde38b146103a1578063faaf3e00146103ca57610109565b80637884e7c61461028b57806384c7dae6146102b45780638da5cb5b146102dd578063906932531461030857610109565b806351cff8d9116100dc57806351cff8d9146101b8578063592bac55146101e15780636dad4b351461021e578063715018a614610249578063742128a81461026057610109565b80633889f2d61461010e578063477348921461012557806349985503146101625780634e47c85f1461018d575b600080fd5b34801561011a57600080fd5b506101236103f3565b005b34801561013157600080fd5b5061014c60048036038101906101479190611283565b6103fd565b6040516101599190611729565b60405180910390f35b34801561016e57600080fd5b50610177610446565b6040516101849190611729565b60405180910390f35b34801561019957600080fd5b506101a261044c565b6040516101af91906115d2565b60405180910390f35b3480156101c457600080fd5b506101df60048036038101906101da9190611283565b610476565b005b3480156101ed57600080fd5b5061020860048036038101906102039190611303565b610595565b6040516102159190611729565b60405180910390f35b34801561022a57600080fd5b506102336107c6565b60405161024091906115d2565b60405180910390f35b34801561025557600080fd5b5061025e6107f0565b005b34801561026c57600080fd5b50610275610804565b60405161028291906115d2565b60405180910390f35b34801561029757600080fd5b506102b260048036038101906102ad9190611283565b61082e565b005b3480156102c057600080fd5b506102db60048036038101906102d6919061136a565b61092b565b005b3480156102e957600080fd5b506102f2610b4f565b6040516102ff91906115d2565b60405180910390f35b34801561031457600080fd5b5061031d610b78565b60405161032a91906115d2565b60405180910390f35b34801561033f57600080fd5b5061035a60048036038101906103559190611283565b610ba2565b005b610376600480360381019061037191906112b0565b610c9f565b005b34801561038457600080fd5b5061039f600480360381019061039a9190611283565b610ed4565b005b3480156103ad57600080fd5b506103c860048036038101906103c39190611283565b610f90565b005b3480156103d657600080fd5b506103f160048036038101906103ec9190611283565b611014565b005b6001600881905550565b6000600760008373ffffffffffffffffffffffffffffffffffffffff1673ffffffffffffffffffffffffffffffffffffffff168152602001908152602001600020549050919050565b60085481565b6000600360009054906101000a900473ffffffffffffffffffffffffffffffffffffffff16905090565b60008190508073ffffffffffffffffffffffffffffffffffffffff1663a9059cbb338373ffffffffffffffffffffffffffffffffffffffff166370a08231306040518263ffffffff1660e01b81526004016104d191906115d2565b60206040518083038186803b1580156104e957600080fd5b505afa1580156104fd573d6000803e3d6000fd5b505050506040513d601f19601f8201168201806040525081019061052191906113d7565b6040518363ffffffff1660e01b815260040161053e929190611624565b602060405180830381600087803b15801561055857600080fd5b505af115801561056c573d6000803e3d6000fd5b505050506040513d601f19601f8201168201806040525081019061059091906113aa565b505050565b6000808590508073ffffffffffffffffffffffffffffffffffffffff1663095ea7b3600460009054906101000a900473ffffffffffffffffffffffffffffffffffffffff16866040518363ffffffff1660e01b81526004016105f8929190611624565b602060405180830381600087803b15801561061257600080fd5b505af1158015610626573d6000803e3d6000fd5b505050506040513d601f19601f8201168201806040525081019061064a91906113aa565b5060006040518061010001604052808873ffffffffffffffffffffffffffffffffffffffff1681526020018773ffffffffffffffffffffffffffffffffffffffff1681526020018562ffffff1681526020013073ffffffffffffffffffffffffffffffffffffffff16815260200142815260200186815260200160008152602001600073ffffffffffffffffffffffffffffffffffffffff168152509050600a6009866106f791906117dc565b61070191906117ab565b6008819055506000600660009054906101000a900473ffffffffffffffffffffffffffffffffffffffff1673ffffffffffffffffffffffffffffffffffffffff1663414bf389836040518263ffffffff1660e01b8152600401610764919061170d565b602060405180830381600087803b15801561077e57600080fd5b505af1158015610792573d6000803e3d6000fd5b505050506040513d601f19601f820116820180604052508101906107b691906113d7565b9050809350505050949350505050565b6000600260009054906101000a900473ffffffffffffffffffffffffffffffffffffffff16905090565b6107f86110d0565b610802600061114e565b565b6000600160009054906101000a900473ffffffffffffffffffffffffffffffffffffffff16905090565b6108366110d0565b600073ffffffffffffffffffffffffffffffffffffffff168173ffffffffffffffffffffffffffffffffffffffff1614156108a6576040517f08c379a000000000000000000000000000000000000000000000000000000000815260040161089d9061168d565b60405180910390fd5b80600460006101000a81548173ffffffffffffffffffffffffffffffffffffffff021916908373ffffffffffffffffffffffffffffffffffffffff16021790555080600660006101000a81548173ffffffffffffffffffffffffffffffffffffffff021916908373ffffffffffffffffffffffffffffffffffffffff16021790555050565b80600760008473ffffffffffffffffffffffffffffffffffffffff1673ffffffffffffffffffffffffffffffffffffffff1681526020019081526020016000205410156109ad576040517f08c379a00000000000000000000000000000000000000000000000000000000081526004016109a4906116cd565b60405180910390fd5b600073ffffffffffffffffffffffffffffffffffffffff16600160009054906101000a900473ffffffffffffffffffffffffffffffffffffffff1673ffffffffffffffffffffffffffffffffffffffff161415610a3f576040517f08c379a0000000000000000000000000000000000000000000000000000000008152600401610a36906116ed565b60405180910390fd5b6000600160009054906101000a900473ffffffffffffffffffffffffffffffffffffffff1690508073ffffffffffffffffffffffffffffffffffffffff1663a9059cbb33846040518363ffffffff1660e01b8152600401610aa1929190611624565b602060405180830381600087803b158015610abb57600080fd5b505af1158015610acf573d6000803e3d6000fd5b505050506040513d601f19601f82011682018060405250810190610af391906113aa565b5081600760008573ffffffffffffffffffffffffffffffffffffffff1673ffffffffffffffffffffffffffffffffffffffff1681526020019081526020016000206000828254610b439190611836565b92505081905550505050565b60008060009054906101000a900473ffffffffffffffffffffffffffffffffffffffff16905090565b6000600460009054906101000a900473ffffffffffffffffffffffffffffffffffffffff16905090565b610baa6110d0565b600073ffffffffffffffffffffffffffffffffffffffff168173ffffffffffffffffffffffffffffffffffffffff161415610c1a576040517f08c379a0000000000000000000000000000000000000000000000000000000008152600401610c119061168d565b60405180910390fd5b80600360006101000a81548173ffffffffffffffffffffffffffffffffffffffff021916908373ffffffffffffffffffffffffffffffffffffffff16021790555080600560006101000a81548173ffffffffffffffffffffffffffffffffffffffff021916908373ffffffffffffffffffffffffffffffffffffffff16021790555050565b600160009054906101000a900473ffffffffffffffffffffffffffffffffffffffff1673ffffffffffffffffffffffffffffffffffffffff168373ffffffffffffffffffffffffffffffffffffffff1614610d2f576040517f08c379a0000000000000000000000000000000000000000000000000000000008152600401610d269061166d565b60405180910390fd5b600073ffffffffffffffffffffffffffffffffffffffff16600160009054906101000a900473ffffffffffffffffffffffffffffffffffffffff1673ffffffffffffffffffffffffffffffffffffffff161415610dc1576040517f08c379a0000000000000000000000000000000000000000000000000000000008152600401610db8906116ed565b60405180910390fd5b6000600160009054906101000a900473ffffffffffffffffffffffffffffffffffffffff1690508073ffffffffffffffffffffffffffffffffffffffff166323b872dd3330856040518463ffffffff1660e01b8152600401610e25939291906115ed565b602060405180830381600087803b158015610e3f57600080fd5b505af1158015610e53573d6000803e3d6000fd5b505050506040513d601f19601f82011682018060405250810190610e7791906113aa565b5081600760008573ffffffffffffffffffffffffffffffffffffffff1673ffffffffffffffffffffffffffffffffffffffff1681526020019081526020016000206000828254610ec79190611755565b9250508190555050505050565b610edc6110d0565b600073ffffffffffffffffffffffffffffffffffffffff168173ffffffffffffffffffffffffffffffffffffffff161415610f4c576040517f08c379a0000000000000000000000000000000000000000000000000000000008152600401610f439061168d565b60405180910390fd5b80600160006101000a81548173ffffffffffffffffffffffffffffffffffffffff021916908373ffffffffffffffffffffffffffffffffffffffff16021790555050565b610f986110d0565b600073ffffffffffffffffffffffffffffffffffffffff168173ffffffffffffffffffffffffffffffffffffffff161415611008576040517f08c379a0000000000000000000000000000000000000000000000000000000008152600401610fff9061164d565b60405180910390fd5b6110118161114e565b50565b61101c6110d0565b600073ffffffffffffffffffffffffffffffffffffffff168173ffffffffffffffffffffffffffffffffffffffff16141561108c576040517f08c379a00000000000000000000000000000000000000000000000000000000081526004016110839061168d565b60405180910390fd5b80600260006101000a81548173ffffffffffffffffffffffffffffffffffffffff021916908373ffffffffffffffffffffffffffffffffffffffff16021790555050565b6110d8611212565b73ffffffffffffffffffffffffffffffffffffffff166110f6610b4f565b73ffffffffffffffffffffffffffffffffffffffff161461114c576040517f08c379a0000000000000000000000000000000000000000000000000000000008152600401611143906116ad565b60405180910390fd5b565b60008060009054906101000a900473ffffffffffffffffffffffffffffffffffffffff169050816000806101000a81548173ffffffffffffffffffffffffffffffffffffffff021916908373ffffffffffffffffffffffffffffffffffffffff1602179055508173ffffffffffffffffffffffffffffffffffffffff168173ffffffffffffffffffffffffffffffffffffffff167f8be0079c531659141344cd1fd0a4f28419497f9722a3daafe3b4186f6b6457e060405160405180910390a35050565b600033905090565b60008135905061122981611ab2565b92915050565b60008151905061123e81611ac9565b92915050565b60008135905061125381611ae0565b92915050565b60008135905061126881611af7565b92915050565b60008151905061127d81611af7565b92915050565b6000602082840312156112995761129861191f565b5b60006112a78482850161121a565b91505092915050565b6000806000606084860312156112c9576112c861191f565b5b60006112d78682870161121a565b93505060206112e88682870161121a565b92505060406112f986828701611259565b9150509250925092565b6000806000806080858703121561131d5761131c61191f565b5b600061132b8782880161121a565b945050602061133c8782880161121a565b935050604061134d87828801611259565b925050606061135e87828801611244565b91505092959194509250565b600080604083850312156113815761138061191f565b5b600061138f8582860161121a565b92505060206113a085828601611259565b9150509250929050565b6000602082840312156113c0576113bf61191f565b5b60006113ce8482850161122f565b91505092915050565b6000602082840312156113ed576113ec61191f565b5b60006113fb8482850161126e565b91505092915050565b61140d8161186a565b82525050565b61141c8161186a565b82525050565b600061142f602683611744565b915061143a82611924565b604082019050919050565b6000611452602d83611744565b915061145d82611973565b604082019050919050565b6000611475601d83611744565b9150611480826119c2565b602082019050919050565b6000611498602083611744565b91506114a3826119eb565b602082019050919050565b60006114bb602f83611744565b91506114c682611a14565b604082019050919050565b60006114de602a83611744565b91506114e982611a63565b604082019050919050565b6101008201600082015161150b6000850182611404565b50602082015161151e6020850182611404565b50604082015161153160408501826115a5565b5060608201516115446060850182611404565b50608082015161155760808501826115b4565b5060a082015161156a60a08501826115b4565b5060c082015161157d60c08501826115b4565b5060e082015161159060e0850182611596565b50505050565b61159f81611888565b82525050565b6115ae816118a8565b82525050565b6115bd816118b7565b82525050565b6115cc816118b7565b82525050565b60006020820190506115e76000830184611413565b92915050565b60006060820190506116026000830186611413565b61160f6020830185611413565b61161c60408301846115c3565b949350505050565b60006040820190506116396000830185611413565b61164660208301846115c3565b9392505050565b6000602082019050818103600083015261166681611422565b9050919050565b6000602082019050818103600083015261168681611445565b9050919050565b600060208201905081810360008301526116a681611468565b9050919050565b600060208201905081810360008301526116c68161148b565b9050919050565b600060208201905081810360008301526116e6816114ae565b9050919050565b60006020820190508181036000830152611706816114d1565b9050919050565b60006101008201905061172360008301846114f4565b92915050565b600060208201905061173e60008301846115c3565b92915050565b600082825260208201905092915050565b6000611760826118b7565b915061176b836118b7565b9250827fffffffffffffffffffffffffffffffffffffffffffffffffffffffffffffffff038211156117a05761179f6118c1565b5b828201905092915050565b60006117b6826118b7565b91506117c1836118b7565b9250826117d1576117d06118f0565b5b828204905092915050565b60006117e7826118b7565b91506117f2836118b7565b9250817fffffffffffffffffffffffffffffffffffffffffffffffffffffffffffffffff048311821515161561182b5761182a6118c1565b5b828202905092915050565b6000611841826118b7565b915061184c836118b7565b92508282101561185f5761185e6118c1565b5b828203905092915050565b600061187582611888565b9050919050565b60008115159050919050565b600073ffffffffffffffffffffffffffffffffffffffff82169050919050565b600062ffffff82169050919050565b6000819050919050565b7f4e487b7100000000000000000000000000000000000000000000000000000000600052601160045260246000fd5b7f4e487b7100000000000000000000000000000000000000000000000000000000600052601260045260246000fd5b600080fd5b7f4f776e61626c653a206e6577206f776e657220697320746865207a65726f206160008201527f6464726573730000000000000000000000000000000000000000000000000000602082015250565b7f5468697320746f6b656e206973206e6f7420617661696c61626c6520696e207460008201527f6869732073747261746567792e00000000000000000000000000000000000000602082015250565b7f546869732061646472657373206973206e6f7420617661696c61626c65000000600082015250565b7f4f776e61626c653a2063616c6c6572206973206e6f7420746865206f776e6572600082015250565b7f596f752063616e2774207769746864726177206d6f7265207468616e20796f7560008201527f722077616c6c65742066756e64732e0000000000000000000000000000000000602082015250565b7f546869732061646472657373206973206e6f742076616c696420666f7220455260008201527f43323020746f6b656e2e00000000000000000000000000000000000000000000602082015250565b611abb8161186a565b8114611ac657600080fd5b50565b611ad28161187c565b8114611add57600080fd5b50565b611ae9816118a8565b8114611af457600080fd5b50565b611b00816118b7565b8114611b0b57600080fd5b5056fea2646970667358221220987ef472582955d90ac9d95c0a3378140a6ce4af3fe5b8c56c8f0a47ad7366d264736f6c63430008070033",
  "devdoc": {
    "kind": "dev",
    "methods": {
      "owner()": {
        "details": "Returns the address of the current owner."
      },
      "renounceOwnership()": {
        "details": "Leaves the contract without owner. It will not be possible to call `onlyOwner` functions anymore. Can only be called by the current owner. NOTE: Renouncing ownership will leave the contract without an owner, thereby removing any functionality that is only available to the owner."
      },
      "transferOwnership(address)": {
        "details": "Transfers ownership of the contract to a new account (`newOwner`). Can only be called by the current owner."
      }
    },
    "version": 1
  },
  "userdoc": {
    "kind": "user",
    "methods": {},
    "version": 1
  },
  "storageLayout": {
    "storage": [
      {
        "astId": 7,
        "contract": "contracts/strategies/AaveBasicStrategy.sol:AaveBasicStrategy",
        "label": "_owner",
        "offset": 0,
        "slot": "0",
        "type": "t_address"
      },
      {
        "astId": 1184,
        "contract": "contracts/strategies/AaveBasicStrategy.sol:AaveBasicStrategy",
        "label": "tokenAddress",
        "offset": 0,
        "slot": "1",
        "type": "t_address"
      },
      {
        "astId": 1186,
        "contract": "contracts/strategies/AaveBasicStrategy.sol:AaveBasicStrategy",
        "label": "tokenToBorrow",
        "offset": 0,
        "slot": "2",
        "type": "t_address"
      },
      {
        "astId": 1188,
        "contract": "contracts/strategies/AaveBasicStrategy.sol:AaveBasicStrategy",
        "label": "aaveAddress",
        "offset": 0,
        "slot": "3",
        "type": "t_address"
      },
      {
        "astId": 1190,
        "contract": "contracts/strategies/AaveBasicStrategy.sol:AaveBasicStrategy",
        "label": "uniswapAddress",
        "offset": 0,
        "slot": "4",
        "type": "t_address"
      },
      {
        "astId": 1193,
        "contract": "contracts/strategies/AaveBasicStrategy.sol:AaveBasicStrategy",
        "label": "aave",
        "offset": 0,
        "slot": "5",
        "type": "t_contract(IPool)1174"
      },
      {
        "astId": 1196,
        "contract": "contracts/strategies/AaveBasicStrategy.sol:AaveBasicStrategy",
        "label": "uniswap",
        "offset": 0,
        "slot": "6",
        "type": "t_contract(ISwapRouter)937"
      },
      {
        "astId": 1200,
        "contract": "contracts/strategies/AaveBasicStrategy.sol:AaveBasicStrategy",
        "label": "s_userBalances",
        "offset": 0,
        "slot": "7",
        "type": "t_mapping(t_address,t_uint256)"
      },
      {
        "astId": 1203,
        "contract": "contracts/strategies/AaveBasicStrategy.sol:AaveBasicStrategy",
        "label": "strategyTest",
        "offset": 0,
        "slot": "8",
        "type": "t_uint256"
      }
    ],
    "types": {
      "t_address": {
        "encoding": "inplace",
        "label": "address",
        "numberOfBytes": "20"
      },
      "t_contract(IPool)1174": {
        "encoding": "inplace",
        "label": "contract IPool",
        "numberOfBytes": "20"
      },
      "t_contract(ISwapRouter)937": {
        "encoding": "inplace",
        "label": "contract ISwapRouter",
        "numberOfBytes": "20"
      },
      "t_mapping(t_address,t_uint256)": {
        "encoding": "mapping",
        "key": "t_address",
        "label": "mapping(address => uint256)",
        "numberOfBytes": "32",
        "value": "t_uint256"
      },
      "t_uint256": {
        "encoding": "inplace",
        "label": "uint256",
        "numberOfBytes": "32"
      }
    }
  }
}