{
  "address": "0x71076451dc8C2E81fE7Ec7B5cf7647845e3bF0cf",
  "abi": [
    {
      "inputs": [
        {
          "internalType": "address",
          "name": "_tokenAddress",
          "type": "address"
        },
        {
          "internalType": "address",
          "name": "_tokenToBorrow",
          "type": "address"
        },
        {
          "internalType": "address",
          "name": "_aaveAddress",
          "type": "address"
        },
        {
          "internalType": "address",
          "name": "_aaveRewardsAddress",
          "type": "address"
        },
        {
          "internalType": "address",
          "name": "_uniswapAddress",
          "type": "address"
        },
        {
          "internalType": "address",
          "name": "_uniswapQuoterAddress",
          "type": "address"
        }
      ],
      "stateMutability": "nonpayable",
      "type": "constructor"
    },
    {
      "anonymous": false,
      "inputs": [
        {
          "indexed": true,
          "internalType": "address",
          "name": "previousOwner",
          "type": "address"
        },
        {
          "indexed": true,
          "internalType": "address",
          "name": "newOwner",
          "type": "address"
        }
      ],
      "name": "OwnershipTransferred",
      "type": "event"
    },
    {
      "inputs": [],
      "name": "_availableBorrowsBase",
      "outputs": [
        {
          "internalType": "uint256",
          "name": "",
          "type": "uint256"
        }
      ],
      "stateMutability": "view",
      "type": "function"
    },
    {
      "inputs": [],
      "name": "_currentLiquidationThreshold",
      "outputs": [
        {
          "internalType": "uint256",
          "name": "",
          "type": "uint256"
        }
      ],
      "stateMutability": "view",
      "type": "function"
    },
    {
      "inputs": [
        {
          "internalType": "address",
          "name": "tokenToSwap",
          "type": "address"
        },
        {
          "internalType": "address",
          "name": "tokenToGet",
          "type": "address"
        },
        {
          "internalType": "uint256",
          "name": "amount",
          "type": "uint256"
        },
        {
          "internalType": "uint24",
          "name": "fees",
          "type": "uint24"
        },
        {
          "internalType": "bool",
          "name": "isInput",
          "type": "bool"
        }
      ],
      "name": "_swapOnUniswap",
      "outputs": [
        {
          "internalType": "uint256",
          "name": "",
          "type": "uint256"
        }
      ],
      "stateMutability": "nonpayable",
      "type": "function"
    },
    {
      "inputs": [],
      "name": "_totalCollateralBase",
      "outputs": [
        {
          "internalType": "uint256",
          "name": "",
          "type": "uint256"
        }
      ],
      "stateMutability": "view",
      "type": "function"
    },
    {
      "inputs": [],
      "name": "_totalDebtBase",
      "outputs": [
        {
          "internalType": "uint256",
          "name": "",
          "type": "uint256"
        }
      ],
      "stateMutability": "view",
      "type": "function"
    },
    {
      "inputs": [],
      "name": "calculatedHealthFactor",
      "outputs": [
        {
          "internalType": "uint256",
          "name": "",
          "type": "uint256"
        }
      ],
      "stateMutability": "view",
      "type": "function"
    },
    {
      "inputs": [
        {
          "internalType": "address",
          "name": "_tokenAddress",
          "type": "address"
        },
        {
          "internalType": "address",
          "name": "userAddress",
          "type": "address"
        },
        {
          "internalType": "uint256",
          "name": "amount",
          "type": "uint256"
        }
      ],
      "name": "enterStrategy",
      "outputs": [],
      "stateMutability": "payable",
      "type": "function"
    },
    {
      "inputs": [
        {
          "internalType": "address",
          "name": "userAddress",
          "type": "address"
        },
        {
          "internalType": "uint256",
          "name": "amount",
          "type": "uint256"
        }
      ],
      "name": "exitStrategy",
      "outputs": [],
      "stateMutability": "nonpayable",
      "type": "function"
    },
    {
      "inputs": [],
      "name": "futureHealthFactor",
      "outputs": [
        {
          "internalType": "uint256",
          "name": "",
          "type": "uint256"
        }
      ],
      "stateMutability": "view",
      "type": "function"
    },
    {
      "inputs": [],
      "name": "getAToken",
      "outputs": [
        {
          "internalType": "address",
          "name": "",
          "type": "address"
        }
      ],
      "stateMutability": "view",
      "type": "function"
    },
    {
      "inputs": [],
      "name": "getAaveAddress",
      "outputs": [
        {
          "internalType": "address",
          "name": "",
          "type": "address"
        }
      ],
      "stateMutability": "view",
      "type": "function"
    },
    {
      "inputs": [],
      "name": "getAaveRewardsAddress",
      "outputs": [
        {
          "internalType": "address",
          "name": "",
          "type": "address"
        }
      ],
      "stateMutability": "view",
      "type": "function"
    },
    {
      "inputs": [],
      "name": "getDebtToken",
      "outputs": [
        {
          "internalType": "address",
          "name": "",
          "type": "address"
        }
      ],
      "stateMutability": "view",
      "type": "function"
    },
    {
      "inputs": [
        {
          "internalType": "uint256",
          "name": "addToBorrow",
          "type": "uint256"
        }
      ],
      "name": "getHealthFactor",
      "outputs": [
        {
          "internalType": "uint256",
          "name": "",
          "type": "uint256"
        },
        {
          "internalType": "uint256",
          "name": "",
          "type": "uint256"
        },
        {
          "internalType": "uint256",
          "name": "",
          "type": "uint256"
        }
      ],
      "stateMutability": "nonpayable",
      "type": "function"
    },
    {
      "inputs": [],
      "name": "getPureStrategyBalanceOnAave",
      "outputs": [
        {
          "internalType": "uint256",
          "name": "",
          "type": "uint256"
        }
      ],
      "stateMutability": "nonpayable",
      "type": "function"
    },
    {
      "inputs": [],
      "name": "getStrategyATokenBalance",
      "outputs": [
        {
          "internalType": "uint256",
          "name": "",
          "type": "uint256"
        }
      ],
      "stateMutability": "view",
      "type": "function"
    },
    {
      "inputs": [],
      "name": "getStrategyBalanceOutOfAave",
      "outputs": [
        {
          "internalType": "uint256",
          "name": "",
          "type": "uint256"
        }
      ],
      "stateMutability": "view",
      "type": "function"
    },
    {
      "inputs": [],
      "name": "getStrategyDebtTokenBalance",
      "outputs": [
        {
          "internalType": "uint256",
          "name": "",
          "type": "uint256"
        }
      ],
      "stateMutability": "view",
      "type": "function"
    },
    {
      "inputs": [],
      "name": "getTokenToBorrow",
      "outputs": [
        {
          "internalType": "address",
          "name": "",
          "type": "address"
        }
      ],
      "stateMutability": "view",
      "type": "function"
    },
    {
      "inputs": [],
      "name": "getTokenToDeposit",
      "outputs": [
        {
          "internalType": "address",
          "name": "",
          "type": "address"
        }
      ],
      "stateMutability": "view",
      "type": "function"
    },
    {
      "inputs": [],
      "name": "getTotalStrategyBalance",
      "outputs": [
        {
          "internalType": "uint256",
          "name": "",
          "type": "uint256"
        }
      ],
      "stateMutability": "nonpayable",
      "type": "function"
    },
    {
      "inputs": [],
      "name": "getUniswapAddress",
      "outputs": [
        {
          "internalType": "address",
          "name": "",
          "type": "address"
        }
      ],
      "stateMutability": "view",
      "type": "function"
    },
    {
      "inputs": [],
      "name": "getUniswapQuoterAddress",
      "outputs": [
        {
          "internalType": "address",
          "name": "",
          "type": "address"
        }
      ],
      "stateMutability": "view",
      "type": "function"
    },
    {
      "inputs": [
        {
          "internalType": "address",
          "name": "userAddress",
          "type": "address"
        }
      ],
      "name": "getUserBalance",
      "outputs": [
        {
          "internalType": "uint256",
          "name": "",
          "type": "uint256"
        }
      ],
      "stateMutability": "nonpayable",
      "type": "function"
    },
    {
      "inputs": [],
      "name": "healthFactor",
      "outputs": [
        {
          "internalType": "uint256",
          "name": "",
          "type": "uint256"
        }
      ],
      "stateMutability": "view",
      "type": "function"
    },
    {
      "inputs": [],
      "name": "owner",
      "outputs": [
        {
          "internalType": "address",
          "name": "",
          "type": "address"
        }
      ],
      "stateMutability": "view",
      "type": "function"
    },
    {
      "inputs": [],
      "name": "recolt",
      "outputs": [],
      "stateMutability": "nonpayable",
      "type": "function"
    },
    {
      "inputs": [],
      "name": "renounceOwnership",
      "outputs": [],
      "stateMutability": "nonpayable",
      "type": "function"
    },
    {
      "inputs": [
        {
          "internalType": "address",
          "name": "_aaveAddress",
          "type": "address"
        }
      ],
      "name": "setAaveAddress",
      "outputs": [],
      "stateMutability": "nonpayable",
      "type": "function"
    },
    {
      "inputs": [
        {
          "internalType": "address",
          "name": "_aaveRewardsAddress",
          "type": "address"
        }
      ],
      "name": "setAaveRewardsAddress",
      "outputs": [],
      "stateMutability": "nonpayable",
      "type": "function"
    },
    {
      "inputs": [
        {
          "internalType": "address",
          "name": "newTokenAddress",
          "type": "address"
        }
      ],
      "name": "setTokenToBorrow",
      "outputs": [],
      "stateMutability": "nonpayable",
      "type": "function"
    },
    {
      "inputs": [
        {
          "internalType": "address",
          "name": "newTokenAddress",
          "type": "address"
        }
      ],
      "name": "setTokenToDeposit",
      "outputs": [],
      "stateMutability": "nonpayable",
      "type": "function"
    },
    {
      "inputs": [
        {
          "internalType": "address",
          "name": "_uniswapAddress",
          "type": "address"
        }
      ],
      "name": "setUniswapAddress",
      "outputs": [],
      "stateMutability": "nonpayable",
      "type": "function"
    },
    {
      "inputs": [
        {
          "internalType": "address",
          "name": "_uniswapQuoterAddress",
          "type": "address"
        }
      ],
      "name": "setUniswapQuoterAddress",
      "outputs": [],
      "stateMutability": "nonpayable",
      "type": "function"
    },
    {
      "inputs": [],
      "name": "strategyTest",
      "outputs": [
        {
          "internalType": "uint256",
          "name": "",
          "type": "uint256"
        }
      ],
      "stateMutability": "view",
      "type": "function"
    },
    {
      "inputs": [
        {
          "internalType": "address",
          "name": "newOwner",
          "type": "address"
        }
      ],
      "name": "transferOwnership",
      "outputs": [],
      "stateMutability": "nonpayable",
      "type": "function"
    },
    {
      "inputs": [
        {
          "internalType": "address",
          "name": "_tokenAddress",
          "type": "address"
        }
      ],
      "name": "withdraw",
      "outputs": [],
      "stateMutability": "nonpayable",
      "type": "function"
    }
  ],
  "transactionHash": "0xe047ab37d56487cbfc9fc2c065839c820f940f080a4a189aeb97233d799aff33",
  "args": [
    "0xA6FA4fB5f76172d178d61B04b0ecd319C5d1C0aa",
    "0x9c3C9283D3e44854697Cd22D3Faa240Cfb032889",
    "0x6C9fB0D5bD9429eb9Cd96B85B81d872281771E6B",
    "0x929EC64c34a17401F460460D4B9390518E5B473e",
    "0xE592427A0AEce92De3Edee1F18E0157C05861564",
    "0xb27308f9F90D607463bb33eA1BeBb41C27CE5AB6"
  ],
  "numDeployments": 10,
  "solcInputHash": "13eb9dca2370dabc719dd94f99753a50",
  "bytecode": "0x60a06040526000600f553480156200001657600080fd5b50604051620050e7380380620050e783398181016040528101906200003c9190620008e3565b6200005c62000050620007a360201b60201c565b620007ab60201b60201c565b85600160006101000a81548173ffffffffffffffffffffffffffffffffffffffff021916908373ffffffffffffffffffffffffffffffffffffffff16021790555084600260006101000a81548173ffffffffffffffffffffffffffffffffffffffff021916908373ffffffffffffffffffffffffffffffffffffffff16021790555083600560006101000a81548173ffffffffffffffffffffffffffffffffffffffff021916908373ffffffffffffffffffffffffffffffffffffffff16021790555083600960006101000a81548173ffffffffffffffffffffffffffffffffffffffff021916908373ffffffffffffffffffffffffffffffffffffffff16021790555082600660006101000a81548173ffffffffffffffffffffffffffffffffffffffff021916908373ffffffffffffffffffffffffffffffffffffffff16021790555082600c60006101000a81548173ffffffffffffffffffffffffffffffffffffffff021916908373ffffffffffffffffffffffffffffffffffffffff16021790555081600760006101000a81548173ffffffffffffffffffffffffffffffffffffffff021916908373ffffffffffffffffffffffffffffffffffffffff16021790555081600a60006101000a81548173ffffffffffffffffffffffffffffffffffffffff021916908373ffffffffffffffffffffffffffffffffffffffff16021790555080600860006101000a81548173ffffffffffffffffffffffffffffffffffffffff021916908373ffffffffffffffffffffffffffffffffffffffff16021790555080600b60006101000a81548173ffffffffffffffffffffffffffffffffffffffff021916908373ffffffffffffffffffffffffffffffffffffffff1602179055506000600260009054906101000a900473ffffffffffffffffffffffffffffffffffffffff1673ffffffffffffffffffffffffffffffffffffffff16600160009054906101000a900473ffffffffffffffffffffffffffffffffffffffff1673ffffffffffffffffffffffffffffffffffffffff1614156200047a576000600960009054906101000a900473ffffffffffffffffffffffffffffffffffffffff1673ffffffffffffffffffffffffffffffffffffffff166335ea6a75600160009054906101000a900473ffffffffffffffffffffffffffffffffffffffff166040518263ffffffff1660e01b8152600401620003e2919062000990565b6101e060405180830381865afa15801562000401573d6000803e3d6000fd5b505050506040513d601f19601f8201168201806040525081019062000427919062000d1a565b9050806101000151600360006101000a81548173ffffffffffffffffffffffffffffffffffffffff021916908373ffffffffffffffffffffffffffffffffffffffff16021790555060019150506200078e565b6000600960009054906101000a900473ffffffffffffffffffffffffffffffffffffffff1673ffffffffffffffffffffffffffffffffffffffff166335ea6a75600160009054906101000a900473ffffffffffffffffffffffffffffffffffffffff166040518263ffffffff1660e01b8152600401620004fb919062000990565b6101e060405180830381865afa1580156200051a573d6000803e3d6000fd5b505050506040513d601f19601f8201168201806040525081019062000540919062000d1a565b9050806101000151600360006101000a81548173ffffffffffffffffffffffffffffffffffffffff021916908373ffffffffffffffffffffffffffffffffffffffff1602179055506000600960009054906101000a900473ffffffffffffffffffffffffffffffffffffffff1673ffffffffffffffffffffffffffffffffffffffff166335ea6a75600260009054906101000a900473ffffffffffffffffffffffffffffffffffffffff166040518263ffffffff1660e01b815260040162000609919062000990565b6101e060405180830381865afa15801562000628573d6000803e3d6000fd5b505050506040513d601f19601f820116820180604052508101906200064e919062000d1a565b9050806101400151600460006101000a81548173ffffffffffffffffffffffffffffffffffffffff021916908373ffffffffffffffffffffffffffffffffffffffff160217905550600b60009054906101000a900473ffffffffffffffffffffffffffffffffffffffff1673ffffffffffffffffffffffffffffffffffffffff1663f7729d43600160009054906101000a900473ffffffffffffffffffffffffffffffffffffffff16600260009054906101000a900473ffffffffffffffffffffffffffffffffffffffff16610bb8600160006040518663ffffffff1660e01b81526004016200074395949392919062000e2f565b6020604051808303816000875af115801562000763573d6000803e3d6000fd5b505050506040513d601f19601f8201168201806040525081019062000789919062000e8c565b925050505b80608081815250505050505050505062000ebe565b600033905090565b60008060009054906101000a900473ffffffffffffffffffffffffffffffffffffffff169050816000806101000a81548173ffffffffffffffffffffffffffffffffffffffff021916908373ffffffffffffffffffffffffffffffffffffffff1602179055508173ffffffffffffffffffffffffffffffffffffffff168173ffffffffffffffffffffffffffffffffffffffff167f8be0079c531659141344cd1fd0a4f28419497f9722a3daafe3b4186f6b6457e060405160405180910390a35050565b6000604051905090565b600080fd5b600073ffffffffffffffffffffffffffffffffffffffff82169050919050565b6000620008ab826200087e565b9050919050565b620008bd816200089e565b8114620008c957600080fd5b50565b600081519050620008dd81620008b2565b92915050565b60008060008060008060c0878903121562000903576200090262000879565b5b60006200091389828a01620008cc565b96505060206200092689828a01620008cc565b95505060406200093989828a01620008cc565b94505060606200094c89828a01620008cc565b93505060806200095f89828a01620008cc565b92505060a06200097289828a01620008cc565b9150509295509295509295565b6200098a816200089e565b82525050565b6000602082019050620009a760008301846200097f565b92915050565b600080fd5b6000601f19601f8301169050919050565b7f4e487b7100000000000000000000000000000000000000000000000000000000600052604160045260246000fd5b620009fd82620009b2565b810181811067ffffffffffffffff8211171562000a1f5762000a1e620009c3565b5b80604052505050565b600062000a346200086f565b905062000a428282620009f2565b919050565b6000819050919050565b62000a5c8162000a47565b811462000a6857600080fd5b50565b60008151905062000a7c8162000a51565b92915050565b60006020828403121562000a9b5762000a9a620009ad565b5b62000aa7602062000a28565b9050600062000ab98482850162000a6b565b60008301525092915050565b60006fffffffffffffffffffffffffffffffff82169050919050565b62000aec8162000ac5565b811462000af857600080fd5b50565b60008151905062000b0c8162000ae1565b92915050565b600064ffffffffff82169050919050565b62000b2e8162000b12565b811462000b3a57600080fd5b50565b60008151905062000b4e8162000b23565b92915050565b600061ffff82169050919050565b62000b6d8162000b54565b811462000b7957600080fd5b50565b60008151905062000b8d8162000b62565b92915050565b60006101e0828403121562000bad5762000bac620009ad565b5b62000bba6101e062000a28565b9050600062000bcc8482850162000a82565b600083015250602062000be28482850162000afb565b602083015250604062000bf88482850162000afb565b604083015250606062000c0e8482850162000afb565b606083015250608062000c248482850162000afb565b60808301525060a062000c3a8482850162000afb565b60a08301525060c062000c508482850162000b3d565b60c08301525060e062000c668482850162000b7c565b60e08301525061010062000c7d84828501620008cc565b6101008301525061012062000c9584828501620008cc565b6101208301525061014062000cad84828501620008cc565b6101408301525061016062000cc584828501620008cc565b6101608301525061018062000cdd8482850162000afb565b610180830152506101a062000cf58482850162000afb565b6101a0830152506101c062000d0d8482850162000afb565b6101c08301525092915050565b60006101e0828403121562000d345762000d3362000879565b5b600062000d448482850162000b93565b91505092915050565b6000819050919050565b600062ffffff82169050919050565b6000819050919050565b600062000d9162000d8b62000d858462000d4d565b62000d66565b62000d57565b9050919050565b62000da38162000d70565b82525050565b6000819050919050565b600062000dd462000dce62000dc88462000da9565b62000d66565b62000a47565b9050919050565b62000de68162000db3565b82525050565b6000819050919050565b600062000e1762000e1162000e0b8462000dec565b62000d66565b6200087e565b9050919050565b62000e298162000df6565b82525050565b600060a08201905062000e4660008301886200097f565b62000e5560208301876200097f565b62000e64604083018662000d98565b62000e73606083018562000ddb565b62000e82608083018462000e1e565b9695505050505050565b60006020828403121562000ea55762000ea462000879565b5b600062000eb58482850162000a6b565b91505092915050565b6080516141f862000eef600039600081816112e20152818161130301528181611a440152611a6501526141f86000f3fe60806040526004361061021a5760003560e01c80637c74a8d311610123578063b5a3298d116100ab578063cafd617e1161006f578063cafd617e14610762578063dc77b9ee1461078d578063f10785b2146107b6578063f2fde38b146107f3578063faaf3e001461081c5761021a565b8063b5a3298d1461069c578063b6366d8d146106c7578063b8837f00146106f0578063bea1805b1461070c578063c3bb0224146107375761021a565b80638da5cb5b116100f25780638da5cb5b146105c757806390693253146105f2578063afed61901461061d578063b1035aa414610648578063b29c55bc146106715761021a565b80637c74a8d31461051f57806384c7dae61461054a5780638748be0a146105735780638a7f49221461059c5761021a565b80634e47c85f116101a65780636dad4b35116101755780636dad4b351461045e5780636eb7fd6c14610489578063715018a6146104b4578063742128a8146104cb5780637884e7c6146104f65761021a565b80634e47c85f146103b4578063501b0945146103df57806351cff8d91461040a5780636835427e146104335761021a565b806322841f01116101ed57806322841f01146102df5780633889f2d61461030a57806340a950a614610321578063477348921461034c57806349985503146103895761021a565b806317845c691461021f578063182c6f991461025e57806318b1e242146102895780631d4cdafa146102b4575b600080fd5b34801561022b57600080fd5b5061024660048036038101906102419190612ed3565b610845565b60405161025593929190612f0f565b60405180910390f35b34801561026a57600080fd5b5061027361098a565b6040516102809190612f46565b60405180910390f35b34801561029557600080fd5b5061029e610a32565b6040516102ab9190612f46565b60405180910390f35b3480156102c057600080fd5b506102c9610b6e565b6040516102d69190612fa2565b60405180910390f35b3480156102eb57600080fd5b506102f4610b98565b6040516103019190612f46565b60405180910390f35b34801561031657600080fd5b5061031f610b9e565b005b34801561032d57600080fd5b50610336610d76565b6040516103439190612f46565b60405180910390f35b34801561035857600080fd5b50610373600480360381019061036e9190612fe9565b610e1e565b6040516103809190612f46565b60405180910390f35b34801561039557600080fd5b5061039e610ee9565b6040516103ab9190612f46565b60405180910390f35b3480156103c057600080fd5b506103c9610eef565b6040516103d69190612fa2565b60405180910390f35b3480156103eb57600080fd5b506103f4610f19565b6040516104019190612f46565b60405180910390f35b34801561041657600080fd5b50610431600480360381019061042c9190612fe9565b610f1f565b005b34801561043f57600080fd5b50610448611020565b6040516104559190612f46565b60405180910390f35b34801561046a57600080fd5b506104736110c8565b6040516104809190612fa2565b60405180910390f35b34801561049557600080fd5b5061049e6110f2565b6040516104ab9190612f46565b60405180910390f35b3480156104c057600080fd5b506104c96110f8565b005b3480156104d757600080fd5b506104e061110c565b6040516104ed9190612fa2565b60405180910390f35b34801561050257600080fd5b5061051d60048036038101906105189190612fe9565b611136565b005b34801561052b57600080fd5b50610534611233565b6040516105419190612f46565b60405180910390f35b34801561055657600080fd5b50610571600480360381019061056c9190613016565b611239565b005b34801561057f57600080fd5b5061059a60048036038101906105959190612fe9565b6114fa565b005b3480156105a857600080fd5b506105b16115f7565b6040516105be9190612fa2565b60405180910390f35b3480156105d357600080fd5b506105dc611621565b6040516105e99190612fa2565b60405180910390f35b3480156105fe57600080fd5b5061060761164a565b6040516106149190612fa2565b60405180910390f35b34801561062957600080fd5b50610632611674565b60405161063f9190612f46565b60405180910390f35b34801561065457600080fd5b5061066f600480360381019061066a9190612fe9565b61167a565b005b34801561067d57600080fd5b50610686611777565b6040516106939190612fa2565b60405180910390f35b3480156106a857600080fd5b506106b16117a1565b6040516106be9190612f46565b60405180910390f35b3480156106d357600080fd5b506106ee60048036038101906106e99190612fe9565b6117c7565b005b61070a60048036038101906107059190613056565b6118c4565b005b34801561071857600080fd5b50610721611c5f565b60405161072e9190612fa2565b60405180910390f35b34801561074357600080fd5b5061074c611c89565b6040516107599190612f46565b60405180910390f35b34801561076e57600080fd5b50610777611c8f565b6040516107849190612f46565b60405180910390f35b34801561079957600080fd5b506107b460048036038101906107af9190612fe9565b611c95565b005b3480156107c257600080fd5b506107dd60048036038101906107d8919061311c565b611e5b565b6040516107ea9190612f46565b60405180910390f35b3480156107ff57600080fd5b5061081a60048036038101906108159190612fe9565b6121a5565b005b34801561082857600080fd5b50610843600480360381019061083e9190612fe9565b612229565b005b600080600080600080600080600960009054906101000a900473ffffffffffffffffffffffffffffffffffffffff1673ffffffffffffffffffffffffffffffffffffffff1663bf92857c306040518263ffffffff1660e01b81526004016108ac9190612fa2565b60c060405180830381865afa1580156108c9573d6000803e3d6000fd5b505050506040513d601f19601f820116820180604052508101906108ed91906131ac565b95505094509450945094508060118190555083828661090c9190613268565b61091691906132f1565b6010819055506000601681905550846012819055508360138190555082601481905550816015819055508060105414156109735788846109569190613322565b82866109629190613268565b61096c91906132f1565b6016819055505b808360165497509750975050505050509193909250565b600080600160009054906101000a900473ffffffffffffffffffffffffffffffffffffffff1690508073ffffffffffffffffffffffffffffffffffffffff166370a08231306040518263ffffffff1660e01b81526004016109eb9190612fa2565b602060405180830381865afa158015610a08573d6000803e3d6000fd5b505050506040513d601f19601f82011682018060405250810190610a2c9190613378565b91505090565b600080600080600260009054906101000a900473ffffffffffffffffffffffffffffffffffffffff1673ffffffffffffffffffffffffffffffffffffffff16600160009054906101000a900473ffffffffffffffffffffffffffffffffffffffff1673ffffffffffffffffffffffffffffffffffffffff161415610ad757610ab8610d76565b9150610ac2611020565b90508082610ad091906133a5565b9250610b65565b610adf610d76565b9150610ae9611020565b9050600080821415610afe5760009050610b55565b610b52600360009054906101000a900473ffffffffffffffffffffffffffffffffffffffff16600460009054906101000a900473ffffffffffffffffffffffffffffffffffffffff1684610bb860006123ef565b90505b8083610b6191906133a5565b9350505b82935050505090565b6000600460009054906101000a900473ffffffffffffffffffffffffffffffffffffffff16905090565b60115481565b6000600267ffffffffffffffff811115610bbb57610bba6133d9565b5b604051908082528060200260200182016040528015610be95781602001602082028036833780820191505090505b509050600360009054906101000a900473ffffffffffffffffffffffffffffffffffffffff1681600081518110610c2357610c22613408565b5b602002602001019073ffffffffffffffffffffffffffffffffffffffff16908173ffffffffffffffffffffffffffffffffffffffff1681525050600460009054906101000a900473ffffffffffffffffffffffffffffffffffffffff1681600181518110610c9457610c93613408565b5b602002602001019073ffffffffffffffffffffffffffffffffffffffff16908173ffffffffffffffffffffffffffffffffffffffff1681525050600c60009054906101000a900473ffffffffffffffffffffffffffffffffffffffff1673ffffffffffffffffffffffffffffffffffffffff1663bf90f63a826040518263ffffffff1660e01b8152600401610d2991906134f5565b6000604051808303816000875af1158015610d48573d6000803e3d6000fd5b505050506040513d6000823e3d601f19601f82011682018060405250810190610d719190613719565b505050565b600080600360009054906101000a900473ffffffffffffffffffffffffffffffffffffffff1690508073ffffffffffffffffffffffffffffffffffffffff166370a08231306040518263ffffffff1660e01b8152600401610dd79190612fa2565b602060405180830381865afa158015610df4573d6000803e3d6000fd5b505050506040513d601f19601f82011682018060405250810190610e189190613378565b91505090565b6000806000600e60008573ffffffffffffffffffffffffffffffffffffffff1673ffffffffffffffffffffffffffffffffffffffff168152602001908152602001600020541415610e725760009050610ee0565b6000600d54600e60008673ffffffffffffffffffffffffffffffffffffffff1673ffffffffffffffffffffffffffffffffffffffff16815260200190815260200160002054610ec191906132f1565b90506000610ecd6117a1565b90508181610edb9190613268565b925050505b80915050919050565b600f5481565b6000600560009054906101000a900473ffffffffffffffffffffffffffffffffffffffff16905090565b60105481565b60008190508073ffffffffffffffffffffffffffffffffffffffff1663a9059cbb338373ffffffffffffffffffffffffffffffffffffffff166370a08231306040518263ffffffff1660e01b8152600401610f7a9190612fa2565b602060405180830381865afa158015610f97573d6000803e3d6000fd5b505050506040513d601f19601f82011682018060405250810190610fbb9190613378565b6040518363ffffffff1660e01b8152600401610fd8929190613791565b6020604051808303816000875af1158015610ff7573d6000803e3d6000fd5b505050506040513d601f19601f8201168201806040525081019061101b91906137cf565b505050565b600080600460009054906101000a900473ffffffffffffffffffffffffffffffffffffffff1690508073ffffffffffffffffffffffffffffffffffffffff166370a08231306040518263ffffffff1660e01b81526004016110819190612fa2565b602060405180830381865afa15801561109e573d6000803e3d6000fd5b505050506040513d601f19601f820116820180604052508101906110c29190613378565b91505090565b6000600260009054906101000a900473ffffffffffffffffffffffffffffffffffffffff16905090565b60135481565b6111006125df565b61110a600061265d565b565b6000600160009054906101000a900473ffffffffffffffffffffffffffffffffffffffff16905090565b61113e6125df565b600073ffffffffffffffffffffffffffffffffffffffff168173ffffffffffffffffffffffffffffffffffffffff1614156111ae576040517f08c379a00000000000000000000000000000000000000000000000000000000081526004016111a590613859565b60405180910390fd5b80600760006101000a81548173ffffffffffffffffffffffffffffffffffffffff021916908373ffffffffffffffffffffffffffffffffffffffff16021790555080600a60006101000a81548173ffffffffffffffffffffffffffffffffffffffff021916908373ffffffffffffffffffffffffffffffffffffffff16021790555050565b60165481565b8061124383610e1e565b1015611284576040517f08c379a000000000000000000000000000000000000000000000000000000000815260040161127b906138eb565b60405180910390fd5b60006112db600160009054906101000a900473ffffffffffffffffffffffffffffffffffffffff16600260009054906101000a900473ffffffffffffffffffffffffffffffffffffffff166001610bb860016123ef565b90506000817f00000000000000000000000000000000000000000000000000000000000000007f000000000000000000000000000000000000000000000000000000000000000061132c9190613268565b61133691906132f1565b905082816113449190613268565b600e60008673ffffffffffffffffffffffffffffffffffffffff1673ffffffffffffffffffffffffffffffffffffffff168152602001908152602001600020600082825461139291906133a5565b9250508190555082816113a59190613268565b600d60008282546113b691906133a5565b92505081905550600260009054906101000a900473ffffffffffffffffffffffffffffffffffffffff1673ffffffffffffffffffffffffffffffffffffffff16600160009054906101000a900473ffffffffffffffffffffffffffffffffffffffff1673ffffffffffffffffffffffffffffffffffffffff1614156114435761143e83612721565b61144d565b61144c8361277e565b5b6000600160009054906101000a900473ffffffffffffffffffffffffffffffffffffffff1690508073ffffffffffffffffffffffffffffffffffffffff1663a9059cbb33866040518363ffffffff1660e01b81526004016114af929190613791565b6020604051808303816000875af11580156114ce573d6000803e3d6000fd5b505050506040513d601f19601f820116820180604052508101906114f291906137cf565b505050505050565b6115026125df565b600073ffffffffffffffffffffffffffffffffffffffff168173ffffffffffffffffffffffffffffffffffffffff161415611572576040517f08c379a000000000000000000000000000000000000000000000000000000000815260040161156990613859565b60405180910390fd5b80600660006101000a81548173ffffffffffffffffffffffffffffffffffffffff021916908373ffffffffffffffffffffffffffffffffffffffff16021790555080600c60006101000a81548173ffffffffffffffffffffffffffffffffffffffff021916908373ffffffffffffffffffffffffffffffffffffffff16021790555050565b6000600860009054906101000a900473ffffffffffffffffffffffffffffffffffffffff16905090565b60008060009054906101000a900473ffffffffffffffffffffffffffffffffffffffff16905090565b6000600760009054906101000a900473ffffffffffffffffffffffffffffffffffffffff16905090565b60145481565b6116826125df565b600073ffffffffffffffffffffffffffffffffffffffff168173ffffffffffffffffffffffffffffffffffffffff1614156116f2576040517f08c379a00000000000000000000000000000000000000000000000000000000081526004016116e990613859565b60405180910390fd5b80600560006101000a81548173ffffffffffffffffffffffffffffffffffffffff021916908373ffffffffffffffffffffffffffffffffffffffff16021790555080600960006101000a81548173ffffffffffffffffffffffffffffffffffffffff021916908373ffffffffffffffffffffffffffffffffffffffff16021790555050565b6000600360009054906101000a900473ffffffffffffffffffffffffffffffffffffffff16905090565b6000806117ac61098a565b6117b4610a32565b6117be9190613322565b90508091505090565b6117cf6125df565b600073ffffffffffffffffffffffffffffffffffffffff168173ffffffffffffffffffffffffffffffffffffffff16141561183f576040517f08c379a000000000000000000000000000000000000000000000000000000000815260040161183690613859565b60405180910390fd5b80600860006101000a81548173ffffffffffffffffffffffffffffffffffffffff021916908373ffffffffffffffffffffffffffffffffffffffff16021790555080600b60006101000a81548173ffffffffffffffffffffffffffffffffffffffff021916908373ffffffffffffffffffffffffffffffffffffffff16021790555050565b600160009054906101000a900473ffffffffffffffffffffffffffffffffffffffff1673ffffffffffffffffffffffffffffffffffffffff168373ffffffffffffffffffffffffffffffffffffffff1614611954576040517f08c379a000000000000000000000000000000000000000000000000000000000815260040161194b9061397d565b60405180910390fd5b600073ffffffffffffffffffffffffffffffffffffffff16600160009054906101000a900473ffffffffffffffffffffffffffffffffffffffff1673ffffffffffffffffffffffffffffffffffffffff1614156119e6576040517f08c379a00000000000000000000000000000000000000000000000000000000081526004016119dd90613a0f565b60405180910390fd5b6000611a3d600160009054906101000a900473ffffffffffffffffffffffffffffffffffffffff16600260009054906101000a900473ffffffffffffffffffffffffffffffffffffffff166001610bb860016123ef565b90506000817f00000000000000000000000000000000000000000000000000000000000000007f0000000000000000000000000000000000000000000000000000000000000000611a8e9190613268565b611a9891906132f1565b90508281611aa69190613268565b600e60008673ffffffffffffffffffffffffffffffffffffffff1673ffffffffffffffffffffffffffffffffffffffff1681526020019081526020016000206000828254611af49190613322565b925050819055508281611b079190613268565b600d6000828254611b189190613322565b925050819055506000600160009054906101000a900473ffffffffffffffffffffffffffffffffffffffff1690508073ffffffffffffffffffffffffffffffffffffffff166323b872dd3330876040518463ffffffff1660e01b8152600401611b8393929190613a2f565b6020604051808303816000875af1158015611ba2573d6000803e3d6000fd5b505050506040513d601f19601f82011682018060405250810190611bc691906137cf565b50600260009054906101000a900473ffffffffffffffffffffffffffffffffffffffff1673ffffffffffffffffffffffffffffffffffffffff16600160009054906101000a900473ffffffffffffffffffffffffffffffffffffffff1673ffffffffffffffffffffffffffffffffffffffff161415611c4d57611c4884612860565b611c57565b611c5684612907565b5b505050505050565b6000600660009054906101000a900473ffffffffffffffffffffffffffffffffffffffff16905090565b60125481565b60155481565b611c9d6125df565b600073ffffffffffffffffffffffffffffffffffffffff168173ffffffffffffffffffffffffffffffffffffffff161415611d0d576040517f08c379a0000000000000000000000000000000000000000000000000000000008152600401611d0490613859565b60405180910390fd5b80600160006101000a81548173ffffffffffffffffffffffffffffffffffffffff021916908373ffffffffffffffffffffffffffffffffffffffff1602179055506000600960009054906101000a900473ffffffffffffffffffffffffffffffffffffffff1673ffffffffffffffffffffffffffffffffffffffff166335ea6a75600160009054906101000a900473ffffffffffffffffffffffffffffffffffffffff166040518263ffffffff1660e01b8152600401611dcd9190612fa2565b6101e060405180830381865afa158015611deb573d6000803e3d6000fd5b505050506040513d601f19601f82011682018060405250810190611e0f9190613cca565b9050806101000151600360006101000a81548173ffffffffffffffffffffffffffffffffffffffff021916908373ffffffffffffffffffffffffffffffffffffffff1602179055505050565b60008060008790508073ffffffffffffffffffffffffffffffffffffffff1663095ea7b3600760009054906101000a900473ffffffffffffffffffffffffffffffffffffffff16886040518363ffffffff1660e01b8152600401611ec0929190613791565b6020604051808303816000875af1158015611edf573d6000803e3d6000fd5b505050506040513d601f19601f82011682018060405250810190611f0391906137cf565b50831561204d5760006040518061010001604052808a73ffffffffffffffffffffffffffffffffffffffff1681526020018973ffffffffffffffffffffffffffffffffffffffff1681526020018762ffffff1681526020013073ffffffffffffffffffffffffffffffffffffffff16815260200142815260200188815260200160008152602001600073ffffffffffffffffffffffffffffffffffffffff168152509050600a60009054906101000a900473ffffffffffffffffffffffffffffffffffffffff1673ffffffffffffffffffffffffffffffffffffffff1663414bf389826040518263ffffffff1660e01b81526004016120029190613dc7565b6020604051808303816000875af1158015612021573d6000803e3d6000fd5b505050506040513d601f19601f820116820180604052508101906120459190613378565b925050612197565b60006040518061010001604052808a73ffffffffffffffffffffffffffffffffffffffff1681526020018973ffffffffffffffffffffffffffffffffffffffff1681526020018762ffffff1681526020013073ffffffffffffffffffffffffffffffffffffffff1681526020014281526020018881526020016002896120d39190613268565b8152602001600073ffffffffffffffffffffffffffffffffffffffff168152509050600a60009054906101000a900473ffffffffffffffffffffffffffffffffffffffff1673ffffffffffffffffffffffffffffffffffffffff1663db3e2198826040518263ffffffff1660e01b81526004016121509190613e85565b6020604051808303816000875af115801561216f573d6000803e3d6000fd5b505050506040513d601f19601f820116820180604052508101906121939190613378565b9250505b819250505095945050505050565b6121ad6125df565b600073ffffffffffffffffffffffffffffffffffffffff168173ffffffffffffffffffffffffffffffffffffffff16141561221d576040517f08c379a000000000000000000000000000000000000000000000000000000000815260040161221490613f13565b60405180910390fd5b6122268161265d565b50565b6122316125df565b600073ffffffffffffffffffffffffffffffffffffffff168173ffffffffffffffffffffffffffffffffffffffff1614156122a1576040517f08c379a000000000000000000000000000000000000000000000000000000000815260040161229890613859565b60405180910390fd5b80600260006101000a81548173ffffffffffffffffffffffffffffffffffffffff021916908373ffffffffffffffffffffffffffffffffffffffff1602179055506000600960009054906101000a900473ffffffffffffffffffffffffffffffffffffffff1673ffffffffffffffffffffffffffffffffffffffff166335ea6a75600260009054906101000a900473ffffffffffffffffffffffffffffffffffffffff166040518263ffffffff1660e01b81526004016123619190612fa2565b6101e060405180830381865afa15801561237f573d6000803e3d6000fd5b505050506040513d601f19601f820116820180604052508101906123a39190613cca565b9050806101400151600460006101000a81548173ffffffffffffffffffffffffffffffffffffffff021916908373ffffffffffffffffffffffffffffffffffffffff1602179055505050565b600080600260009054906101000a900473ffffffffffffffffffffffffffffffffffffffff1673ffffffffffffffffffffffffffffffffffffffff16600160009054906101000a900473ffffffffffffffffffffffffffffffffffffffff1673ffffffffffffffffffffffffffffffffffffffff16141561247357600190506125d2565b821561252757600b60009054906101000a900473ffffffffffffffffffffffffffffffffffffffff1673ffffffffffffffffffffffffffffffffffffffff1663f7729d438888878960006040518663ffffffff1660e01b81526004016124dd959493929190613f87565b6020604051808303816000875af11580156124fc573d6000803e3d6000fd5b505050506040513d601f19601f820116820180604052508101906125209190613378565b90506125d1565b600b60009054906101000a900473ffffffffffffffffffffffffffffffffffffffff1673ffffffffffffffffffffffffffffffffffffffff166330d07f218888878960006040518663ffffffff1660e01b815260040161258b959493929190613f87565b6020604051808303816000875af11580156125aa573d6000803e3d6000fd5b505050506040513d601f19601f820116820180604052508101906125ce9190613378565b90505b5b8091505095945050505050565b6125e7612a07565b73ffffffffffffffffffffffffffffffffffffffff16612605611621565b73ffffffffffffffffffffffffffffffffffffffff161461265b576040517f08c379a000000000000000000000000000000000000000000000000000000000815260040161265290614026565b60405180910390fd5b565b60008060009054906101000a900473ffffffffffffffffffffffffffffffffffffffff169050816000806101000a81548173ffffffffffffffffffffffffffffffffffffffff021916908373ffffffffffffffffffffffffffffffffffffffff1602179055508173ffffffffffffffffffffffffffffffffffffffff168173ffffffffffffffffffffffffffffffffffffffff167f8be0079c531659141344cd1fd0a4f28419497f9722a3daafe3b4186f6b6457e060405160405180910390a35050565b61274f600160009054906101000a900473ffffffffffffffffffffffffffffffffffffffff16826002612a0f565b61277b600160009054906101000a900473ffffffffffffffffffffffffffffffffffffffff1682612ab7565b50565b6127aa600160009054906101000a900473ffffffffffffffffffffffffffffffffffffffff1682612ab7565b6000612800600160009054906101000a900473ffffffffffffffffffffffffffffffffffffffff16600260009054906101000a900473ffffffffffffffffffffffffffffffffffffffff1684610bb86001611e5b565b9050612830600260009054906101000a900473ffffffffffffffffffffffffffffffffffffffff16826002612b5e565b61285c600160009054906101000a900473ffffffffffffffffffffffffffffffffffffffff1682612ab7565b5050565b61288c600160009054906101000a900473ffffffffffffffffffffffffffffffffffffffff1682612caf565b6000600460038361289d9190613268565b6128a791906132f1565b90506128d7600160009054906101000a900473ffffffffffffffffffffffffffffffffffffffff16826002612dee565b612903600160009054906101000a900473ffffffffffffffffffffffffffffffffffffffff1682612caf565b5050565b612933600160009054906101000a900473ffffffffffffffffffffffffffffffffffffffff1682612caf565b600060046003836129449190613268565b61294e91906132f1565b905061297e600260009054906101000a900473ffffffffffffffffffffffffffffffffffffffff16826002612dee565b60006129d4600260009054906101000a900473ffffffffffffffffffffffffffffffffffffffff16600160009054906101000a900473ffffffffffffffffffffffffffffffffffffffff1684610bb86001611e5b565b9050612a02600160009054906101000a900473ffffffffffffffffffffffffffffffffffffffff1682612caf565b505050565b600033905090565b600960009054906101000a900473ffffffffffffffffffffffffffffffffffffffff1673ffffffffffffffffffffffffffffffffffffffff16632dad97d48484846040518463ffffffff1660e01b8152600401612a6e93929190614046565b6020604051808303816000875af1158015612a8d573d6000803e3d6000fd5b505050506040513d601f19601f82011682018060405250810190612ab19190613378565b50505050565b600960009054906101000a900473ffffffffffffffffffffffffffffffffffffffff1673ffffffffffffffffffffffffffffffffffffffff166369328dec8383306040518463ffffffff1660e01b8152600401612b169392919061407d565b6020604051808303816000875af1158015612b35573d6000803e3d6000fd5b505050506040513d601f19601f82011682018060405250810190612b599190613378565b505050565b60008390508073ffffffffffffffffffffffffffffffffffffffff1663095ea7b3600560009054906101000a900473ffffffffffffffffffffffffffffffffffffffff16856040518363ffffffff1660e01b8152600401612bc0929190613791565b6020604051808303816000875af1158015612bdf573d6000803e3d6000fd5b505050506040513d601f19601f82011682018060405250810190612c0391906137cf565b50600960009054906101000a900473ffffffffffffffffffffffffffffffffffffffff1673ffffffffffffffffffffffffffffffffffffffff1663573ade81858585306040518563ffffffff1660e01b8152600401612c6594939291906140b4565b6020604051808303816000875af1158015612c84573d6000803e3d6000fd5b505050506040513d601f19601f82011682018060405250810190612ca89190613378565b5050505050565b60008290508073ffffffffffffffffffffffffffffffffffffffff1663095ea7b3600560009054906101000a900473ffffffffffffffffffffffffffffffffffffffff16846040518363ffffffff1660e01b8152600401612d11929190613791565b6020604051808303816000875af1158015612d30573d6000803e3d6000fd5b505050506040513d601f19601f82011682018060405250810190612d5491906137cf565b50600960009054906101000a900473ffffffffffffffffffffffffffffffffffffffff1673ffffffffffffffffffffffffffffffffffffffff1663617ba03784843060006040518563ffffffff1660e01b8152600401612db7949392919061412a565b600060405180830381600087803b158015612dd157600080fd5b505af1158015612de5573d6000803e3d6000fd5b50505050505050565b600960009054906101000a900473ffffffffffffffffffffffffffffffffffffffff1673ffffffffffffffffffffffffffffffffffffffff1663a415bcad8484846000306040518663ffffffff1660e01b8152600401612e5295949392919061416f565b600060405180830381600087803b158015612e6c57600080fd5b505af1158015612e80573d6000803e3d6000fd5b50505050505050565b6000604051905090565b600080fd5b600080fd5b6000819050919050565b612eb081612e9d565b8114612ebb57600080fd5b50565b600081359050612ecd81612ea7565b92915050565b600060208284031215612ee957612ee8612e93565b5b6000612ef784828501612ebe565b91505092915050565b612f0981612e9d565b82525050565b6000606082019050612f246000830186612f00565b612f316020830185612f00565b612f3e6040830184612f00565b949350505050565b6000602082019050612f5b6000830184612f00565b92915050565b600073ffffffffffffffffffffffffffffffffffffffff82169050919050565b6000612f8c82612f61565b9050919050565b612f9c81612f81565b82525050565b6000602082019050612fb76000830184612f93565b92915050565b612fc681612f81565b8114612fd157600080fd5b50565b600081359050612fe381612fbd565b92915050565b600060208284031215612fff57612ffe612e93565b5b600061300d84828501612fd4565b91505092915050565b6000806040838503121561302d5761302c612e93565b5b600061303b85828601612fd4565b925050602061304c85828601612ebe565b9150509250929050565b60008060006060848603121561306f5761306e612e93565b5b600061307d86828701612fd4565b935050602061308e86828701612fd4565b925050604061309f86828701612ebe565b9150509250925092565b600062ffffff82169050919050565b6130c1816130a9565b81146130cc57600080fd5b50565b6000813590506130de816130b8565b92915050565b60008115159050919050565b6130f9816130e4565b811461310457600080fd5b50565b600081359050613116816130f0565b92915050565b600080600080600060a0868803121561313857613137612e93565b5b600061314688828901612fd4565b955050602061315788828901612fd4565b945050604061316888828901612ebe565b9350506060613179888289016130cf565b925050608061318a88828901613107565b9150509295509295909350565b6000815190506131a681612ea7565b92915050565b60008060008060008060c087890312156131c9576131c8612e93565b5b60006131d789828a01613197565b96505060206131e889828a01613197565b95505060406131f989828a01613197565b945050606061320a89828a01613197565b935050608061321b89828a01613197565b92505060a061322c89828a01613197565b9150509295509295509295565b7f4e487b7100000000000000000000000000000000000000000000000000000000600052601160045260246000fd5b600061327382612e9d565b915061327e83612e9d565b9250817fffffffffffffffffffffffffffffffffffffffffffffffffffffffffffffffff04831182151516156132b7576132b6613239565b5b828202905092915050565b7f4e487b7100000000000000000000000000000000000000000000000000000000600052601260045260246000fd5b60006132fc82612e9d565b915061330783612e9d565b925082613317576133166132c2565b5b828204905092915050565b600061332d82612e9d565b915061333883612e9d565b9250827fffffffffffffffffffffffffffffffffffffffffffffffffffffffffffffffff0382111561336d5761336c613239565b5b828201905092915050565b60006020828403121561338e5761338d612e93565b5b600061339c84828501613197565b91505092915050565b60006133b082612e9d565b91506133bb83612e9d565b9250828210156133ce576133cd613239565b5b828203905092915050565b7f4e487b7100000000000000000000000000000000000000000000000000000000600052604160045260246000fd5b7f4e487b7100000000000000000000000000000000000000000000000000000000600052603260045260246000fd5b600081519050919050565b600082825260208201905092915050565b6000819050602082019050919050565b61346c81612f81565b82525050565b600061347e8383613463565b60208301905092915050565b6000602082019050919050565b60006134a282613437565b6134ac8185613442565b93506134b783613453565b8060005b838110156134e85781516134cf8882613472565b97506134da8361348a565b9250506001810190506134bb565b5085935050505092915050565b6000602082019050818103600083015261350f8184613497565b905092915050565b600080fd5b6000601f19601f8301169050919050565b6135368261351c565b810181811067ffffffffffffffff82111715613555576135546133d9565b5b80604052505050565b6000613568612e89565b9050613574828261352d565b919050565b600067ffffffffffffffff821115613594576135936133d9565b5b602082029050602081019050919050565b600080fd5b6000815190506135b981612fbd565b92915050565b60006135d26135cd84613579565b61355e565b905080838252602082019050602084028301858111156135f5576135f46135a5565b5b835b8181101561361e578061360a88826135aa565b8452602084019350506020810190506135f7565b5050509392505050565b600082601f83011261363d5761363c613517565b5b815161364d8482602086016135bf565b91505092915050565b600067ffffffffffffffff821115613671576136706133d9565b5b602082029050602081019050919050565b600061369561369084613656565b61355e565b905080838252602082019050602084028301858111156136b8576136b76135a5565b5b835b818110156136e157806136cd8882613197565b8452602084019350506020810190506136ba565b5050509392505050565b600082601f830112613700576136ff613517565b5b8151613710848260208601613682565b91505092915050565b600080604083850312156137305761372f612e93565b5b600083015167ffffffffffffffff81111561374e5761374d612e98565b5b61375a85828601613628565b925050602083015167ffffffffffffffff81111561377b5761377a612e98565b5b613787858286016136eb565b9150509250929050565b60006040820190506137a66000830185612f93565b6137b36020830184612f00565b9392505050565b6000815190506137c9816130f0565b92915050565b6000602082840312156137e5576137e4612e93565b5b60006137f3848285016137ba565b91505092915050565b600082825260208201905092915050565b7f546869732061646472657373206973206e6f7420617661696c61626c65000000600082015250565b6000613843601d836137fc565b915061384e8261380d565b602082019050919050565b6000602082019050818103600083015261387281613836565b9050919050565b7f596f752063616e2774207769746864726177206d6f7265207468616e20796f7560008201527f722077616c6c65742066756e64732e0000000000000000000000000000000000602082015250565b60006138d5602f836137fc565b91506138e082613879565b604082019050919050565b60006020820190508181036000830152613904816138c8565b9050919050565b7f5468697320746f6b656e206973206e6f7420617661696c61626c6520696e207460008201527f6869732073747261746567792e00000000000000000000000000000000000000602082015250565b6000613967602d836137fc565b91506139728261390b565b604082019050919050565b600060208201905081810360008301526139968161395a565b9050919050565b7f546869732061646472657373206973206e6f742076616c696420666f7220455260008201527f43323020746f6b656e2e00000000000000000000000000000000000000000000602082015250565b60006139f9602a836137fc565b9150613a048261399d565b604082019050919050565b60006020820190508181036000830152613a28816139ec565b9050919050565b6000606082019050613a446000830186612f93565b613a516020830185612f93565b613a5e6040830184612f00565b949350505050565b600080fd5b600060208284031215613a8157613a80613a66565b5b613a8b602061355e565b90506000613a9b84828501613197565b60008301525092915050565b60006fffffffffffffffffffffffffffffffff82169050919050565b613acc81613aa7565b8114613ad757600080fd5b50565b600081519050613ae981613ac3565b92915050565b600064ffffffffff82169050919050565b613b0981613aef565b8114613b1457600080fd5b50565b600081519050613b2681613b00565b92915050565b600061ffff82169050919050565b613b4381613b2c565b8114613b4e57600080fd5b50565b600081519050613b6081613b3a565b92915050565b60006101e08284031215613b7d57613b7c613a66565b5b613b886101e061355e565b90506000613b9884828501613a6b565b6000830152506020613bac84828501613ada565b6020830152506040613bc084828501613ada565b6040830152506060613bd484828501613ada565b6060830152506080613be884828501613ada565b60808301525060a0613bfc84828501613ada565b60a08301525060c0613c1084828501613b17565b60c08301525060e0613c2484828501613b51565b60e083015250610100613c39848285016135aa565b61010083015250610120613c4f848285016135aa565b61012083015250610140613c65848285016135aa565b61014083015250610160613c7b848285016135aa565b61016083015250610180613c9184828501613ada565b610180830152506101a0613ca784828501613ada565b6101a0830152506101c0613cbd84828501613ada565b6101c08301525092915050565b60006101e08284031215613ce157613ce0612e93565b5b6000613cef84828501613b66565b91505092915050565b613d01816130a9565b82525050565b613d1081612e9d565b82525050565b613d1f81612f61565b82525050565b61010082016000820151613d3c6000850182613463565b506020820151613d4f6020850182613463565b506040820151613d626040850182613cf8565b506060820151613d756060850182613463565b506080820151613d886080850182613d07565b5060a0820151613d9b60a0850182613d07565b5060c0820151613dae60c0850182613d07565b5060e0820151613dc160e0850182613d16565b50505050565b600061010082019050613ddd6000830184613d25565b92915050565b61010082016000820151613dfa6000850182613463565b506020820151613e0d6020850182613463565b506040820151613e206040850182613cf8565b506060820151613e336060850182613463565b506080820151613e466080850182613d07565b5060a0820151613e5960a0850182613d07565b5060c0820151613e6c60c0850182613d07565b5060e0820151613e7f60e0850182613d16565b50505050565b600061010082019050613e9b6000830184613de3565b92915050565b7f4f776e61626c653a206e6577206f776e657220697320746865207a65726f206160008201527f6464726573730000000000000000000000000000000000000000000000000000602082015250565b6000613efd6026836137fc565b9150613f0882613ea1565b604082019050919050565b60006020820190508181036000830152613f2c81613ef0565b9050919050565b613f3c816130a9565b82525050565b6000819050919050565b6000819050919050565b6000613f71613f6c613f6784613f42565b613f4c565b612f61565b9050919050565b613f8181613f56565b82525050565b600060a082019050613f9c6000830188612f93565b613fa96020830187612f93565b613fb66040830186613f33565b613fc36060830185612f00565b613fd06080830184613f78565b9695505050505050565b7f4f776e61626c653a2063616c6c6572206973206e6f7420746865206f776e6572600082015250565b60006140106020836137fc565b915061401b82613fda565b602082019050919050565b6000602082019050818103600083015261403f81614003565b9050919050565b600060608201905061405b6000830186612f93565b6140686020830185612f00565b6140756040830184612f00565b949350505050565b60006060820190506140926000830186612f93565b61409f6020830185612f00565b6140ac6040830184612f93565b949350505050565b60006080820190506140c96000830187612f93565b6140d66020830186612f00565b6140e36040830185612f00565b6140f06060830184612f93565b95945050505050565b600061411461410f61410a84613f42565b613f4c565b613b2c565b9050919050565b614124816140f9565b82525050565b600060808201905061413f6000830187612f93565b61414c6020830186612f00565b6141596040830185612f93565b614166606083018461411b565b95945050505050565b600060a0820190506141846000830188612f93565b6141916020830187612f00565b61419e6040830186612f00565b6141ab606083018561411b565b6141b86080830184612f93565b969550505050505056fea26469706673582212207b271db7c6855d6f92901331b88ff33572abc92ab3e0d3b6cb79c8729434159564736f6c634300080a0033",
  "devdoc": {
    "kind": "dev",
    "methods": {
      "owner()": {
        "details": "Returns the address of the current owner."
      },
      "renounceOwnership()": {
        "details": "Leaves the contract without owner. It will not be possible to call `onlyOwner` functions anymore. Can only be called by the current owner. NOTE: Renouncing ownership will leave the contract without an owner, thereby removing any functionality that is only available to the owner."
      },
      "transferOwnership(address)": {
        "details": "Transfers ownership of the contract to a new account (`newOwner`). Can only be called by the current owner."
      }
    },
    "version": 1
  },
  "userdoc": {
    "kind": "user",
    "methods": {
      "enterStrategy(address,address,uint256)": {
        "notice": "Public functions ///"
      },
      "setAaveAddress(address)": {
        "notice": "Set & Get functions ///"
      }
    },
    "version": 1
  },
  "storageLayout": {
    "storage": [
      {
        "astId": 1750,
        "contract": "contracts/strategies/AaveBasicStrategy.sol:AaveBasicStrategy",
        "label": "_owner",
        "offset": 0,
        "slot": "0",
        "type": "t_address"
      },
      {
        "astId": 2749,
        "contract": "contracts/strategies/AaveBasicStrategy.sol:AaveBasicStrategy",
        "label": "tokenAddress",
        "offset": 0,
        "slot": "1",
        "type": "t_address"
      },
      {
        "astId": 2751,
        "contract": "contracts/strategies/AaveBasicStrategy.sol:AaveBasicStrategy",
        "label": "tokenToBorrow",
        "offset": 0,
        "slot": "2",
        "type": "t_address"
      },
      {
        "astId": 2753,
        "contract": "contracts/strategies/AaveBasicStrategy.sol:AaveBasicStrategy",
        "label": "aTokenAddress",
        "offset": 0,
        "slot": "3",
        "type": "t_address"
      },
      {
        "astId": 2755,
        "contract": "contracts/strategies/AaveBasicStrategy.sol:AaveBasicStrategy",
        "label": "vTokenAddress",
        "offset": 0,
        "slot": "4",
        "type": "t_address"
      },
      {
        "astId": 2757,
        "contract": "contracts/strategies/AaveBasicStrategy.sol:AaveBasicStrategy",
        "label": "aaveAddress",
        "offset": 0,
        "slot": "5",
        "type": "t_address"
      },
      {
        "astId": 2759,
        "contract": "contracts/strategies/AaveBasicStrategy.sol:AaveBasicStrategy",
        "label": "aaveRewardsAddress",
        "offset": 0,
        "slot": "6",
        "type": "t_address"
      },
      {
        "astId": 2761,
        "contract": "contracts/strategies/AaveBasicStrategy.sol:AaveBasicStrategy",
        "label": "uniswapAddress",
        "offset": 0,
        "slot": "7",
        "type": "t_address"
      },
      {
        "astId": 2763,
        "contract": "contracts/strategies/AaveBasicStrategy.sol:AaveBasicStrategy",
        "label": "uniswapQuoterAddress",
        "offset": 0,
        "slot": "8",
        "type": "t_address"
      },
      {
        "astId": 2766,
        "contract": "contracts/strategies/AaveBasicStrategy.sol:AaveBasicStrategy",
        "label": "aave",
        "offset": 0,
        "slot": "9",
        "type": "t_contract(IPool)636"
      },
      {
        "astId": 2769,
        "contract": "contracts/strategies/AaveBasicStrategy.sol:AaveBasicStrategy",
        "label": "uniswap",
        "offset": 0,
        "slot": "10",
        "type": "t_contract(ISwapRouter)2737"
      },
      {
        "astId": 2772,
        "contract": "contracts/strategies/AaveBasicStrategy.sol:AaveBasicStrategy",
        "label": "uniswapQuoter",
        "offset": 0,
        "slot": "11",
        "type": "t_contract(IQuoter)2637"
      },
      {
        "astId": 2775,
        "contract": "contracts/strategies/AaveBasicStrategy.sol:AaveBasicStrategy",
        "label": "aaveRewards",
        "offset": 0,
        "slot": "12",
        "type": "t_contract(IRewardsController)1454"
      },
      {
        "astId": 2779,
        "contract": "contracts/strategies/AaveBasicStrategy.sol:AaveBasicStrategy",
        "label": "totalBalance",
        "offset": 0,
        "slot": "13",
        "type": "t_uint256"
      },
      {
        "astId": 2783,
        "contract": "contracts/strategies/AaveBasicStrategy.sol:AaveBasicStrategy",
        "label": "userBalances",
        "offset": 0,
        "slot": "14",
        "type": "t_mapping(t_address,t_uint256)"
      },
      {
        "astId": 2786,
        "contract": "contracts/strategies/AaveBasicStrategy.sol:AaveBasicStrategy",
        "label": "strategyTest",
        "offset": 0,
        "slot": "15",
        "type": "t_uint256"
      },
      {
        "astId": 4016,
        "contract": "contracts/strategies/AaveBasicStrategy.sol:AaveBasicStrategy",
        "label": "calculatedHealthFactor",
        "offset": 0,
        "slot": "16",
        "type": "t_uint256"
      },
      {
        "astId": 4018,
        "contract": "contracts/strategies/AaveBasicStrategy.sol:AaveBasicStrategy",
        "label": "healthFactor",
        "offset": 0,
        "slot": "17",
        "type": "t_uint256"
      },
      {
        "astId": 4020,
        "contract": "contracts/strategies/AaveBasicStrategy.sol:AaveBasicStrategy",
        "label": "_totalCollateralBase",
        "offset": 0,
        "slot": "18",
        "type": "t_uint256"
      },
      {
        "astId": 4022,
        "contract": "contracts/strategies/AaveBasicStrategy.sol:AaveBasicStrategy",
        "label": "_totalDebtBase",
        "offset": 0,
        "slot": "19",
        "type": "t_uint256"
      },
      {
        "astId": 4024,
        "contract": "contracts/strategies/AaveBasicStrategy.sol:AaveBasicStrategy",
        "label": "_availableBorrowsBase",
        "offset": 0,
        "slot": "20",
        "type": "t_uint256"
      },
      {
        "astId": 4026,
        "contract": "contracts/strategies/AaveBasicStrategy.sol:AaveBasicStrategy",
        "label": "_currentLiquidationThreshold",
        "offset": 0,
        "slot": "21",
        "type": "t_uint256"
      },
      {
        "astId": 4028,
        "contract": "contracts/strategies/AaveBasicStrategy.sol:AaveBasicStrategy",
        "label": "futureHealthFactor",
        "offset": 0,
        "slot": "22",
        "type": "t_uint256"
      }
    ],
    "types": {
      "t_address": {
        "encoding": "inplace",
        "label": "address",
        "numberOfBytes": "20"
      },
      "t_contract(IPool)636": {
        "encoding": "inplace",
        "label": "contract IPool",
        "numberOfBytes": "20"
      },
      "t_contract(IQuoter)2637": {
        "encoding": "inplace",
        "label": "contract IQuoter",
        "numberOfBytes": "20"
      },
      "t_contract(IRewardsController)1454": {
        "encoding": "inplace",
        "label": "contract IRewardsController",
        "numberOfBytes": "20"
      },
      "t_contract(ISwapRouter)2737": {
        "encoding": "inplace",
        "label": "contract ISwapRouter",
        "numberOfBytes": "20"
      },
      "t_mapping(t_address,t_uint256)": {
        "encoding": "mapping",
        "key": "t_address",
        "label": "mapping(address => uint256)",
        "numberOfBytes": "32",
        "value": "t_uint256"
      },
      "t_uint256": {
        "encoding": "inplace",
        "label": "uint256",
        "numberOfBytes": "32"
      }
    }
  }
}