{
  "address": "0x2c40566a76F8261f67452bCd3F15e832E23eB318",
  "abi": [
    {
      "inputs": [
        {
          "internalType": "address",
          "name": "_tokenAddress",
          "type": "address"
        },
        {
          "internalType": "address",
          "name": "_tokenToBorrow",
          "type": "address"
        },
        {
          "internalType": "address",
          "name": "_aaveAddress",
          "type": "address"
        },
        {
          "internalType": "address",
          "name": "_uniswapAddress",
          "type": "address"
        }
      ],
      "stateMutability": "nonpayable",
      "type": "constructor"
    },
    {
      "anonymous": false,
      "inputs": [
        {
          "indexed": true,
          "internalType": "address",
          "name": "previousOwner",
          "type": "address"
        },
        {
          "indexed": true,
          "internalType": "address",
          "name": "newOwner",
          "type": "address"
        }
      ],
      "name": "OwnershipTransferred",
      "type": "event"
    },
    {
      "inputs": [
        {
          "internalType": "address",
          "name": "_tokenAddress",
          "type": "address"
        },
        {
          "internalType": "address",
          "name": "userAddress",
          "type": "address"
        },
        {
          "internalType": "uint256",
          "name": "amount",
          "type": "uint256"
        }
      ],
      "name": "enterStrategy",
      "outputs": [],
      "stateMutability": "payable",
      "type": "function"
    },
    {
      "inputs": [
        {
          "internalType": "address",
          "name": "userAddress",
          "type": "address"
        },
        {
          "internalType": "uint256",
          "name": "amount",
          "type": "uint256"
        }
      ],
      "name": "exitStrategy",
      "outputs": [],
      "stateMutability": "nonpayable",
      "type": "function"
    },
    {
      "inputs": [],
      "name": "getAaveAddress",
      "outputs": [
        {
          "internalType": "address",
          "name": "",
          "type": "address"
        }
      ],
      "stateMutability": "view",
      "type": "function"
    },
    {
      "inputs": [],
      "name": "getTokenToBorrow",
      "outputs": [
        {
          "internalType": "address",
          "name": "",
          "type": "address"
        }
      ],
      "stateMutability": "view",
      "type": "function"
    },
    {
      "inputs": [],
      "name": "getTokenToDeposit",
      "outputs": [
        {
          "internalType": "address",
          "name": "",
          "type": "address"
        }
      ],
      "stateMutability": "view",
      "type": "function"
    },
    {
      "inputs": [],
      "name": "getUniswapAddress",
      "outputs": [
        {
          "internalType": "address",
          "name": "",
          "type": "address"
        }
      ],
      "stateMutability": "view",
      "type": "function"
    },
    {
      "inputs": [
        {
          "internalType": "address",
          "name": "userAddress",
          "type": "address"
        }
      ],
      "name": "getUserBalance",
      "outputs": [
        {
          "internalType": "uint256",
          "name": "",
          "type": "uint256"
        }
      ],
      "stateMutability": "view",
      "type": "function"
    },
    {
      "inputs": [],
      "name": "owner",
      "outputs": [
        {
          "internalType": "address",
          "name": "",
          "type": "address"
        }
      ],
      "stateMutability": "view",
      "type": "function"
    },
    {
      "inputs": [],
      "name": "recolt",
      "outputs": [],
      "stateMutability": "nonpayable",
      "type": "function"
    },
    {
      "inputs": [],
      "name": "renounceOwnership",
      "outputs": [],
      "stateMutability": "nonpayable",
      "type": "function"
    },
    {
      "inputs": [
        {
          "internalType": "address",
          "name": "_aaveAddress",
          "type": "address"
        }
      ],
      "name": "setAaveAddress",
      "outputs": [],
      "stateMutability": "nonpayable",
      "type": "function"
    },
    {
      "inputs": [
        {
          "internalType": "address",
          "name": "newTokenAddress",
          "type": "address"
        }
      ],
      "name": "setTokenToBorrow",
      "outputs": [],
      "stateMutability": "nonpayable",
      "type": "function"
    },
    {
      "inputs": [
        {
          "internalType": "address",
          "name": "newTokenAddress",
          "type": "address"
        }
      ],
      "name": "setTokenToDeposit",
      "outputs": [],
      "stateMutability": "nonpayable",
      "type": "function"
    },
    {
      "inputs": [
        {
          "internalType": "address",
          "name": "_uniswapAddress",
          "type": "address"
        }
      ],
      "name": "setUniswapAddress",
      "outputs": [],
      "stateMutability": "nonpayable",
      "type": "function"
    },
    {
      "inputs": [],
      "name": "strategyTest",
      "outputs": [
        {
          "internalType": "string",
          "name": "",
          "type": "string"
        }
      ],
      "stateMutability": "view",
      "type": "function"
    },
    {
      "inputs": [
        {
          "internalType": "uint256",
          "name": "amount",
          "type": "uint256"
        }
      ],
      "name": "test",
      "outputs": [],
      "stateMutability": "nonpayable",
      "type": "function"
    },
    {
      "inputs": [
        {
          "internalType": "address",
          "name": "newOwner",
          "type": "address"
        }
      ],
      "name": "transferOwnership",
      "outputs": [],
      "stateMutability": "nonpayable",
      "type": "function"
    }
  ],
  "transactionHash": "0x68fa91ff2d2f4bf1911ccd47d2d67f6cbfa4cffbf110a898c8ad508e8e1c290e",
  "args": [
    "0xA6FA4fB5f76172d178d61B04b0ecd319C5d1C0aa",
    "0x9c3C9283D3e44854697Cd22D3Faa240Cfb032889",
    "0x794a61358d6845594f94dc1db02a252b5b4814ad",
    "0xE592427A0AEce92De3Edee1F18E0157C05861564"
  ],
  "numDeployments": 1,
  "solcInputHash": "c60207917fb8e0b261ade10f65a7e0f0",
  "bytecode": "0x60806040526040518060400160405280600f81526020017f4e6f742063616c6c6564207965742e0000000000000000000000000000000000815250600890805190602001906200005192919062000301565b503480156200005f57600080fd5b506040516200210d3803806200210d8339818101604052810190620000859190620003c8565b620000a5620000996200023560201b60201c565b6200023d60201b60201c565b83600160006101000a81548173ffffffffffffffffffffffffffffffffffffffff021916908373ffffffffffffffffffffffffffffffffffffffff16021790555082600260006101000a81548173ffffffffffffffffffffffffffffffffffffffff021916908373ffffffffffffffffffffffffffffffffffffffff16021790555081600360006101000a81548173ffffffffffffffffffffffffffffffffffffffff021916908373ffffffffffffffffffffffffffffffffffffffff16021790555081600560006101000a81548173ffffffffffffffffffffffffffffffffffffffff021916908373ffffffffffffffffffffffffffffffffffffffff16021790555080600460006101000a81548173ffffffffffffffffffffffffffffffffffffffff021916908373ffffffffffffffffffffffffffffffffffffffff16021790555080600660006101000a81548173ffffffffffffffffffffffffffffffffffffffff021916908373ffffffffffffffffffffffffffffffffffffffff16021790555050505050620004f2565b600033905090565b60008060009054906101000a900473ffffffffffffffffffffffffffffffffffffffff169050816000806101000a81548173ffffffffffffffffffffffffffffffffffffffff021916908373ffffffffffffffffffffffffffffffffffffffff1602179055508173ffffffffffffffffffffffffffffffffffffffff168173ffffffffffffffffffffffffffffffffffffffff167f8be0079c531659141344cd1fd0a4f28419497f9722a3daafe3b4186f6b6457e060405160405180910390a35050565b8280546200030f906200046e565b90600052602060002090601f0160209004810192826200033357600085556200037f565b82601f106200034e57805160ff19168380011785556200037f565b828001600101855582156200037f579182015b828111156200037e57825182559160200191906001019062000361565b5b5090506200038e919062000392565b5090565b5b80821115620003ad57600081600090555060010162000393565b5090565b600081519050620003c281620004d8565b92915050565b60008060008060808587031215620003e557620003e4620004d3565b5b6000620003f587828801620003b1565b94505060206200040887828801620003b1565b93505060406200041b87828801620003b1565b92505060606200042e87828801620003b1565b91505092959194509250565b600062000447826200044e565b9050919050565b600073ffffffffffffffffffffffffffffffffffffffff82169050919050565b600060028204905060018216806200048757607f821691505b602082108114156200049e576200049d620004a4565b5b50919050565b7f4e487b7100000000000000000000000000000000000000000000000000000000600052602260045260246000fd5b600080fd5b620004e3816200043a565b8114620004ef57600080fd5b50565b611c0b80620005026000396000f3fe6080604052600436106100fe5760003560e01c80637884e7c611610095578063b1035aa411610064578063b1035aa4146102eb578063b8837f0014610314578063dc77b9ee14610330578063f2fde38b14610359578063faaf3e0014610382576100fe565b80637884e7c61461024357806384c7dae61461026c5780638da5cb5b1461029557806390693253146102c0576100fe565b80634e47c85f116100d15780634e47c85f146101ab5780636dad4b35146101d6578063715018a614610201578063742128a814610218576100fe565b806329e99f07146101035780633889f2d61461012c57806347734892146101435780634998550314610180575b600080fd5b34801561010f57600080fd5b5061012a60048036038101906101259190611437565b6103ab565b005b34801561013857600080fd5b506101416106b0565b005b34801561014f57600080fd5b5061016a6004803603810190610165919061134a565b6106fe565b6040516101779190611811565b60405180910390f35b34801561018c57600080fd5b50610195610747565b6040516101a29190611713565b60405180910390f35b3480156101b757600080fd5b506101c06107d5565b6040516101cd9190611698565b60405180910390f35b3480156101e257600080fd5b506101eb6107ff565b6040516101f89190611698565b60405180910390f35b34801561020d57600080fd5b50610216610829565b005b34801561022457600080fd5b5061022d61083d565b60405161023a9190611698565b60405180910390f35b34801561024f57600080fd5b5061026a6004803603810190610265919061134a565b610867565b005b34801561027857600080fd5b50610293600480360381019061028e91906113ca565b610964565b005b3480156102a157600080fd5b506102aa610b88565b6040516102b79190611698565b60405180910390f35b3480156102cc57600080fd5b506102d5610bb1565b6040516102e29190611698565b60405180910390f35b3480156102f757600080fd5b50610312600480360381019061030d919061134a565b610bdb565b005b61032e60048036038101906103299190611377565b610cd8565b005b34801561033c57600080fd5b506103576004803603810190610352919061134a565b610f0d565b005b34801561036557600080fd5b50610380600480360381019061037b919061134a565b610fc9565b005b34801561038e57600080fd5b506103a960048036038101906103a4919061134a565b61104d565b005b6040518060400160405280600181526020017f3100000000000000000000000000000000000000000000000000000000000000815250600890805190602001906103f6929190611253565b506000600160009054906101000a900473ffffffffffffffffffffffffffffffffffffffff1690506040518060400160405280600181526020017f320000000000000000000000000000000000000000000000000000000000000081525060089080519060200190610469929190611253565b508073ffffffffffffffffffffffffffffffffffffffff1663095ea7b3600460009054906101000a900473ffffffffffffffffffffffffffffffffffffffff16846040518363ffffffff1660e01b81526004016104c79291906116ea565b602060405180830381600087803b1580156104e157600080fd5b505af11580156104f5573d6000803e3d6000fd5b505050506040513d601f19601f82011682018060405250810190610519919061140a565b506000604051806101000160405280600160009054906101000a900473ffffffffffffffffffffffffffffffffffffffff1673ffffffffffffffffffffffffffffffffffffffff168152602001600260009054906101000a900473ffffffffffffffffffffffffffffffffffffffff1673ffffffffffffffffffffffffffffffffffffffff168152602001610bb862ffffff1681526020013373ffffffffffffffffffffffffffffffffffffffff16815260200142815260200184815260200160008152602001600073ffffffffffffffffffffffffffffffffffffffff168152509050600660009054906101000a900473ffffffffffffffffffffffffffffffffffffffff1673ffffffffffffffffffffffffffffffffffffffff1663414bf389826040518263ffffffff1660e01b815260040161065891906117f5565b602060405180830381600087803b15801561067257600080fd5b505af1158015610686573d6000803e3d6000fd5b505050506040513d601f19601f820116820180604052508101906106aa9190611464565b50505050565b6040518060400160405280600981526020017f5265636f6c7465642e0000000000000000000000000000000000000000000000815250600890805190602001906106fb929190611253565b50565b6000600760008373ffffffffffffffffffffffffffffffffffffffff1673ffffffffffffffffffffffffffffffffffffffff168152602001908152602001600020549050919050565b600880546107549061195c565b80601f01602080910402602001604051908101604052809291908181526020018280546107809061195c565b80156107cd5780601f106107a2576101008083540402835291602001916107cd565b820191906000526020600020905b8154815290600101906020018083116107b057829003601f168201915b505050505081565b6000600360009054906101000a900473ffffffffffffffffffffffffffffffffffffffff16905090565b6000600260009054906101000a900473ffffffffffffffffffffffffffffffffffffffff16905090565b610831611109565b61083b6000611187565b565b6000600160009054906101000a900473ffffffffffffffffffffffffffffffffffffffff16905090565b61086f611109565b600073ffffffffffffffffffffffffffffffffffffffff168173ffffffffffffffffffffffffffffffffffffffff1614156108df576040517f08c379a00000000000000000000000000000000000000000000000000000000081526004016108d690611775565b60405180910390fd5b80600460006101000a81548173ffffffffffffffffffffffffffffffffffffffff021916908373ffffffffffffffffffffffffffffffffffffffff16021790555080600660006101000a81548173ffffffffffffffffffffffffffffffffffffffff021916908373ffffffffffffffffffffffffffffffffffffffff16021790555050565b80600760008473ffffffffffffffffffffffffffffffffffffffff1673ffffffffffffffffffffffffffffffffffffffff1681526020019081526020016000205410156109e6576040517f08c379a00000000000000000000000000000000000000000000000000000000081526004016109dd906117b5565b60405180910390fd5b600073ffffffffffffffffffffffffffffffffffffffff16600160009054906101000a900473ffffffffffffffffffffffffffffffffffffffff1673ffffffffffffffffffffffffffffffffffffffff161415610a78576040517f08c379a0000000000000000000000000000000000000000000000000000000008152600401610a6f906117d5565b60405180910390fd5b6000600160009054906101000a900473ffffffffffffffffffffffffffffffffffffffff1690508073ffffffffffffffffffffffffffffffffffffffff1663a9059cbb33846040518363ffffffff1660e01b8152600401610ada9291906116ea565b602060405180830381600087803b158015610af457600080fd5b505af1158015610b08573d6000803e3d6000fd5b505050506040513d601f19601f82011682018060405250810190610b2c919061140a565b5081600760008573ffffffffffffffffffffffffffffffffffffffff1673ffffffffffffffffffffffffffffffffffffffff1681526020019081526020016000206000828254610b7c919061189e565b92505081905550505050565b60008060009054906101000a900473ffffffffffffffffffffffffffffffffffffffff16905090565b6000600460009054906101000a900473ffffffffffffffffffffffffffffffffffffffff16905090565b610be3611109565b600073ffffffffffffffffffffffffffffffffffffffff168173ffffffffffffffffffffffffffffffffffffffff161415610c53576040517f08c379a0000000000000000000000000000000000000000000000000000000008152600401610c4a90611775565b60405180910390fd5b80600360006101000a81548173ffffffffffffffffffffffffffffffffffffffff021916908373ffffffffffffffffffffffffffffffffffffffff16021790555080600560006101000a81548173ffffffffffffffffffffffffffffffffffffffff021916908373ffffffffffffffffffffffffffffffffffffffff16021790555050565b600160009054906101000a900473ffffffffffffffffffffffffffffffffffffffff1673ffffffffffffffffffffffffffffffffffffffff168373ffffffffffffffffffffffffffffffffffffffff1614610d68576040517f08c379a0000000000000000000000000000000000000000000000000000000008152600401610d5f90611755565b60405180910390fd5b600073ffffffffffffffffffffffffffffffffffffffff16600160009054906101000a900473ffffffffffffffffffffffffffffffffffffffff1673ffffffffffffffffffffffffffffffffffffffff161415610dfa576040517f08c379a0000000000000000000000000000000000000000000000000000000008152600401610df1906117d5565b60405180910390fd5b6000600160009054906101000a900473ffffffffffffffffffffffffffffffffffffffff1690508073ffffffffffffffffffffffffffffffffffffffff166323b872dd3330856040518463ffffffff1660e01b8152600401610e5e939291906116b3565b602060405180830381600087803b158015610e7857600080fd5b505af1158015610e8c573d6000803e3d6000fd5b505050506040513d601f19601f82011682018060405250810190610eb0919061140a565b5081600760008573ffffffffffffffffffffffffffffffffffffffff1673ffffffffffffffffffffffffffffffffffffffff1681526020019081526020016000206000828254610f009190611848565b9250508190555050505050565b610f15611109565b600073ffffffffffffffffffffffffffffffffffffffff168173ffffffffffffffffffffffffffffffffffffffff161415610f85576040517f08c379a0000000000000000000000000000000000000000000000000000000008152600401610f7c90611775565b60405180910390fd5b80600160006101000a81548173ffffffffffffffffffffffffffffffffffffffff021916908373ffffffffffffffffffffffffffffffffffffffff16021790555050565b610fd1611109565b600073ffffffffffffffffffffffffffffffffffffffff168173ffffffffffffffffffffffffffffffffffffffff161415611041576040517f08c379a000000000000000000000000000000000000000000000000000000000815260040161103890611735565b60405180910390fd5b61104a81611187565b50565b611055611109565b600073ffffffffffffffffffffffffffffffffffffffff168173ffffffffffffffffffffffffffffffffffffffff1614156110c5576040517f08c379a00000000000000000000000000000000000000000000000000000000081526004016110bc90611775565b60405180910390fd5b80600260006101000a81548173ffffffffffffffffffffffffffffffffffffffff021916908373ffffffffffffffffffffffffffffffffffffffff16021790555050565b61111161124b565b73ffffffffffffffffffffffffffffffffffffffff1661112f610b88565b73ffffffffffffffffffffffffffffffffffffffff1614611185576040517f08c379a000000000000000000000000000000000000000000000000000000000815260040161117c90611795565b60405180910390fd5b565b60008060009054906101000a900473ffffffffffffffffffffffffffffffffffffffff169050816000806101000a81548173ffffffffffffffffffffffffffffffffffffffff021916908373ffffffffffffffffffffffffffffffffffffffff1602179055508173ffffffffffffffffffffffffffffffffffffffff168173ffffffffffffffffffffffffffffffffffffffff167f8be0079c531659141344cd1fd0a4f28419497f9722a3daafe3b4186f6b6457e060405160405180910390a35050565b600033905090565b82805461125f9061195c565b90600052602060002090601f01602090048101928261128157600085556112c8565b82601f1061129a57805160ff19168380011785556112c8565b828001600101855582156112c8579182015b828111156112c75782518255916020019190600101906112ac565b5b5090506112d591906112d9565b5090565b5b808211156112f25760008160009055506001016112da565b5090565b60008135905061130581611b90565b92915050565b60008151905061131a81611ba7565b92915050565b60008135905061132f81611bbe565b92915050565b60008151905061134481611bbe565b92915050565b6000602082840312156113605761135f6119ec565b5b600061136e848285016112f6565b91505092915050565b6000806000606084860312156113905761138f6119ec565b5b600061139e868287016112f6565b93505060206113af868287016112f6565b92505060406113c086828701611320565b9150509250925092565b600080604083850312156113e1576113e06119ec565b5b60006113ef858286016112f6565b925050602061140085828601611320565b9150509250929050565b6000602082840312156114205761141f6119ec565b5b600061142e8482850161130b565b91505092915050565b60006020828403121561144d5761144c6119ec565b5b600061145b84828501611320565b91505092915050565b60006020828403121561147a576114796119ec565b5b600061148884828501611335565b91505092915050565b61149a816118d2565b82525050565b6114a9816118d2565b82525050565b60006114ba8261182c565b6114c48185611837565b93506114d4818560208601611929565b6114dd816119f1565b840191505092915050565b60006114f5602683611837565b915061150082611a02565b604082019050919050565b6000611518602d83611837565b915061152382611a51565b604082019050919050565b600061153b601d83611837565b915061154682611aa0565b602082019050919050565b600061155e602083611837565b915061156982611ac9565b602082019050919050565b6000611581602f83611837565b915061158c82611af2565b604082019050919050565b60006115a4602a83611837565b91506115af82611b41565b604082019050919050565b610100820160008201516115d16000850182611491565b5060208201516115e46020850182611491565b5060408201516115f7604085018261166b565b50606082015161160a6060850182611491565b50608082015161161d608085018261167a565b5060a082015161163060a085018261167a565b5060c082015161164360c085018261167a565b5060e082015161165660e085018261165c565b50505050565b611665816118f0565b82525050565b61167481611910565b82525050565b6116838161191f565b82525050565b6116928161191f565b82525050565b60006020820190506116ad60008301846114a0565b92915050565b60006060820190506116c860008301866114a0565b6116d560208301856114a0565b6116e26040830184611689565b949350505050565b60006040820190506116ff60008301856114a0565b61170c6020830184611689565b9392505050565b6000602082019050818103600083015261172d81846114af565b905092915050565b6000602082019050818103600083015261174e816114e8565b9050919050565b6000602082019050818103600083015261176e8161150b565b9050919050565b6000602082019050818103600083015261178e8161152e565b9050919050565b600060208201905081810360008301526117ae81611551565b9050919050565b600060208201905081810360008301526117ce81611574565b9050919050565b600060208201905081810360008301526117ee81611597565b9050919050565b60006101008201905061180b60008301846115ba565b92915050565b60006020820190506118266000830184611689565b92915050565b600081519050919050565b600082825260208201905092915050565b60006118538261191f565b915061185e8361191f565b9250827fffffffffffffffffffffffffffffffffffffffffffffffffffffffffffffffff038211156118935761189261198e565b5b828201905092915050565b60006118a98261191f565b91506118b48361191f565b9250828210156118c7576118c661198e565b5b828203905092915050565b60006118dd826118f0565b9050919050565b60008115159050919050565b600073ffffffffffffffffffffffffffffffffffffffff82169050919050565b600062ffffff82169050919050565b6000819050919050565b60005b8381101561194757808201518184015260208101905061192c565b83811115611956576000848401525b50505050565b6000600282049050600182168061197457607f821691505b60208210811415611988576119876119bd565b5b50919050565b7f4e487b7100000000000000000000000000000000000000000000000000000000600052601160045260246000fd5b7f4e487b7100000000000000000000000000000000000000000000000000000000600052602260045260246000fd5b600080fd5b6000601f19601f8301169050919050565b7f4f776e61626c653a206e6577206f776e657220697320746865207a65726f206160008201527f6464726573730000000000000000000000000000000000000000000000000000602082015250565b7f5468697320746f6b656e206973206e6f7420617661696c61626c6520696e207460008201527f6869732073747261746567792e00000000000000000000000000000000000000602082015250565b7f546869732061646472657373206973206e6f7420617661696c61626c65000000600082015250565b7f4f776e61626c653a2063616c6c6572206973206e6f7420746865206f776e6572600082015250565b7f596f752063616e2774207769746864726177206d6f7265207468616e20796f7560008201527f722077616c6c65742066756e64732e0000000000000000000000000000000000602082015250565b7f546869732061646472657373206973206e6f742076616c696420666f7220455260008201527f43323020746f6b656e2e00000000000000000000000000000000000000000000602082015250565b611b99816118d2565b8114611ba457600080fd5b50565b611bb0816118e4565b8114611bbb57600080fd5b50565b611bc78161191f565b8114611bd257600080fd5b5056fea26469706673582212208ee8e6546a6af896943ecfcd6141978022060f39300231aebaf73a5d65dfea7b64736f6c63430008070033",
  "devdoc": {
    "kind": "dev",
    "methods": {
      "owner()": {
        "details": "Returns the address of the current owner."
      },
      "renounceOwnership()": {
        "details": "Leaves the contract without owner. It will not be possible to call `onlyOwner` functions anymore. Can only be called by the current owner. NOTE: Renouncing ownership will leave the contract without an owner, thereby removing any functionality that is only available to the owner."
      },
      "transferOwnership(address)": {
        "details": "Transfers ownership of the contract to a new account (`newOwner`). Can only be called by the current owner."
      }
    },
    "version": 1
  },
  "userdoc": {
    "kind": "user",
    "methods": {},
    "version": 1
  },
  "storageLayout": {
    "storage": [
      {
        "astId": 7,
        "contract": "contracts/strategies/AaveBasicStrategy.sol:AaveBasicStrategy",
        "label": "_owner",
        "offset": 0,
        "slot": "0",
        "type": "t_address"
      },
      {
        "astId": 1184,
        "contract": "contracts/strategies/AaveBasicStrategy.sol:AaveBasicStrategy",
        "label": "tokenAddress",
        "offset": 0,
        "slot": "1",
        "type": "t_address"
      },
      {
        "astId": 1186,
        "contract": "contracts/strategies/AaveBasicStrategy.sol:AaveBasicStrategy",
        "label": "tokenToBorrow",
        "offset": 0,
        "slot": "2",
        "type": "t_address"
      },
      {
        "astId": 1188,
        "contract": "contracts/strategies/AaveBasicStrategy.sol:AaveBasicStrategy",
        "label": "aaveAddress",
        "offset": 0,
        "slot": "3",
        "type": "t_address"
      },
      {
        "astId": 1190,
        "contract": "contracts/strategies/AaveBasicStrategy.sol:AaveBasicStrategy",
        "label": "uniswapAddress",
        "offset": 0,
        "slot": "4",
        "type": "t_address"
      },
      {
        "astId": 1193,
        "contract": "contracts/strategies/AaveBasicStrategy.sol:AaveBasicStrategy",
        "label": "aave",
        "offset": 0,
        "slot": "5",
        "type": "t_contract(IPool)1174"
      },
      {
        "astId": 1196,
        "contract": "contracts/strategies/AaveBasicStrategy.sol:AaveBasicStrategy",
        "label": "uniswap",
        "offset": 0,
        "slot": "6",
        "type": "t_contract(ISwapRouter)937"
      },
      {
        "astId": 1200,
        "contract": "contracts/strategies/AaveBasicStrategy.sol:AaveBasicStrategy",
        "label": "s_userBalances",
        "offset": 0,
        "slot": "7",
        "type": "t_mapping(t_address,t_uint256)"
      },
      {
        "astId": 1203,
        "contract": "contracts/strategies/AaveBasicStrategy.sol:AaveBasicStrategy",
        "label": "strategyTest",
        "offset": 0,
        "slot": "8",
        "type": "t_string_storage"
      }
    ],
    "types": {
      "t_address": {
        "encoding": "inplace",
        "label": "address",
        "numberOfBytes": "20"
      },
      "t_contract(IPool)1174": {
        "encoding": "inplace",
        "label": "contract IPool",
        "numberOfBytes": "20"
      },
      "t_contract(ISwapRouter)937": {
        "encoding": "inplace",
        "label": "contract ISwapRouter",
        "numberOfBytes": "20"
      },
      "t_mapping(t_address,t_uint256)": {
        "encoding": "mapping",
        "key": "t_address",
        "label": "mapping(address => uint256)",
        "numberOfBytes": "32",
        "value": "t_uint256"
      },
      "t_string_storage": {
        "encoding": "bytes",
        "label": "string",
        "numberOfBytes": "32"
      },
      "t_uint256": {
        "encoding": "inplace",
        "label": "uint256",
        "numberOfBytes": "32"
      }
    }
  }
}