{
  "address": "0x6f3Fd5AA64A098c060AAA6b93cC97F2B2E56321d",
  "abi": [
    {
      "inputs": [
        {
          "internalType": "address",
          "name": "_tokenAddress",
          "type": "address"
        },
        {
          "internalType": "address",
          "name": "_tokenToBorrow",
          "type": "address"
        },
        {
          "internalType": "address",
          "name": "_aaveAddress",
          "type": "address"
        },
        {
          "internalType": "address",
          "name": "_aaveRewardsAddress",
          "type": "address"
        },
        {
          "internalType": "address",
          "name": "_uniswapAddress",
          "type": "address"
        },
        {
          "internalType": "address",
          "name": "_uniswapQuoterAddress",
          "type": "address"
        },
        {
          "internalType": "uint24",
          "name": "_uniswapFees",
          "type": "uint24"
        },
        {
          "internalType": "address",
          "name": "_chainlinkAddressTokenA",
          "type": "address"
        },
        {
          "internalType": "address",
          "name": "_chainlinkAddressTokenB",
          "type": "address"
        }
      ],
      "stateMutability": "nonpayable",
      "type": "constructor"
    },
    {
      "anonymous": false,
      "inputs": [
        {
          "indexed": true,
          "internalType": "address",
          "name": "previousOwner",
          "type": "address"
        },
        {
          "indexed": true,
          "internalType": "address",
          "name": "newOwner",
          "type": "address"
        }
      ],
      "name": "OwnershipTransferred",
      "type": "event"
    },
    {
      "inputs": [],
      "name": "_availableBorrowsBase",
      "outputs": [
        {
          "internalType": "uint256",
          "name": "",
          "type": "uint256"
        }
      ],
      "stateMutability": "view",
      "type": "function"
    },
    {
      "inputs": [],
      "name": "_currentLiquidationThreshold",
      "outputs": [
        {
          "internalType": "uint256",
          "name": "",
          "type": "uint256"
        }
      ],
      "stateMutability": "view",
      "type": "function"
    },
    {
      "inputs": [
        {
          "internalType": "address",
          "name": "tokenToSwap",
          "type": "address"
        },
        {
          "internalType": "address",
          "name": "tokenToGet",
          "type": "address"
        },
        {
          "internalType": "uint256",
          "name": "amount",
          "type": "uint256"
        },
        {
          "internalType": "bool",
          "name": "isInput",
          "type": "bool"
        }
      ],
      "name": "_swapOnUniswap",
      "outputs": [
        {
          "internalType": "uint256",
          "name": "",
          "type": "uint256"
        }
      ],
      "stateMutability": "nonpayable",
      "type": "function"
    },
    {
      "inputs": [],
      "name": "_totalCollateralBase",
      "outputs": [
        {
          "internalType": "uint256",
          "name": "",
          "type": "uint256"
        }
      ],
      "stateMutability": "view",
      "type": "function"
    },
    {
      "inputs": [],
      "name": "_totalDebtBase",
      "outputs": [
        {
          "internalType": "uint256",
          "name": "",
          "type": "uint256"
        }
      ],
      "stateMutability": "view",
      "type": "function"
    },
    {
      "inputs": [],
      "name": "calculatedHealthFactor",
      "outputs": [
        {
          "internalType": "uint256",
          "name": "",
          "type": "uint256"
        }
      ],
      "stateMutability": "view",
      "type": "function"
    },
    {
      "inputs": [
        {
          "internalType": "address",
          "name": "_tokenAddress",
          "type": "address"
        },
        {
          "internalType": "address",
          "name": "userAddress",
          "type": "address"
        },
        {
          "internalType": "uint256",
          "name": "amount",
          "type": "uint256"
        }
      ],
      "name": "enterStrategy",
      "outputs": [],
      "stateMutability": "payable",
      "type": "function"
    },
    {
      "inputs": [
        {
          "internalType": "address",
          "name": "userAddress",
          "type": "address"
        },
        {
          "internalType": "uint256",
          "name": "amount",
          "type": "uint256"
        }
      ],
      "name": "exitStrategy",
      "outputs": [],
      "stateMutability": "nonpayable",
      "type": "function"
    },
    {
      "inputs": [],
      "name": "futureHealthFactor",
      "outputs": [
        {
          "internalType": "uint256",
          "name": "",
          "type": "uint256"
        }
      ],
      "stateMutability": "view",
      "type": "function"
    },
    {
      "inputs": [],
      "name": "getAToken",
      "outputs": [
        {
          "internalType": "address",
          "name": "",
          "type": "address"
        }
      ],
      "stateMutability": "view",
      "type": "function"
    },
    {
      "inputs": [],
      "name": "getAaveAddress",
      "outputs": [
        {
          "internalType": "address",
          "name": "",
          "type": "address"
        }
      ],
      "stateMutability": "view",
      "type": "function"
    },
    {
      "inputs": [],
      "name": "getAaveRewardsAddress",
      "outputs": [
        {
          "internalType": "address",
          "name": "",
          "type": "address"
        }
      ],
      "stateMutability": "view",
      "type": "function"
    },
    {
      "inputs": [],
      "name": "getChainlinkAddressTokenA",
      "outputs": [
        {
          "internalType": "address",
          "name": "",
          "type": "address"
        }
      ],
      "stateMutability": "view",
      "type": "function"
    },
    {
      "inputs": [],
      "name": "getChainlinkAddressTokenB",
      "outputs": [
        {
          "internalType": "address",
          "name": "",
          "type": "address"
        }
      ],
      "stateMutability": "view",
      "type": "function"
    },
    {
      "inputs": [],
      "name": "getChainlinkWorkingBool",
      "outputs": [
        {
          "internalType": "bool",
          "name": "",
          "type": "bool"
        }
      ],
      "stateMutability": "view",
      "type": "function"
    },
    {
      "inputs": [],
      "name": "getDebtToken",
      "outputs": [
        {
          "internalType": "address",
          "name": "",
          "type": "address"
        }
      ],
      "stateMutability": "view",
      "type": "function"
    },
    {
      "inputs": [
        {
          "internalType": "uint256",
          "name": "addToBorrow",
          "type": "uint256"
        }
      ],
      "name": "getHealthFactor",
      "outputs": [
        {
          "internalType": "uint256",
          "name": "",
          "type": "uint256"
        },
        {
          "internalType": "uint256",
          "name": "",
          "type": "uint256"
        },
        {
          "internalType": "uint256",
          "name": "",
          "type": "uint256"
        }
      ],
      "stateMutability": "nonpayable",
      "type": "function"
    },
    {
      "inputs": [],
      "name": "getPureStrategyBalanceOnAave",
      "outputs": [
        {
          "internalType": "uint256",
          "name": "",
          "type": "uint256"
        }
      ],
      "stateMutability": "nonpayable",
      "type": "function"
    },
    {
      "inputs": [],
      "name": "getStrategyATokenBalance",
      "outputs": [
        {
          "internalType": "uint256",
          "name": "",
          "type": "uint256"
        }
      ],
      "stateMutability": "view",
      "type": "function"
    },
    {
      "inputs": [],
      "name": "getStrategyBalanceOutOfAave",
      "outputs": [
        {
          "internalType": "uint256",
          "name": "",
          "type": "uint256"
        }
      ],
      "stateMutability": "view",
      "type": "function"
    },
    {
      "inputs": [],
      "name": "getStrategyDebtTokenBalance",
      "outputs": [
        {
          "internalType": "uint256",
          "name": "",
          "type": "uint256"
        }
      ],
      "stateMutability": "view",
      "type": "function"
    },
    {
      "inputs": [],
      "name": "getTokenToBorrow",
      "outputs": [
        {
          "internalType": "address",
          "name": "",
          "type": "address"
        }
      ],
      "stateMutability": "view",
      "type": "function"
    },
    {
      "inputs": [],
      "name": "getTokenToDeposit",
      "outputs": [
        {
          "internalType": "address",
          "name": "",
          "type": "address"
        }
      ],
      "stateMutability": "view",
      "type": "function"
    },
    {
      "inputs": [],
      "name": "getTotalStrategyBalance",
      "outputs": [
        {
          "internalType": "uint256",
          "name": "",
          "type": "uint256"
        }
      ],
      "stateMutability": "nonpayable",
      "type": "function"
    },
    {
      "inputs": [],
      "name": "getUniswapAddress",
      "outputs": [
        {
          "internalType": "address",
          "name": "",
          "type": "address"
        }
      ],
      "stateMutability": "view",
      "type": "function"
    },
    {
      "inputs": [],
      "name": "getUniswapFees",
      "outputs": [
        {
          "internalType": "uint24",
          "name": "",
          "type": "uint24"
        }
      ],
      "stateMutability": "view",
      "type": "function"
    },
    {
      "inputs": [],
      "name": "getUniswapQuoterAddress",
      "outputs": [
        {
          "internalType": "address",
          "name": "",
          "type": "address"
        }
      ],
      "stateMutability": "view",
      "type": "function"
    },
    {
      "inputs": [
        {
          "internalType": "address",
          "name": "userAddress",
          "type": "address"
        }
      ],
      "name": "getUserBalance",
      "outputs": [
        {
          "internalType": "uint256",
          "name": "",
          "type": "uint256"
        }
      ],
      "stateMutability": "nonpayable",
      "type": "function"
    },
    {
      "inputs": [],
      "name": "healthFactor",
      "outputs": [
        {
          "internalType": "uint256",
          "name": "",
          "type": "uint256"
        }
      ],
      "stateMutability": "view",
      "type": "function"
    },
    {
      "inputs": [],
      "name": "owner",
      "outputs": [
        {
          "internalType": "address",
          "name": "",
          "type": "address"
        }
      ],
      "stateMutability": "view",
      "type": "function"
    },
    {
      "inputs": [],
      "name": "recolt",
      "outputs": [],
      "stateMutability": "nonpayable",
      "type": "function"
    },
    {
      "inputs": [],
      "name": "renounceOwnership",
      "outputs": [],
      "stateMutability": "nonpayable",
      "type": "function"
    },
    {
      "inputs": [
        {
          "internalType": "address",
          "name": "_aaveAddress",
          "type": "address"
        }
      ],
      "name": "setAaveAddress",
      "outputs": [],
      "stateMutability": "nonpayable",
      "type": "function"
    },
    {
      "inputs": [
        {
          "internalType": "address",
          "name": "_aaveRewardsAddress",
          "type": "address"
        }
      ],
      "name": "setAaveRewardsAddress",
      "outputs": [],
      "stateMutability": "nonpayable",
      "type": "function"
    },
    {
      "inputs": [
        {
          "internalType": "address",
          "name": "_chainlinkAddressTokenA",
          "type": "address"
        }
      ],
      "name": "setChainlinkAddressTokenA",
      "outputs": [],
      "stateMutability": "nonpayable",
      "type": "function"
    },
    {
      "inputs": [
        {
          "internalType": "address",
          "name": "_chainlinkAddressTokenB",
          "type": "address"
        }
      ],
      "name": "setChainlinkAddressTokenB",
      "outputs": [],
      "stateMutability": "nonpayable",
      "type": "function"
    },
    {
      "inputs": [
        {
          "internalType": "address",
          "name": "newTokenAddress",
          "type": "address"
        }
      ],
      "name": "setTokenToBorrow",
      "outputs": [],
      "stateMutability": "nonpayable",
      "type": "function"
    },
    {
      "inputs": [
        {
          "internalType": "address",
          "name": "newTokenAddress",
          "type": "address"
        }
      ],
      "name": "setTokenToDeposit",
      "outputs": [],
      "stateMutability": "nonpayable",
      "type": "function"
    },
    {
      "inputs": [
        {
          "internalType": "address",
          "name": "_uniswapAddress",
          "type": "address"
        }
      ],
      "name": "setUniswapAddress",
      "outputs": [],
      "stateMutability": "nonpayable",
      "type": "function"
    },
    {
      "inputs": [
        {
          "internalType": "uint24",
          "name": "_uniswapFees",
          "type": "uint24"
        }
      ],
      "name": "setUniswapFees",
      "outputs": [],
      "stateMutability": "nonpayable",
      "type": "function"
    },
    {
      "inputs": [
        {
          "internalType": "address",
          "name": "_uniswapQuoterAddress",
          "type": "address"
        }
      ],
      "name": "setUniswapQuoterAddress",
      "outputs": [],
      "stateMutability": "nonpayable",
      "type": "function"
    },
    {
      "inputs": [],
      "name": "swapChainlinkWorkingBool",
      "outputs": [],
      "stateMutability": "nonpayable",
      "type": "function"
    },
    {
      "inputs": [
        {
          "internalType": "address",
          "name": "newOwner",
          "type": "address"
        }
      ],
      "name": "transferOwnership",
      "outputs": [],
      "stateMutability": "nonpayable",
      "type": "function"
    },
    {
      "inputs": [
        {
          "internalType": "address",
          "name": "_tokenAddress",
          "type": "address"
        }
      ],
      "name": "withdraw",
      "outputs": [],
      "stateMutability": "nonpayable",
      "type": "function"
    }
  ],
  "transactionHash": "0xa2cc45927b6b86c54122e7ecc07cca8e9ef63aa3a5cee548e892a05e35f74b41",
  "args": [
    "0xA2025B15a1757311bfD68cb14eaeFCc237AF5b43",
    "0xA2025B15a1757311bfD68cb14eaeFCc237AF5b43",
    "0x368EedF3f56ad10b9bC57eed4Dac65B26Bb667f6",
    "0x0eC5F4cD22a4EEF3fdC63a31c5b6A2418D429193",
    "0xE592427A0AEce92De3Edee1F18E0157C05861564",
    "0xb27308f9F90D607463bb33eA1BeBb41C27CE5AB6",
    3000,
    "0xD4a33860578De61DBAbDc8BFdb98FD742fA7028e",
    "0xD4a33860578De61DBAbDc8BFdb98FD742fA7028e"
  ],
  "numDeployments": 2,
  "solcInputHash": "c3cd785891c369bb0c80318f5e2ce9e4",
  "bytecode": "0x60a06040523480156200001157600080fd5b506040516200679738038062006797833981810160405281019062000037919062001007565b620000576200004b62000a8160201b60201c565b62000a8960201b60201c565b88600160006101000a81548173ffffffffffffffffffffffffffffffffffffffff021916908373ffffffffffffffffffffffffffffffffffffffff16021790555087600260006101000a81548173ffffffffffffffffffffffffffffffffffffffff021916908373ffffffffffffffffffffffffffffffffffffffff160217905550600260009054906101000a900473ffffffffffffffffffffffffffffffffffffffff1673ffffffffffffffffffffffffffffffffffffffff16600160009054906101000a900473ffffffffffffffffffffffffffffffffffffffff1673ffffffffffffffffffffffffffffffffffffffff16141562000173576001600260146101000a81548160ff0219169083151502179055506200018f565b6000600260146101000a81548160ff0219169083151502179055505b86600560006101000a81548173ffffffffffffffffffffffffffffffffffffffff021916908373ffffffffffffffffffffffffffffffffffffffff16021790555086600b60006101000a81548173ffffffffffffffffffffffffffffffffffffffff021916908373ffffffffffffffffffffffffffffffffffffffff16021790555085600660006101000a81548173ffffffffffffffffffffffffffffffffffffffff021916908373ffffffffffffffffffffffffffffffffffffffff16021790555085600e60006101000a81548173ffffffffffffffffffffffffffffffffffffffff021916908373ffffffffffffffffffffffffffffffffffffffff16021790555084600760006101000a81548173ffffffffffffffffffffffffffffffffffffffff021916908373ffffffffffffffffffffffffffffffffffffffff16021790555084600c60006101000a81548173ffffffffffffffffffffffffffffffffffffffff021916908373ffffffffffffffffffffffffffffffffffffffff16021790555083600860006101000a81548173ffffffffffffffffffffffffffffffffffffffff021916908373ffffffffffffffffffffffffffffffffffffffff16021790555083600d60006101000a81548173ffffffffffffffffffffffffffffffffffffffff021916908373ffffffffffffffffffffffffffffffffffffffff16021790555082600860146101000a81548162ffffff021916908362ffffff16021790555081600960006101000a81548173ffffffffffffffffffffffffffffffffffffffff021916908373ffffffffffffffffffffffffffffffffffffffff16021790555081600f60006101000a81548173ffffffffffffffffffffffffffffffffffffffff021916908373ffffffffffffffffffffffffffffffffffffffff16021790555080600a60006101000a81548173ffffffffffffffffffffffffffffffffffffffff021916908373ffffffffffffffffffffffffffffffffffffffff16021790555080601060006101000a81548173ffffffffffffffffffffffffffffffffffffffff021916908373ffffffffffffffffffffffffffffffffffffffff160217905550600f60009054906101000a900473ffffffffffffffffffffffffffffffffffffffff1673ffffffffffffffffffffffffffffffffffffffff1663feaf968c6040518163ffffffff1660e01b815260040160a060405180830381865afa9250505080156200054757506040513d601f19601f82011682018060405250810190620005449190620011a3565b60015b6200056d576000600a60146101000a81548160ff02191690831515021790555062000647565b5050505050601060009054906101000a900473ffffffffffffffffffffffffffffffffffffffff1673ffffffffffffffffffffffffffffffffffffffff1663feaf968c6040518163ffffffff1660e01b815260040160a060405180830381865afa925050508015620005ff57506040513d601f19601f82011682018060405250810190620005fc9190620011a3565b60015b62000625576000600a60146101000a81548160ff02191690831515021790555062000646565b50505050506001600a60146101000a81548160ff0219169083151502179055505b5b6000600260149054906101000a900460ff1615620007be576000600b60009054906101000a900473ffffffffffffffffffffffffffffffffffffffff1673ffffffffffffffffffffffffffffffffffffffff166335ea6a75600160009054906101000a900473ffffffffffffffffffffffffffffffffffffffff166040518263ffffffff1660e01b8152600401620006e091906200123c565b6101e060405180830381865afa158015620006ff573d6000803e3d6000fd5b505050506040513d601f19601f820116820180604052508101906200072591906200158b565b9050806101000151600360006101000a81548173ffffffffffffffffffffffffffffffffffffffff021916908373ffffffffffffffffffffffffffffffffffffffff160217905550806101400151600460006101000a81548173ffffffffffffffffffffffffffffffffffffffff021916908373ffffffffffffffffffffffffffffffffffffffff160217905550600191505062000a69565b6000600b60009054906101000a900473ffffffffffffffffffffffffffffffffffffffff1673ffffffffffffffffffffffffffffffffffffffff166335ea6a75600160009054906101000a900473ffffffffffffffffffffffffffffffffffffffff166040518263ffffffff1660e01b81526004016200083f91906200123c565b6101e060405180830381865afa1580156200085e573d6000803e3d6000fd5b505050506040513d601f19601f820116820180604052508101906200088491906200158b565b9050806101000151600360006101000a81548173ffffffffffffffffffffffffffffffffffffffff021916908373ffffffffffffffffffffffffffffffffffffffff1602179055506000600b60009054906101000a900473ffffffffffffffffffffffffffffffffffffffff1673ffffffffffffffffffffffffffffffffffffffff166335ea6a75600260009054906101000a900473ffffffffffffffffffffffffffffffffffffffff166040518263ffffffff1660e01b81526004016200094d91906200123c565b6101e060405180830381865afa1580156200096c573d6000803e3d6000fd5b505050506040513d601f19601f820116820180604052508101906200099291906200158b565b9050806101400151600460006101000a81548173ffffffffffffffffffffffffffffffffffffffff021916908373ffffffffffffffffffffffffffffffffffffffff160217905550600a60149054906101000a900460ff161562000a0a5762000a02600162000b4d60201b60201c565b925062000a66565b62000a63600160009054906101000a900473ffffffffffffffffffffffffffffffffffffffff16600260009054906101000a900473ffffffffffffffffffffffffffffffffffffffff1660018062000d6560201b60201c565b92505b50505b80608081815250505050505050505050505062001864565b600033905090565b60008060009054906101000a900473ffffffffffffffffffffffffffffffffffffffff169050816000806101000a81548173ffffffffffffffffffffffffffffffffffffffff021916908373ffffffffffffffffffffffffffffffffffffffff1602179055508173ffffffffffffffffffffffffffffffffffffffff168173ffffffffffffffffffffffffffffffffffffffff167f8be0079c531659141344cd1fd0a4f28419497f9722a3daafe3b4186f6b6457e060405160405180910390a35050565b6000600260149054906101000a900460ff1662000ba1576040517f08c379a000000000000000000000000000000000000000000000000000000000815260040162000b989062001645565b60405180910390fd5b600a60149054906101000a900460ff1662000bf3576040517f08c379a000000000000000000000000000000000000000000000000000000000815260040162000bea90620016dd565b60405180910390fd5b600080600f60009054906101000a900473ffffffffffffffffffffffffffffffffffffffff1673ffffffffffffffffffffffffffffffffffffffff1663feaf968c6040518163ffffffff1660e01b815260040160a060405180830381865afa15801562000c64573d6000803e3d6000fd5b505050506040513d601f19601f8201168201806040525081019062000c8a9190620011a3565b5050509150506000601060009054906101000a900473ffffffffffffffffffffffffffffffffffffffff1673ffffffffffffffffffffffffffffffffffffffff1663feaf968c6040518163ffffffff1660e01b815260040160a060405180830381865afa15801562000d00573d6000803e3d6000fd5b505050506040513d601f19601f8201168201806040525081019062000d269190620011a3565b505050915050841562000d4957808262000d4191906200172e565b925062000d5a565b818162000d5791906200172e565b92505b829350505050919050565b6000600260149054906101000a900460ff1662000db9576040517f08c379a000000000000000000000000000000000000000000000000000000000815260040162000db09062001645565b60405180910390fd5b6000821562000e8757600d60009054906101000a900473ffffffffffffffffffffffffffffffffffffffff1673ffffffffffffffffffffffffffffffffffffffff1663f7729d438787600860149054906101000a900462ffffff168860006040518663ffffffff1660e01b815260040162000e39959493929190620017d5565b6020604051808303816000875af115801562000e59573d6000803e3d6000fd5b505050506040513d601f19601f8201168201806040525081019062000e7f919062001832565b905062000f47565b600d60009054906101000a900473ffffffffffffffffffffffffffffffffffffffff1673ffffffffffffffffffffffffffffffffffffffff166330d07f218787600860149054906101000a900462ffffff168860006040518663ffffffff1660e01b815260040162000efe959493929190620017d5565b6020604051808303816000875af115801562000f1e573d6000803e3d6000fd5b505050506040513d601f19601f8201168201806040525081019062000f44919062001832565b90505b80915050949350505050565b6000604051905090565b600080fd5b600073ffffffffffffffffffffffffffffffffffffffff82169050919050565b600062000f8f8262000f62565b9050919050565b62000fa18162000f82565b811462000fad57600080fd5b50565b60008151905062000fc18162000f96565b92915050565b600062ffffff82169050919050565b62000fe18162000fc7565b811462000fed57600080fd5b50565b600081519050620010018162000fd6565b92915050565b60008060008060008060008060006101208a8c0312156200102d576200102c62000f5d565b5b60006200103d8c828d0162000fb0565b9950506020620010508c828d0162000fb0565b9850506040620010638c828d0162000fb0565b9750506060620010768c828d0162000fb0565b9650506080620010898c828d0162000fb0565b95505060a06200109c8c828d0162000fb0565b94505060c0620010af8c828d0162000ff0565b93505060e0620010c28c828d0162000fb0565b925050610100620010d68c828d0162000fb0565b9150509295985092959850929598565b600069ffffffffffffffffffff82169050919050565b6200110781620010e6565b81146200111357600080fd5b50565b6000815190506200112781620010fc565b92915050565b6000819050919050565b62001142816200112d565b81146200114e57600080fd5b50565b600081519050620011628162001137565b92915050565b6000819050919050565b6200117d8162001168565b81146200118957600080fd5b50565b6000815190506200119d8162001172565b92915050565b600080600080600060a08688031215620011c257620011c162000f5d565b5b6000620011d28882890162001116565b9550506020620011e58882890162001151565b9450506040620011f8888289016200118c565b93505060606200120b888289016200118c565b92505060806200121e8882890162001116565b9150509295509295909350565b620012368162000f82565b82525050565b60006020820190506200125360008301846200122b565b92915050565b600080fd5b6000601f19601f8301169050919050565b7f4e487b7100000000000000000000000000000000000000000000000000000000600052604160045260246000fd5b620012a9826200125e565b810181811067ffffffffffffffff82111715620012cb57620012ca6200126f565b5b80604052505050565b6000620012e062000f53565b9050620012ee82826200129e565b919050565b6000602082840312156200130c576200130b62001259565b5b620013186020620012d4565b905060006200132a848285016200118c565b60008301525092915050565b60006fffffffffffffffffffffffffffffffff82169050919050565b6200135d8162001336565b81146200136957600080fd5b50565b6000815190506200137d8162001352565b92915050565b600064ffffffffff82169050919050565b6200139f8162001383565b8114620013ab57600080fd5b50565b600081519050620013bf8162001394565b92915050565b600061ffff82169050919050565b620013de81620013c5565b8114620013ea57600080fd5b50565b600081519050620013fe81620013d3565b92915050565b60006101e082840312156200141e576200141d62001259565b5b6200142b6101e0620012d4565b905060006200143d84828501620012f3565b600083015250602062001453848285016200136c565b602083015250604062001469848285016200136c565b60408301525060606200147f848285016200136c565b606083015250608062001495848285016200136c565b60808301525060a0620014ab848285016200136c565b60a08301525060c0620014c184828501620013ae565b60c08301525060e0620014d784828501620013ed565b60e083015250610100620014ee8482850162000fb0565b61010083015250610120620015068482850162000fb0565b610120830152506101406200151e8482850162000fb0565b61014083015250610160620015368482850162000fb0565b610160830152506101806200154e848285016200136c565b610180830152506101a062001566848285016200136c565b6101a0830152506101c06200157e848285016200136c565b6101c08301525092915050565b60006101e08284031215620015a557620015a462000f5d565b5b6000620015b58482850162001404565b91505092915050565b600082825260208201905092915050565b7f506c6561736520646f6e2774207573652073616d6520746f6b656e7320746f2060008201527f63616c6c20746869732066756e6374696f6e732e000000000000000000000000602082015250565b60006200162d603483620015be565b91506200163a82620015cf565b604082019050919050565b6000602082019050818103600083015262001660816200161e565b9050919050565b7f536f7272792c20436861696e6c696e6b2063616e27742070726f76696465206960008201527f6e666f726d6174696f6e7320666f7220746865736520746f6b656e732e000000602082015250565b6000620016c5603d83620015be565b9150620016d28262001667565b604082019050919050565b60006020820190508181036000830152620016f881620016b6565b9050919050565b7f4e487b7100000000000000000000000000000000000000000000000000000000600052601260045260246000fd5b60006200173b8262001168565b9150620017488362001168565b9250826200175b576200175a620016ff565b5b828204905092915050565b620017718162000fc7565b82525050565b620017828162001168565b82525050565b6000819050919050565b6000819050919050565b6000620017bd620017b7620017b18462001788565b62001792565b62000f62565b9050919050565b620017cf816200179c565b82525050565b600060a082019050620017ec60008301886200122b565b620017fb60208301876200122b565b6200180a604083018662001766565b62001819606083018562001777565b620018286080830184620017c4565b9695505050505050565b6000602082840312156200184b576200184a62000f5d565b5b60006200185b848285016200118c565b91505092915050565b608051614f0262001895600039600081816118190152818161183a01528181611fcd0152611fee0152614f026000f3fe6080604052600436106102675760003560e01c806384c7dae611610144578063b8837f00116100b6578063cc1fb5671161007a578063cc1fb567146108ad578063dc77b9ee146108d8578063de159b8714610901578063e23bd7ab1461092a578063f2fde38b14610953578063faaf3e001461097c57610267565b8063b8837f00146107e5578063bea1805b14610801578063c1245beb1461082c578063c3bb022414610857578063cafd617e1461088257610267565b80639a614164116101085780639a614164146106e9578063afed619014610712578063b1035aa41461073d578063b29c55bc14610766578063b5a3298d14610791578063b6366d8d146107bc57610267565b806384c7dae6146106165780638748be0a1461063f5780638a7f4922146106685780638da5cb5b1461069357806390693253146106be57610267565b80634e47c85f116101dd5780636eb7fd6c116101a15780636eb7fd6c14610518578063715018a614610543578063742128a81461055a578063772202ea146105855780637884e7c6146105c25780637c74a8d3146105eb57610267565b80634e47c85f14610443578063501b09451461046e57806351cff8d9146104995780636835427e146104c25780636dad4b35146104ed57610267565b80631d4cdafa1161022f5780631d4cdafa14610357578063227d9c3a1461038257806322841f01146103995780633889f2d6146103c457806340a950a6146103db578063477348921461040657610267565b806306d42c641461026c5780630e44a3f61461029757806317845c69146102c2578063182c6f991461030157806318b1e2421461032c575b600080fd5b34801561027857600080fd5b506102816109a5565b60405161028e91906138cd565b60405180910390f35b3480156102a357600080fd5b506102ac6109bc565b6040516102b99190613906565b60405180910390f35b3480156102ce57600080fd5b506102e960048036038101906102e4919061396b565b6109d5565b6040516102f8939291906139a7565b60405180910390f35b34801561030d57600080fd5b50610316610b1a565b60405161032391906139de565b60405180910390f35b34801561033857600080fd5b50610341610bc2565b60405161034e91906139de565b60405180910390f35b34801561036357600080fd5b5061036c610cca565b6040516103799190613a3a565b60405180910390f35b34801561038e57600080fd5b50610397610cf4565b005b3480156103a557600080fd5b506103ae610d28565b6040516103bb91906139de565b60405180910390f35b3480156103d057600080fd5b506103d9610d2e565b005b3480156103e757600080fd5b506103f0610f06565b6040516103fd91906139de565b60405180910390f35b34801561041257600080fd5b5061042d60048036038101906104289190613a81565b610fae565b60405161043a91906139de565b60405180910390f35b34801561044f57600080fd5b50610458611079565b6040516104659190613a3a565b60405180910390f35b34801561047a57600080fd5b506104836110a3565b60405161049091906139de565b60405180910390f35b3480156104a557600080fd5b506104c060048036038101906104bb9190613a81565b6110a9565b005b3480156104ce57600080fd5b506104d76111aa565b6040516104e491906139de565b60405180910390f35b3480156104f957600080fd5b50610502611252565b60405161050f9190613a3a565b60405180910390f35b34801561052457600080fd5b5061052d61127c565b60405161053a91906139de565b60405180910390f35b34801561054f57600080fd5b50610558611282565b005b34801561056657600080fd5b5061056f611296565b60405161057c9190613a3a565b60405180910390f35b34801561059157600080fd5b506105ac60048036038101906105a79190613ada565b6112c0565b6040516105b991906139de565b60405180910390f35b3480156105ce57600080fd5b506105e960048036038101906105e49190613a81565b61162b565b005b3480156105f757600080fd5b50610600611728565b60405161060d91906139de565b60405180910390f35b34801561062257600080fd5b5061063d60048036038101906106389190613b41565b61172e565b005b34801561064b57600080fd5b5061066660048036038101906106619190613a81565b6119ce565b005b34801561067457600080fd5b5061067d611acb565b60405161068a9190613a3a565b60405180910390f35b34801561069f57600080fd5b506106a8611af5565b6040516106b59190613a3a565b60405180910390f35b3480156106ca57600080fd5b506106d3611b1e565b6040516106e09190613a3a565b60405180910390f35b3480156106f557600080fd5b50610710600480360381019061070b9190613bad565b611b48565b005b34801561071e57600080fd5b50610727611bbb565b60405161073491906139de565b60405180910390f35b34801561074957600080fd5b50610764600480360381019061075f9190613a81565b611bc1565b005b34801561077257600080fd5b5061077b611cbe565b6040516107889190613a3a565b60405180910390f35b34801561079d57600080fd5b506107a6611ce8565b6040516107b391906139de565b60405180910390f35b3480156107c857600080fd5b506107e360048036038101906107de9190613a81565b611d0e565b005b6107ff60048036038101906107fa9190613bda565b611e0b565b005b34801561080d57600080fd5b50610816612185565b6040516108239190613a3a565b60405180910390f35b34801561083857600080fd5b506108416121af565b60405161084e9190613a3a565b60405180910390f35b34801561086357600080fd5b5061086c6121d9565b60405161087991906139de565b60405180910390f35b34801561088e57600080fd5b506108976121df565b6040516108a491906139de565b60405180910390f35b3480156108b957600080fd5b506108c26121e5565b6040516108cf9190613a3a565b60405180910390f35b3480156108e457600080fd5b506108ff60048036038101906108fa9190613a81565b61220f565b005b34801561090d57600080fd5b5061092860048036038101906109239190613a81565b6123d5565b005b34801561093657600080fd5b50610951600480360381019061094c9190613a81565b612655565b005b34801561095f57600080fd5b5061097a60048036038101906109759190613a81565b6128d5565b005b34801561098857600080fd5b506109a3600480360381019061099e9190613a81565b612959565b005b6000600a60149054906101000a900460ff16905090565b6000600860149054906101000a900462ffffff16905090565b600080600080600080600080600b60009054906101000a900473ffffffffffffffffffffffffffffffffffffffff1673ffffffffffffffffffffffffffffffffffffffff1663bf92857c306040518263ffffffff1660e01b8152600401610a3c9190613a3a565b60c060405180830381865afa158015610a59573d6000803e3d6000fd5b505050506040513d601f19601f82011682018060405250810190610a7d9190613c42565b955050945094509450945080601481905550838286610a9c9190613cfe565b610aa69190613d87565b601381905550600060198190555084601581905550836016819055508260178190555081601881905550806013541415610b03578884610ae69190613db8565b8286610af29190613cfe565b610afc9190613d87565b6019819055505b808360195497509750975050505050509193909250565b600080600160009054906101000a900473ffffffffffffffffffffffffffffffffffffffff1690508073ffffffffffffffffffffffffffffffffffffffff166370a08231306040518263ffffffff1660e01b8152600401610b7b9190613a3a565b602060405180830381865afa158015610b98573d6000803e3d6000fd5b505050506040513d601f19601f82011682018060405250810190610bbc9190613e0e565b91505090565b600080600080600260149054906101000a900460ff1615610c0457610be5610f06565b9150610bef6111aa565b90508082610bfd9190613e3b565b9250610cc1565b610c0c610f06565b9150610c166111aa565b9050600080821415610c2b5760009050610cb1565b600a60149054906101000a900460ff1615610c5c57610c4a6000612b1f565b82610c559190613d87565b9050610cb0565b610cad600360009054906101000a900473ffffffffffffffffffffffffffffffffffffffff16600460009054906101000a900473ffffffffffffffffffffffffffffffffffffffff16846000612d25565b90505b5b8083610cbd9190613e3b565b9350505b82935050505090565b6000600460009054906101000a900473ffffffffffffffffffffffffffffffffffffffff16905090565b610cfc612f04565b600a60149054906101000a900460ff1615600a60146101000a81548160ff021916908315150217905550565b60145481565b6000600267ffffffffffffffff811115610d4b57610d4a613e6f565b5b604051908082528060200260200182016040528015610d795781602001602082028036833780820191505090505b509050600360009054906101000a900473ffffffffffffffffffffffffffffffffffffffff1681600081518110610db357610db2613e9e565b5b602002602001019073ffffffffffffffffffffffffffffffffffffffff16908173ffffffffffffffffffffffffffffffffffffffff1681525050600460009054906101000a900473ffffffffffffffffffffffffffffffffffffffff1681600181518110610e2457610e23613e9e565b5b602002602001019073ffffffffffffffffffffffffffffffffffffffff16908173ffffffffffffffffffffffffffffffffffffffff1681525050600e60009054906101000a900473ffffffffffffffffffffffffffffffffffffffff1673ffffffffffffffffffffffffffffffffffffffff1663bf90f63a826040518263ffffffff1660e01b8152600401610eb99190613f8b565b6000604051808303816000875af1158015610ed8573d6000803e3d6000fd5b505050506040513d6000823e3d601f19601f82011682018060405250810190610f0191906141af565b505050565b600080600360009054906101000a900473ffffffffffffffffffffffffffffffffffffffff1690508073ffffffffffffffffffffffffffffffffffffffff166370a08231306040518263ffffffff1660e01b8152600401610f679190613a3a565b602060405180830381865afa158015610f84573d6000803e3d6000fd5b505050506040513d601f19601f82011682018060405250810190610fa89190613e0e565b91505090565b6000806000601260008573ffffffffffffffffffffffffffffffffffffffff1673ffffffffffffffffffffffffffffffffffffffff1681526020019081526020016000205414156110025760009050611070565b6000601154601260008673ffffffffffffffffffffffffffffffffffffffff1673ffffffffffffffffffffffffffffffffffffffff168152602001908152602001600020546110519190613d87565b9050600061105d611ce8565b9050818161106b9190613cfe565b925050505b80915050919050565b6000600560009054906101000a900473ffffffffffffffffffffffffffffffffffffffff16905090565b60135481565b60008190508073ffffffffffffffffffffffffffffffffffffffff1663a9059cbb338373ffffffffffffffffffffffffffffffffffffffff166370a08231306040518263ffffffff1660e01b81526004016111049190613a3a565b602060405180830381865afa158015611121573d6000803e3d6000fd5b505050506040513d601f19601f820116820180604052508101906111459190613e0e565b6040518363ffffffff1660e01b8152600401611162929190614227565b6020604051808303816000875af1158015611181573d6000803e3d6000fd5b505050506040513d601f19601f820116820180604052508101906111a59190614265565b505050565b600080600460009054906101000a900473ffffffffffffffffffffffffffffffffffffffff1690508073ffffffffffffffffffffffffffffffffffffffff166370a08231306040518263ffffffff1660e01b815260040161120b9190613a3a565b602060405180830381865afa158015611228573d6000803e3d6000fd5b505050506040513d601f19601f8201168201806040525081019061124c9190613e0e565b91505090565b6000600260009054906101000a900473ffffffffffffffffffffffffffffffffffffffff16905090565b60165481565b61128a612f04565b6112946000612f82565b565b6000600160009054906101000a900473ffffffffffffffffffffffffffffffffffffffff16905090565b60008060008690508073ffffffffffffffffffffffffffffffffffffffff1663095ea7b3600760009054906101000a900473ffffffffffffffffffffffffffffffffffffffff16876040518363ffffffff1660e01b8152600401611325929190614227565b6020604051808303816000875af1158015611344573d6000803e3d6000fd5b505050506040513d601f19601f820116820180604052508101906113689190614265565b5083156114c35760006040518061010001604052808973ffffffffffffffffffffffffffffffffffffffff1681526020018873ffffffffffffffffffffffffffffffffffffffff168152602001600860149054906101000a900462ffffff1662ffffff1681526020013073ffffffffffffffffffffffffffffffffffffffff16815260200142815260200187815260200160008152602001600073ffffffffffffffffffffffffffffffffffffffff168152509050600c60009054906101000a900473ffffffffffffffffffffffffffffffffffffffff1673ffffffffffffffffffffffffffffffffffffffff1663414bf389826040518263ffffffff1660e01b81526004016114789190614361565b6020604051808303816000875af1158015611497573d6000803e3d6000fd5b505050506040513d601f19601f820116820180604052508101906114bb9190613e0e565b92505061161e565b60006040518061010001604052808973ffffffffffffffffffffffffffffffffffffffff1681526020018873ffffffffffffffffffffffffffffffffffffffff168152602001600860149054906101000a900462ffffff1662ffffff1681526020013073ffffffffffffffffffffffffffffffffffffffff16815260200142815260200187815260200160028861155a9190613cfe565b8152602001600073ffffffffffffffffffffffffffffffffffffffff168152509050600c60009054906101000a900473ffffffffffffffffffffffffffffffffffffffff1673ffffffffffffffffffffffffffffffffffffffff1663db3e2198826040518263ffffffff1660e01b81526004016115d7919061441f565b6020604051808303816000875af11580156115f6573d6000803e3d6000fd5b505050506040513d601f19601f8201168201806040525081019061161a9190613e0e565b9250505b8192505050949350505050565b611633612f04565b600073ffffffffffffffffffffffffffffffffffffffff168173ffffffffffffffffffffffffffffffffffffffff1614156116a3576040517f08c379a000000000000000000000000000000000000000000000000000000000815260040161169a90614498565b60405180910390fd5b80600760006101000a81548173ffffffffffffffffffffffffffffffffffffffff021916908373ffffffffffffffffffffffffffffffffffffffff16021790555080600c60006101000a81548173ffffffffffffffffffffffffffffffffffffffff021916908373ffffffffffffffffffffffffffffffffffffffff16021790555050565b60195481565b8061173883610fae565b1015611779576040517f08c379a00000000000000000000000000000000000000000000000000000000081526004016117709061452a565b60405180910390fd5b6000600260149054906101000a900460ff16156117995760019050611814565b600a60149054906101000a900460ff16156117bf576117b86001612b1f565b9050611813565b611810600160009054906101000a900473ffffffffffffffffffffffffffffffffffffffff16600260009054906101000a900473ffffffffffffffffffffffffffffffffffffffff16600180612d25565b90505b5b6000817f00000000000000000000000000000000000000000000000000000000000000007f00000000000000000000000000000000000000000000000000000000000000006118639190613cfe565b61186d9190613d87565b9050828161187b9190613cfe565b601260008673ffffffffffffffffffffffffffffffffffffffff1673ffffffffffffffffffffffffffffffffffffffff16815260200190815260200160002060008282546118c99190613e3b565b9250508190555082816118dc9190613cfe565b601160008282546118ed9190613e3b565b92505081905550600260149054906101000a900460ff16156119175761191283613046565b611921565b611920836130a3565b5b6000600160009054906101000a900473ffffffffffffffffffffffffffffffffffffffff1690508073ffffffffffffffffffffffffffffffffffffffff1663a9059cbb33866040518363ffffffff1660e01b8152600401611983929190614227565b6020604051808303816000875af11580156119a2573d6000803e3d6000fd5b505050506040513d601f19601f820116820180604052508101906119c69190614265565b505050505050565b6119d6612f04565b600073ffffffffffffffffffffffffffffffffffffffff168173ffffffffffffffffffffffffffffffffffffffff161415611a46576040517f08c379a0000000000000000000000000000000000000000000000000000000008152600401611a3d90614498565b60405180910390fd5b80600660006101000a81548173ffffffffffffffffffffffffffffffffffffffff021916908373ffffffffffffffffffffffffffffffffffffffff16021790555080600e60006101000a81548173ffffffffffffffffffffffffffffffffffffffff021916908373ffffffffffffffffffffffffffffffffffffffff16021790555050565b6000600860009054906101000a900473ffffffffffffffffffffffffffffffffffffffff16905090565b60008060009054906101000a900473ffffffffffffffffffffffffffffffffffffffff16905090565b6000600760009054906101000a900473ffffffffffffffffffffffffffffffffffffffff16905090565b611b50612f04565b60008162ffffff161415611b99576040517f08c379a0000000000000000000000000000000000000000000000000000000008152600401611b9090614596565b60405180910390fd5b80600860146101000a81548162ffffff021916908362ffffff16021790555050565b60175481565b611bc9612f04565b600073ffffffffffffffffffffffffffffffffffffffff168173ffffffffffffffffffffffffffffffffffffffff161415611c39576040517f08c379a0000000000000000000000000000000000000000000000000000000008152600401611c3090614498565b60405180910390fd5b80600560006101000a81548173ffffffffffffffffffffffffffffffffffffffff021916908373ffffffffffffffffffffffffffffffffffffffff16021790555080600b60006101000a81548173ffffffffffffffffffffffffffffffffffffffff021916908373ffffffffffffffffffffffffffffffffffffffff16021790555050565b6000600360009054906101000a900473ffffffffffffffffffffffffffffffffffffffff16905090565b600080611cf3610b1a565b611cfb610bc2565b611d059190613db8565b90508091505090565b611d16612f04565b600073ffffffffffffffffffffffffffffffffffffffff168173ffffffffffffffffffffffffffffffffffffffff161415611d86576040517f08c379a0000000000000000000000000000000000000000000000000000000008152600401611d7d90614498565b60405180910390fd5b80600860006101000a81548173ffffffffffffffffffffffffffffffffffffffff021916908373ffffffffffffffffffffffffffffffffffffffff16021790555080600d60006101000a81548173ffffffffffffffffffffffffffffffffffffffff021916908373ffffffffffffffffffffffffffffffffffffffff16021790555050565b600160009054906101000a900473ffffffffffffffffffffffffffffffffffffffff1673ffffffffffffffffffffffffffffffffffffffff168373ffffffffffffffffffffffffffffffffffffffff1614611e9b576040517f08c379a0000000000000000000000000000000000000000000000000000000008152600401611e9290614628565b60405180910390fd5b600073ffffffffffffffffffffffffffffffffffffffff16600160009054906101000a900473ffffffffffffffffffffffffffffffffffffffff1673ffffffffffffffffffffffffffffffffffffffff161415611f2d576040517f08c379a0000000000000000000000000000000000000000000000000000000008152600401611f24906146ba565b60405180910390fd5b6000600260149054906101000a900460ff1615611f4d5760019050611fc8565b600a60149054906101000a900460ff1615611f7357611f6c6001612b1f565b9050611fc7565b611fc4600160009054906101000a900473ffffffffffffffffffffffffffffffffffffffff16600260009054906101000a900473ffffffffffffffffffffffffffffffffffffffff16600180612d25565b90505b5b6000817f00000000000000000000000000000000000000000000000000000000000000007f00000000000000000000000000000000000000000000000000000000000000006120179190613cfe565b6120219190613d87565b9050828161202f9190613cfe565b601260008673ffffffffffffffffffffffffffffffffffffffff1673ffffffffffffffffffffffffffffffffffffffff168152602001908152602001600020600082825461207d9190613db8565b9250508190555082816120909190613cfe565b601160008282546120a19190613db8565b925050819055506000600160009054906101000a900473ffffffffffffffffffffffffffffffffffffffff1690508073ffffffffffffffffffffffffffffffffffffffff166323b872dd3330876040518463ffffffff1660e01b815260040161210c939291906146da565b6020604051808303816000875af115801561212b573d6000803e3d6000fd5b505050506040513d601f19601f8201168201806040525081019061214f9190614265565b50600260149054906101000a900460ff16156121735761216e84613182565b61217d565b61217c846132ae565b5b505050505050565b6000600660009054906101000a900473ffffffffffffffffffffffffffffffffffffffff16905090565b6000600960009054906101000a900473ffffffffffffffffffffffffffffffffffffffff16905090565b60155481565b60185481565b6000600a60009054906101000a900473ffffffffffffffffffffffffffffffffffffffff16905090565b612217612f04565b600073ffffffffffffffffffffffffffffffffffffffff168173ffffffffffffffffffffffffffffffffffffffff161415612287576040517f08c379a000000000000000000000000000000000000000000000000000000000815260040161227e90614498565b60405180910390fd5b80600160006101000a81548173ffffffffffffffffffffffffffffffffffffffff021916908373ffffffffffffffffffffffffffffffffffffffff1602179055506000600b60009054906101000a900473ffffffffffffffffffffffffffffffffffffffff1673ffffffffffffffffffffffffffffffffffffffff166335ea6a75600160009054906101000a900473ffffffffffffffffffffffffffffffffffffffff166040518263ffffffff1660e01b81526004016123479190613a3a565b6101e060405180830381865afa158015612365573d6000803e3d6000fd5b505050506040513d601f19601f820116820180604052508101906123899190614975565b9050806101000151600360006101000a81548173ffffffffffffffffffffffffffffffffffffffff021916908373ffffffffffffffffffffffffffffffffffffffff1602179055505050565b6123dd612f04565b600073ffffffffffffffffffffffffffffffffffffffff168173ffffffffffffffffffffffffffffffffffffffff16141561244d576040517f08c379a000000000000000000000000000000000000000000000000000000000815260040161244490614498565b60405180910390fd5b80600960006101000a81548173ffffffffffffffffffffffffffffffffffffffff021916908373ffffffffffffffffffffffffffffffffffffffff16021790555080600f60006101000a81548173ffffffffffffffffffffffffffffffffffffffff021916908373ffffffffffffffffffffffffffffffffffffffff160217905550600f60009054906101000a900473ffffffffffffffffffffffffffffffffffffffff1673ffffffffffffffffffffffffffffffffffffffff1663feaf968c6040518163ffffffff1660e01b815260040160a060405180830381865afa92505050801561255957506040513d601f19601f820116820180604052508101906125569190614a1b565b60015b61257d576000600a60146101000a81548160ff021916908315150217905550612652565b5050505050601060009054906101000a900473ffffffffffffffffffffffffffffffffffffffff1673ffffffffffffffffffffffffffffffffffffffff1663feaf968c6040518163ffffffff1660e01b815260040160a060405180830381865afa92505050801561260c57506040513d601f19601f820116820180604052508101906126099190614a1b565b60015b612630576000600a60146101000a81548160ff021916908315150217905550612651565b50505050506001600a60146101000a81548160ff0219169083151502179055505b5b50565b61265d612f04565b600073ffffffffffffffffffffffffffffffffffffffff168173ffffffffffffffffffffffffffffffffffffffff1614156126cd576040517f08c379a00000000000000000000000000000000000000000000000000000000081526004016126c490614498565b60405180910390fd5b80600a60006101000a81548173ffffffffffffffffffffffffffffffffffffffff021916908373ffffffffffffffffffffffffffffffffffffffff16021790555080601060006101000a81548173ffffffffffffffffffffffffffffffffffffffff021916908373ffffffffffffffffffffffffffffffffffffffff160217905550601060009054906101000a900473ffffffffffffffffffffffffffffffffffffffff1673ffffffffffffffffffffffffffffffffffffffff1663feaf968c6040518163ffffffff1660e01b815260040160a060405180830381865afa9250505080156127d957506040513d601f19601f820116820180604052508101906127d69190614a1b565b60015b6127fd576000600a60146101000a81548160ff0219169083151502179055506128d2565b5050505050600f60009054906101000a900473ffffffffffffffffffffffffffffffffffffffff1673ffffffffffffffffffffffffffffffffffffffff1663feaf968c6040518163ffffffff1660e01b815260040160a060405180830381865afa92505050801561288c57506040513d601f19601f820116820180604052508101906128899190614a1b565b60015b6128b0576000600a60146101000a81548160ff0219169083151502179055506128d1565b50505050506001600a60146101000a81548160ff0219169083151502179055505b5b50565b6128dd612f04565b600073ffffffffffffffffffffffffffffffffffffffff168173ffffffffffffffffffffffffffffffffffffffff16141561294d576040517f08c379a000000000000000000000000000000000000000000000000000000000815260040161294490614b08565b60405180910390fd5b61295681612f82565b50565b612961612f04565b600073ffffffffffffffffffffffffffffffffffffffff168173ffffffffffffffffffffffffffffffffffffffff1614156129d1576040517f08c379a00000000000000000000000000000000000000000000000000000000081526004016129c890614498565b60405180910390fd5b80600260006101000a81548173ffffffffffffffffffffffffffffffffffffffff021916908373ffffffffffffffffffffffffffffffffffffffff1602179055506000600b60009054906101000a900473ffffffffffffffffffffffffffffffffffffffff1673ffffffffffffffffffffffffffffffffffffffff166335ea6a75600260009054906101000a900473ffffffffffffffffffffffffffffffffffffffff166040518263ffffffff1660e01b8152600401612a919190613a3a565b6101e060405180830381865afa158015612aaf573d6000803e3d6000fd5b505050506040513d601f19601f82011682018060405250810190612ad39190614975565b9050806101400151600460006101000a81548173ffffffffffffffffffffffffffffffffffffffff021916908373ffffffffffffffffffffffffffffffffffffffff1602179055505050565b6000600260149054906101000a900460ff16612b70576040517f08c379a0000000000000000000000000000000000000000000000000000000008152600401612b6790614b9a565b60405180910390fd5b600a60149054906101000a900460ff16612bbf576040517f08c379a0000000000000000000000000000000000000000000000000000000008152600401612bb690614c2c565b60405180910390fd5b600080600f60009054906101000a900473ffffffffffffffffffffffffffffffffffffffff1673ffffffffffffffffffffffffffffffffffffffff1663feaf968c6040518163ffffffff1660e01b815260040160a060405180830381865afa158015612c2f573d6000803e3d6000fd5b505050506040513d601f19601f82011682018060405250810190612c539190614a1b565b5050509150506000601060009054906101000a900473ffffffffffffffffffffffffffffffffffffffff1673ffffffffffffffffffffffffffffffffffffffff1663feaf968c6040518163ffffffff1660e01b815260040160a060405180830381865afa158015612cc8573d6000803e3d6000fd5b505050506040513d601f19601f82011682018060405250810190612cec9190614a1b565b5050509150508415612d0b578082612d049190613d87565b9250612d1a565b8181612d179190613d87565b92505b829350505050919050565b6000600260149054906101000a900460ff16612d76576040517f08c379a0000000000000000000000000000000000000000000000000000000008152600401612d6d90614b9a565b60405180910390fd5b60008215612e3d57600d60009054906101000a900473ffffffffffffffffffffffffffffffffffffffff1673ffffffffffffffffffffffffffffffffffffffff1663f7729d438787600860149054906101000a900462ffffff168860006040518663ffffffff1660e01b8152600401612df3959493929190614c91565b6020604051808303816000875af1158015612e12573d6000803e3d6000fd5b505050506040513d601f19601f82011682018060405250810190612e369190613e0e565b9050612ef8565b600d60009054906101000a900473ffffffffffffffffffffffffffffffffffffffff1673ffffffffffffffffffffffffffffffffffffffff166330d07f218787600860149054906101000a900462ffffff168860006040518663ffffffff1660e01b8152600401612eb2959493929190614c91565b6020604051808303816000875af1158015612ed1573d6000803e3d6000fd5b505050506040513d601f19601f82011682018060405250810190612ef59190613e0e565b90505b80915050949350505050565b612f0c613430565b73ffffffffffffffffffffffffffffffffffffffff16612f2a611af5565b73ffffffffffffffffffffffffffffffffffffffff1614612f80576040517f08c379a0000000000000000000000000000000000000000000000000000000008152600401612f7790614d30565b60405180910390fd5b565b60008060009054906101000a900473ffffffffffffffffffffffffffffffffffffffff169050816000806101000a81548173ffffffffffffffffffffffffffffffffffffffff021916908373ffffffffffffffffffffffffffffffffffffffff1602179055508173ffffffffffffffffffffffffffffffffffffffff168173ffffffffffffffffffffffffffffffffffffffff167f8be0079c531659141344cd1fd0a4f28419497f9722a3daafe3b4186f6b6457e060405160405180910390a35050565b613074600160009054906101000a900473ffffffffffffffffffffffffffffffffffffffff16826002613438565b6130a0600160009054906101000a900473ffffffffffffffffffffffffffffffffffffffff16826134e0565b50565b6130cf600160009054906101000a900473ffffffffffffffffffffffffffffffffffffffff16826134e0565b6000613122600160009054906101000a900473ffffffffffffffffffffffffffffffffffffffff16600260009054906101000a900473ffffffffffffffffffffffffffffffffffffffff168460016112c0565b9050613152600260009054906101000a900473ffffffffffffffffffffffffffffffffffffffff16826002613587565b61317e600160009054906101000a900473ffffffffffffffffffffffffffffffffffffffff16826134e0565b5050565b6131ae600160009054906101000a900473ffffffffffffffffffffffffffffffffffffffff16826136d8565b600060046003836131bf9190613cfe565b6131c99190613d87565b9050600a60149054906101000a900460ff16156131fc576131ea6001612b1f565b816131f59190613cfe565b9050613250565b61324d600160009054906101000a900473ffffffffffffffffffffffffffffffffffffffff16600260009054906101000a900473ffffffffffffffffffffffffffffffffffffffff16836001612d25565b90505b61327e600160009054906101000a900473ffffffffffffffffffffffffffffffffffffffff16826002613817565b6132aa600160009054906101000a900473ffffffffffffffffffffffffffffffffffffffff16826136d8565b5050565b6132da600160009054906101000a900473ffffffffffffffffffffffffffffffffffffffff16826136d8565b600060046003836132eb9190613cfe565b6132f59190613d87565b9050600a60149054906101000a900460ff1615613328576133166001612b1f565b816133219190613cfe565b905061337c565b613379600160009054906101000a900473ffffffffffffffffffffffffffffffffffffffff16600260009054906101000a900473ffffffffffffffffffffffffffffffffffffffff16836001612d25565b90505b6133aa600260009054906101000a900473ffffffffffffffffffffffffffffffffffffffff16826002613817565b60006133fd600260009054906101000a900473ffffffffffffffffffffffffffffffffffffffff16600160009054906101000a900473ffffffffffffffffffffffffffffffffffffffff168460016112c0565b905061342b600160009054906101000a900473ffffffffffffffffffffffffffffffffffffffff16826136d8565b505050565b600033905090565b600b60009054906101000a900473ffffffffffffffffffffffffffffffffffffffff1673ffffffffffffffffffffffffffffffffffffffff16632dad97d48484846040518463ffffffff1660e01b815260040161349793929190614d50565b6020604051808303816000875af11580156134b6573d6000803e3d6000fd5b505050506040513d601f19601f820116820180604052508101906134da9190613e0e565b50505050565b600b60009054906101000a900473ffffffffffffffffffffffffffffffffffffffff1673ffffffffffffffffffffffffffffffffffffffff166369328dec8383306040518463ffffffff1660e01b815260040161353f93929190614d87565b6020604051808303816000875af115801561355e573d6000803e3d6000fd5b505050506040513d601f19601f820116820180604052508101906135829190613e0e565b505050565b60008390508073ffffffffffffffffffffffffffffffffffffffff1663095ea7b3600560009054906101000a900473ffffffffffffffffffffffffffffffffffffffff16856040518363ffffffff1660e01b81526004016135e9929190614227565b6020604051808303816000875af1158015613608573d6000803e3d6000fd5b505050506040513d601f19601f8201168201806040525081019061362c9190614265565b50600b60009054906101000a900473ffffffffffffffffffffffffffffffffffffffff1673ffffffffffffffffffffffffffffffffffffffff1663573ade81858585306040518563ffffffff1660e01b815260040161368e9493929190614dbe565b6020604051808303816000875af11580156136ad573d6000803e3d6000fd5b505050506040513d601f19601f820116820180604052508101906136d19190613e0e565b5050505050565b60008290508073ffffffffffffffffffffffffffffffffffffffff1663095ea7b3600560009054906101000a900473ffffffffffffffffffffffffffffffffffffffff16846040518363ffffffff1660e01b815260040161373a929190614227565b6020604051808303816000875af1158015613759573d6000803e3d6000fd5b505050506040513d601f19601f8201168201806040525081019061377d9190614265565b50600b60009054906101000a900473ffffffffffffffffffffffffffffffffffffffff1673ffffffffffffffffffffffffffffffffffffffff1663617ba03784843060006040518563ffffffff1660e01b81526004016137e09493929190614e34565b600060405180830381600087803b1580156137fa57600080fd5b505af115801561380e573d6000803e3d6000fd5b50505050505050565b600b60009054906101000a900473ffffffffffffffffffffffffffffffffffffffff1673ffffffffffffffffffffffffffffffffffffffff1663a415bcad8484846000306040518663ffffffff1660e01b815260040161387b959493929190614e79565b600060405180830381600087803b15801561389557600080fd5b505af11580156138a9573d6000803e3d6000fd5b50505050505050565b60008115159050919050565b6138c7816138b2565b82525050565b60006020820190506138e260008301846138be565b92915050565b600062ffffff82169050919050565b613900816138e8565b82525050565b600060208201905061391b60008301846138f7565b92915050565b6000604051905090565b600080fd5b600080fd5b6000819050919050565b61394881613935565b811461395357600080fd5b50565b6000813590506139658161393f565b92915050565b6000602082840312156139815761398061392b565b5b600061398f84828501613956565b91505092915050565b6139a181613935565b82525050565b60006060820190506139bc6000830186613998565b6139c96020830185613998565b6139d66040830184613998565b949350505050565b60006020820190506139f36000830184613998565b92915050565b600073ffffffffffffffffffffffffffffffffffffffff82169050919050565b6000613a24826139f9565b9050919050565b613a3481613a19565b82525050565b6000602082019050613a4f6000830184613a2b565b92915050565b613a5e81613a19565b8114613a6957600080fd5b50565b600081359050613a7b81613a55565b92915050565b600060208284031215613a9757613a9661392b565b5b6000613aa584828501613a6c565b91505092915050565b613ab7816138b2565b8114613ac257600080fd5b50565b600081359050613ad481613aae565b92915050565b60008060008060808587031215613af457613af361392b565b5b6000613b0287828801613a6c565b9450506020613b1387828801613a6c565b9350506040613b2487828801613956565b9250506060613b3587828801613ac5565b91505092959194509250565b60008060408385031215613b5857613b5761392b565b5b6000613b6685828601613a6c565b9250506020613b7785828601613956565b9150509250929050565b613b8a816138e8565b8114613b9557600080fd5b50565b600081359050613ba781613b81565b92915050565b600060208284031215613bc357613bc261392b565b5b6000613bd184828501613b98565b91505092915050565b600080600060608486031215613bf357613bf261392b565b5b6000613c0186828701613a6c565b9350506020613c1286828701613a6c565b9250506040613c2386828701613956565b9150509250925092565b600081519050613c3c8161393f565b92915050565b60008060008060008060c08789031215613c5f57613c5e61392b565b5b6000613c6d89828a01613c2d565b9650506020613c7e89828a01613c2d565b9550506040613c8f89828a01613c2d565b9450506060613ca089828a01613c2d565b9350506080613cb189828a01613c2d565b92505060a0613cc289828a01613c2d565b9150509295509295509295565b7f4e487b7100000000000000000000000000000000000000000000000000000000600052601160045260246000fd5b6000613d0982613935565b9150613d1483613935565b9250817fffffffffffffffffffffffffffffffffffffffffffffffffffffffffffffffff0483118215151615613d4d57613d4c613ccf565b5b828202905092915050565b7f4e487b7100000000000000000000000000000000000000000000000000000000600052601260045260246000fd5b6000613d9282613935565b9150613d9d83613935565b925082613dad57613dac613d58565b5b828204905092915050565b6000613dc382613935565b9150613dce83613935565b9250827fffffffffffffffffffffffffffffffffffffffffffffffffffffffffffffffff03821115613e0357613e02613ccf565b5b828201905092915050565b600060208284031215613e2457613e2361392b565b5b6000613e3284828501613c2d565b91505092915050565b6000613e4682613935565b9150613e5183613935565b925082821015613e6457613e63613ccf565b5b828203905092915050565b7f4e487b7100000000000000000000000000000000000000000000000000000000600052604160045260246000fd5b7f4e487b7100000000000000000000000000000000000000000000000000000000600052603260045260246000fd5b600081519050919050565b600082825260208201905092915050565b6000819050602082019050919050565b613f0281613a19565b82525050565b6000613f148383613ef9565b60208301905092915050565b6000602082019050919050565b6000613f3882613ecd565b613f428185613ed8565b9350613f4d83613ee9565b8060005b83811015613f7e578151613f658882613f08565b9750613f7083613f20565b925050600181019050613f51565b5085935050505092915050565b60006020820190508181036000830152613fa58184613f2d565b905092915050565b600080fd5b6000601f19601f8301169050919050565b613fcc82613fb2565b810181811067ffffffffffffffff82111715613feb57613fea613e6f565b5b80604052505050565b6000613ffe613921565b905061400a8282613fc3565b919050565b600067ffffffffffffffff82111561402a57614029613e6f565b5b602082029050602081019050919050565b600080fd5b60008151905061404f81613a55565b92915050565b60006140686140638461400f565b613ff4565b9050808382526020820190506020840283018581111561408b5761408a61403b565b5b835b818110156140b457806140a08882614040565b84526020840193505060208101905061408d565b5050509392505050565b600082601f8301126140d3576140d2613fad565b5b81516140e3848260208601614055565b91505092915050565b600067ffffffffffffffff82111561410757614106613e6f565b5b602082029050602081019050919050565b600061412b614126846140ec565b613ff4565b9050808382526020820190506020840283018581111561414e5761414d61403b565b5b835b8181101561417757806141638882613c2d565b845260208401935050602081019050614150565b5050509392505050565b600082601f83011261419657614195613fad565b5b81516141a6848260208601614118565b91505092915050565b600080604083850312156141c6576141c561392b565b5b600083015167ffffffffffffffff8111156141e4576141e3613930565b5b6141f0858286016140be565b925050602083015167ffffffffffffffff81111561421157614210613930565b5b61421d85828601614181565b9150509250929050565b600060408201905061423c6000830185613a2b565b6142496020830184613998565b9392505050565b60008151905061425f81613aae565b92915050565b60006020828403121561427b5761427a61392b565b5b600061428984828501614250565b91505092915050565b61429b816138e8565b82525050565b6142aa81613935565b82525050565b6142b9816139f9565b82525050565b610100820160008201516142d66000850182613ef9565b5060208201516142e96020850182613ef9565b5060408201516142fc6040850182614292565b50606082015161430f6060850182613ef9565b50608082015161432260808501826142a1565b5060a082015161433560a08501826142a1565b5060c082015161434860c08501826142a1565b5060e082015161435b60e08501826142b0565b50505050565b60006101008201905061437760008301846142bf565b92915050565b610100820160008201516143946000850182613ef9565b5060208201516143a76020850182613ef9565b5060408201516143ba6040850182614292565b5060608201516143cd6060850182613ef9565b5060808201516143e060808501826142a1565b5060a08201516143f360a08501826142a1565b5060c082015161440660c08501826142a1565b5060e082015161441960e08501826142b0565b50505050565b600061010082019050614435600083018461437d565b92915050565b600082825260208201905092915050565b7f546869732061646472657373206973206e6f7420617661696c61626c65000000600082015250565b6000614482601d8361443b565b915061448d8261444c565b602082019050919050565b600060208201905081810360008301526144b181614475565b9050919050565b7f596f752063616e2774207769746864726177206d6f7265207468616e20796f7560008201527f722077616c6c65742066756e64732e0000000000000000000000000000000000602082015250565b6000614514602f8361443b565b915061451f826144b8565b604082019050919050565b6000602082019050818103600083015261454381614507565b9050919050565b7f556e697377617020666565206e6f742076616c69642e00000000000000000000600082015250565b600061458060168361443b565b915061458b8261454a565b602082019050919050565b600060208201905081810360008301526145af81614573565b9050919050565b7f5468697320746f6b656e206973206e6f7420617661696c61626c6520696e207460008201527f6869732073747261746567792e00000000000000000000000000000000000000602082015250565b6000614612602d8361443b565b915061461d826145b6565b604082019050919050565b6000602082019050818103600083015261464181614605565b9050919050565b7f546869732061646472657373206973206e6f742076616c696420666f7220455260008201527f43323020746f6b656e2e00000000000000000000000000000000000000000000602082015250565b60006146a4602a8361443b565b91506146af82614648565b604082019050919050565b600060208201905081810360008301526146d381614697565b9050919050565b60006060820190506146ef6000830186613a2b565b6146fc6020830185613a2b565b6147096040830184613998565b949350505050565b600080fd5b60006020828403121561472c5761472b614711565b5b6147366020613ff4565b9050600061474684828501613c2d565b60008301525092915050565b60006fffffffffffffffffffffffffffffffff82169050919050565b61477781614752565b811461478257600080fd5b50565b6000815190506147948161476e565b92915050565b600064ffffffffff82169050919050565b6147b48161479a565b81146147bf57600080fd5b50565b6000815190506147d1816147ab565b92915050565b600061ffff82169050919050565b6147ee816147d7565b81146147f957600080fd5b50565b60008151905061480b816147e5565b92915050565b60006101e0828403121561482857614827614711565b5b6148336101e0613ff4565b9050600061484384828501614716565b600083015250602061485784828501614785565b602083015250604061486b84828501614785565b604083015250606061487f84828501614785565b606083015250608061489384828501614785565b60808301525060a06148a784828501614785565b60a08301525060c06148bb848285016147c2565b60c08301525060e06148cf848285016147fc565b60e0830152506101006148e484828501614040565b610100830152506101206148fa84828501614040565b6101208301525061014061491084828501614040565b6101408301525061016061492684828501614040565b6101608301525061018061493c84828501614785565b610180830152506101a061495284828501614785565b6101a0830152506101c061496884828501614785565b6101c08301525092915050565b60006101e0828403121561498c5761498b61392b565b5b600061499a84828501614811565b91505092915050565b600069ffffffffffffffffffff82169050919050565b6149c2816149a3565b81146149cd57600080fd5b50565b6000815190506149df816149b9565b92915050565b6000819050919050565b6149f8816149e5565b8114614a0357600080fd5b50565b600081519050614a15816149ef565b92915050565b600080600080600060a08688031215614a3757614a3661392b565b5b6000614a45888289016149d0565b9550506020614a5688828901614a06565b9450506040614a6788828901613c2d565b9350506060614a7888828901613c2d565b9250506080614a89888289016149d0565b9150509295509295909350565b7f4f776e61626c653a206e6577206f776e657220697320746865207a65726f206160008201527f6464726573730000000000000000000000000000000000000000000000000000602082015250565b6000614af260268361443b565b9150614afd82614a96565b604082019050919050565b60006020820190508181036000830152614b2181614ae5565b9050919050565b7f506c6561736520646f6e2774207573652073616d6520746f6b656e7320746f2060008201527f63616c6c20746869732066756e6374696f6e732e000000000000000000000000602082015250565b6000614b8460348361443b565b9150614b8f82614b28565b604082019050919050565b60006020820190508181036000830152614bb381614b77565b9050919050565b7f536f7272792c20436861696e6c696e6b2063616e27742070726f76696465206960008201527f6e666f726d6174696f6e7320666f7220746865736520746f6b656e732e000000602082015250565b6000614c16603d8361443b565b9150614c2182614bba565b604082019050919050565b60006020820190508181036000830152614c4581614c09565b9050919050565b6000819050919050565b6000819050919050565b6000614c7b614c76614c7184614c4c565b614c56565b6139f9565b9050919050565b614c8b81614c60565b82525050565b600060a082019050614ca66000830188613a2b565b614cb36020830187613a2b565b614cc060408301866138f7565b614ccd6060830185613998565b614cda6080830184614c82565b9695505050505050565b7f4f776e61626c653a2063616c6c6572206973206e6f7420746865206f776e6572600082015250565b6000614d1a60208361443b565b9150614d2582614ce4565b602082019050919050565b60006020820190508181036000830152614d4981614d0d565b9050919050565b6000606082019050614d656000830186613a2b565b614d726020830185613998565b614d7f6040830184613998565b949350505050565b6000606082019050614d9c6000830186613a2b565b614da96020830185613998565b614db66040830184613a2b565b949350505050565b6000608082019050614dd36000830187613a2b565b614de06020830186613998565b614ded6040830185613998565b614dfa6060830184613a2b565b95945050505050565b6000614e1e614e19614e1484614c4c565b614c56565b6147d7565b9050919050565b614e2e81614e03565b82525050565b6000608082019050614e496000830187613a2b565b614e566020830186613998565b614e636040830185613a2b565b614e706060830184614e25565b95945050505050565b600060a082019050614e8e6000830188613a2b565b614e9b6020830187613998565b614ea86040830186613998565b614eb56060830185614e25565b614ec26080830184613a2b565b969550505050505056fea26469706673582212202049e851c15b6c06350336fa3d38534a10b2e36a2a7d844b0e0dd372a47beb7264736f6c634300080a0033",
  "devdoc": {
    "kind": "dev",
    "methods": {
      "owner()": {
        "details": "Returns the address of the current owner."
      },
      "renounceOwnership()": {
        "details": "Leaves the contract without owner. It will not be possible to call `onlyOwner` functions anymore. Can only be called by the current owner. NOTE: Renouncing ownership will leave the contract without an owner, thereby removing any functionality that is only available to the owner."
      },
      "transferOwnership(address)": {
        "details": "Transfers ownership of the contract to a new account (`newOwner`). Can only be called by the current owner."
      }
    },
    "version": 1
  },
  "userdoc": {
    "kind": "user",
    "methods": {
      "enterStrategy(address,address,uint256)": {
        "notice": "Public functions ///"
      },
      "swapChainlinkWorkingBool()": {
        "notice": "Set & Get functions ///"
      }
    },
    "version": 1
  },
  "storageLayout": {
    "storage": [
      {
        "astId": 1796,
        "contract": "contracts/strategies/AaveBasicStrategy.sol:AaveBasicStrategy",
        "label": "_owner",
        "offset": 0,
        "slot": "0",
        "type": "t_address"
      },
      {
        "astId": 2796,
        "contract": "contracts/strategies/AaveBasicStrategy.sol:AaveBasicStrategy",
        "label": "tokenAddress",
        "offset": 0,
        "slot": "1",
        "type": "t_address"
      },
      {
        "astId": 2798,
        "contract": "contracts/strategies/AaveBasicStrategy.sol:AaveBasicStrategy",
        "label": "tokenToBorrow",
        "offset": 0,
        "slot": "2",
        "type": "t_address"
      },
      {
        "astId": 2800,
        "contract": "contracts/strategies/AaveBasicStrategy.sol:AaveBasicStrategy",
        "label": "isSameToken",
        "offset": 20,
        "slot": "2",
        "type": "t_bool"
      },
      {
        "astId": 2802,
        "contract": "contracts/strategies/AaveBasicStrategy.sol:AaveBasicStrategy",
        "label": "aTokenAddress",
        "offset": 0,
        "slot": "3",
        "type": "t_address"
      },
      {
        "astId": 2804,
        "contract": "contracts/strategies/AaveBasicStrategy.sol:AaveBasicStrategy",
        "label": "vTokenAddress",
        "offset": 0,
        "slot": "4",
        "type": "t_address"
      },
      {
        "astId": 2806,
        "contract": "contracts/strategies/AaveBasicStrategy.sol:AaveBasicStrategy",
        "label": "aaveAddress",
        "offset": 0,
        "slot": "5",
        "type": "t_address"
      },
      {
        "astId": 2808,
        "contract": "contracts/strategies/AaveBasicStrategy.sol:AaveBasicStrategy",
        "label": "aaveRewardsAddress",
        "offset": 0,
        "slot": "6",
        "type": "t_address"
      },
      {
        "astId": 2810,
        "contract": "contracts/strategies/AaveBasicStrategy.sol:AaveBasicStrategy",
        "label": "uniswapAddress",
        "offset": 0,
        "slot": "7",
        "type": "t_address"
      },
      {
        "astId": 2812,
        "contract": "contracts/strategies/AaveBasicStrategy.sol:AaveBasicStrategy",
        "label": "uniswapQuoterAddress",
        "offset": 0,
        "slot": "8",
        "type": "t_address"
      },
      {
        "astId": 2814,
        "contract": "contracts/strategies/AaveBasicStrategy.sol:AaveBasicStrategy",
        "label": "uniswapFees",
        "offset": 20,
        "slot": "8",
        "type": "t_uint24"
      },
      {
        "astId": 2816,
        "contract": "contracts/strategies/AaveBasicStrategy.sol:AaveBasicStrategy",
        "label": "chainlinkAddressTokenA",
        "offset": 0,
        "slot": "9",
        "type": "t_address"
      },
      {
        "astId": 2818,
        "contract": "contracts/strategies/AaveBasicStrategy.sol:AaveBasicStrategy",
        "label": "chainlinkAddressTokenB",
        "offset": 0,
        "slot": "10",
        "type": "t_address"
      },
      {
        "astId": 2820,
        "contract": "contracts/strategies/AaveBasicStrategy.sol:AaveBasicStrategy",
        "label": "isChainlinkWorking",
        "offset": 20,
        "slot": "10",
        "type": "t_bool"
      },
      {
        "astId": 2823,
        "contract": "contracts/strategies/AaveBasicStrategy.sol:AaveBasicStrategy",
        "label": "aave",
        "offset": 0,
        "slot": "11",
        "type": "t_contract(IPool)636"
      },
      {
        "astId": 2826,
        "contract": "contracts/strategies/AaveBasicStrategy.sol:AaveBasicStrategy",
        "label": "uniswap",
        "offset": 0,
        "slot": "12",
        "type": "t_contract(ISwapRouter)2783"
      },
      {
        "astId": 2829,
        "contract": "contracts/strategies/AaveBasicStrategy.sol:AaveBasicStrategy",
        "label": "uniswapQuoter",
        "offset": 0,
        "slot": "13",
        "type": "t_contract(IQuoter)2683"
      },
      {
        "astId": 2832,
        "contract": "contracts/strategies/AaveBasicStrategy.sol:AaveBasicStrategy",
        "label": "aaveRewards",
        "offset": 0,
        "slot": "14",
        "type": "t_contract(IRewardsController)1454"
      },
      {
        "astId": 2835,
        "contract": "contracts/strategies/AaveBasicStrategy.sol:AaveBasicStrategy",
        "label": "chainlinkTokenA",
        "offset": 0,
        "slot": "15",
        "type": "t_contract(AggregatorV3Interface)1788"
      },
      {
        "astId": 2838,
        "contract": "contracts/strategies/AaveBasicStrategy.sol:AaveBasicStrategy",
        "label": "chainlinkTokenB",
        "offset": 0,
        "slot": "16",
        "type": "t_contract(AggregatorV3Interface)1788"
      },
      {
        "astId": 2842,
        "contract": "contracts/strategies/AaveBasicStrategy.sol:AaveBasicStrategy",
        "label": "totalBalance",
        "offset": 0,
        "slot": "17",
        "type": "t_uint256"
      },
      {
        "astId": 2846,
        "contract": "contracts/strategies/AaveBasicStrategy.sol:AaveBasicStrategy",
        "label": "userBalances",
        "offset": 0,
        "slot": "18",
        "type": "t_mapping(t_address,t_uint256)"
      },
      {
        "astId": 4472,
        "contract": "contracts/strategies/AaveBasicStrategy.sol:AaveBasicStrategy",
        "label": "calculatedHealthFactor",
        "offset": 0,
        "slot": "19",
        "type": "t_uint256"
      },
      {
        "astId": 4474,
        "contract": "contracts/strategies/AaveBasicStrategy.sol:AaveBasicStrategy",
        "label": "healthFactor",
        "offset": 0,
        "slot": "20",
        "type": "t_uint256"
      },
      {
        "astId": 4476,
        "contract": "contracts/strategies/AaveBasicStrategy.sol:AaveBasicStrategy",
        "label": "_totalCollateralBase",
        "offset": 0,
        "slot": "21",
        "type": "t_uint256"
      },
      {
        "astId": 4478,
        "contract": "contracts/strategies/AaveBasicStrategy.sol:AaveBasicStrategy",
        "label": "_totalDebtBase",
        "offset": 0,
        "slot": "22",
        "type": "t_uint256"
      },
      {
        "astId": 4480,
        "contract": "contracts/strategies/AaveBasicStrategy.sol:AaveBasicStrategy",
        "label": "_availableBorrowsBase",
        "offset": 0,
        "slot": "23",
        "type": "t_uint256"
      },
      {
        "astId": 4482,
        "contract": "contracts/strategies/AaveBasicStrategy.sol:AaveBasicStrategy",
        "label": "_currentLiquidationThreshold",
        "offset": 0,
        "slot": "24",
        "type": "t_uint256"
      },
      {
        "astId": 4484,
        "contract": "contracts/strategies/AaveBasicStrategy.sol:AaveBasicStrategy",
        "label": "futureHealthFactor",
        "offset": 0,
        "slot": "25",
        "type": "t_uint256"
      }
    ],
    "types": {
      "t_address": {
        "encoding": "inplace",
        "label": "address",
        "numberOfBytes": "20"
      },
      "t_bool": {
        "encoding": "inplace",
        "label": "bool",
        "numberOfBytes": "1"
      },
      "t_contract(AggregatorV3Interface)1788": {
        "encoding": "inplace",
        "label": "contract AggregatorV3Interface",
        "numberOfBytes": "20"
      },
      "t_contract(IPool)636": {
        "encoding": "inplace",
        "label": "contract IPool",
        "numberOfBytes": "20"
      },
      "t_contract(IQuoter)2683": {
        "encoding": "inplace",
        "label": "contract IQuoter",
        "numberOfBytes": "20"
      },
      "t_contract(IRewardsController)1454": {
        "encoding": "inplace",
        "label": "contract IRewardsController",
        "numberOfBytes": "20"
      },
      "t_contract(ISwapRouter)2783": {
        "encoding": "inplace",
        "label": "contract ISwapRouter",
        "numberOfBytes": "20"
      },
      "t_mapping(t_address,t_uint256)": {
        "encoding": "mapping",
        "key": "t_address",
        "label": "mapping(address => uint256)",
        "numberOfBytes": "32",
        "value": "t_uint256"
      },
      "t_uint24": {
        "encoding": "inplace",
        "label": "uint24",
        "numberOfBytes": "3"
      },
      "t_uint256": {
        "encoding": "inplace",
        "label": "uint256",
        "numberOfBytes": "32"
      }
    }
  }
}