{
  "address": "0x46494D43a18da104CA41c5816FD05CDeD04eAfB4",
  "abi": [
    {
      "inputs": [
        {
          "internalType": "address",
          "name": "_tokenAddress",
          "type": "address"
        },
        {
          "internalType": "address",
          "name": "_tokenToBorrow",
          "type": "address"
        },
        {
          "internalType": "address",
          "name": "_aaveAddress",
          "type": "address"
        },
        {
          "internalType": "address",
          "name": "_aaveRewardsAddress",
          "type": "address"
        },
        {
          "internalType": "address",
          "name": "_uniswapAddress",
          "type": "address"
        },
        {
          "internalType": "address",
          "name": "_uniswapQuoterAddress",
          "type": "address"
        }
      ],
      "stateMutability": "nonpayable",
      "type": "constructor"
    },
    {
      "anonymous": false,
      "inputs": [
        {
          "indexed": true,
          "internalType": "address",
          "name": "previousOwner",
          "type": "address"
        },
        {
          "indexed": true,
          "internalType": "address",
          "name": "newOwner",
          "type": "address"
        }
      ],
      "name": "OwnershipTransferred",
      "type": "event"
    },
    {
      "inputs": [],
      "name": "_availableBorrowsBase",
      "outputs": [
        {
          "internalType": "uint256",
          "name": "",
          "type": "uint256"
        }
      ],
      "stateMutability": "view",
      "type": "function"
    },
    {
      "inputs": [],
      "name": "_currentLiquidationThreshold",
      "outputs": [
        {
          "internalType": "uint256",
          "name": "",
          "type": "uint256"
        }
      ],
      "stateMutability": "view",
      "type": "function"
    },
    {
      "inputs": [
        {
          "internalType": "address",
          "name": "tokenToSwap",
          "type": "address"
        },
        {
          "internalType": "address",
          "name": "tokenToGet",
          "type": "address"
        },
        {
          "internalType": "uint256",
          "name": "amount",
          "type": "uint256"
        },
        {
          "internalType": "uint24",
          "name": "fees",
          "type": "uint24"
        },
        {
          "internalType": "bool",
          "name": "isInput",
          "type": "bool"
        }
      ],
      "name": "_swapOnUniswap",
      "outputs": [
        {
          "internalType": "uint256",
          "name": "",
          "type": "uint256"
        }
      ],
      "stateMutability": "nonpayable",
      "type": "function"
    },
    {
      "inputs": [],
      "name": "_totalCollateralBase",
      "outputs": [
        {
          "internalType": "uint256",
          "name": "",
          "type": "uint256"
        }
      ],
      "stateMutability": "view",
      "type": "function"
    },
    {
      "inputs": [],
      "name": "_totalDebtBase",
      "outputs": [
        {
          "internalType": "uint256",
          "name": "",
          "type": "uint256"
        }
      ],
      "stateMutability": "view",
      "type": "function"
    },
    {
      "inputs": [],
      "name": "calculatedHealthFactor",
      "outputs": [
        {
          "internalType": "uint256",
          "name": "",
          "type": "uint256"
        }
      ],
      "stateMutability": "view",
      "type": "function"
    },
    {
      "inputs": [
        {
          "internalType": "address",
          "name": "_tokenAddress",
          "type": "address"
        },
        {
          "internalType": "address",
          "name": "userAddress",
          "type": "address"
        },
        {
          "internalType": "uint256",
          "name": "amount",
          "type": "uint256"
        }
      ],
      "name": "enterStrategy",
      "outputs": [],
      "stateMutability": "payable",
      "type": "function"
    },
    {
      "inputs": [
        {
          "internalType": "address",
          "name": "userAddress",
          "type": "address"
        },
        {
          "internalType": "uint256",
          "name": "amount",
          "type": "uint256"
        }
      ],
      "name": "exitStrategy",
      "outputs": [],
      "stateMutability": "nonpayable",
      "type": "function"
    },
    {
      "inputs": [],
      "name": "futureHealthFactor",
      "outputs": [
        {
          "internalType": "uint256",
          "name": "",
          "type": "uint256"
        }
      ],
      "stateMutability": "view",
      "type": "function"
    },
    {
      "inputs": [],
      "name": "getAToken",
      "outputs": [
        {
          "internalType": "address",
          "name": "",
          "type": "address"
        }
      ],
      "stateMutability": "view",
      "type": "function"
    },
    {
      "inputs": [],
      "name": "getAaveAddress",
      "outputs": [
        {
          "internalType": "address",
          "name": "",
          "type": "address"
        }
      ],
      "stateMutability": "view",
      "type": "function"
    },
    {
      "inputs": [],
      "name": "getAaveRewardsAddress",
      "outputs": [
        {
          "internalType": "address",
          "name": "",
          "type": "address"
        }
      ],
      "stateMutability": "view",
      "type": "function"
    },
    {
      "inputs": [],
      "name": "getDebtToken",
      "outputs": [
        {
          "internalType": "address",
          "name": "",
          "type": "address"
        }
      ],
      "stateMutability": "view",
      "type": "function"
    },
    {
      "inputs": [
        {
          "internalType": "uint256",
          "name": "addToBorrow",
          "type": "uint256"
        }
      ],
      "name": "getHealthFactor",
      "outputs": [
        {
          "internalType": "uint256",
          "name": "",
          "type": "uint256"
        },
        {
          "internalType": "uint256",
          "name": "",
          "type": "uint256"
        },
        {
          "internalType": "uint256",
          "name": "",
          "type": "uint256"
        }
      ],
      "stateMutability": "nonpayable",
      "type": "function"
    },
    {
      "inputs": [],
      "name": "getPureStrategyBalanceOnAave",
      "outputs": [
        {
          "internalType": "uint256",
          "name": "",
          "type": "uint256"
        }
      ],
      "stateMutability": "nonpayable",
      "type": "function"
    },
    {
      "inputs": [],
      "name": "getStrategyATokenBalance",
      "outputs": [
        {
          "internalType": "uint256",
          "name": "",
          "type": "uint256"
        }
      ],
      "stateMutability": "view",
      "type": "function"
    },
    {
      "inputs": [],
      "name": "getStrategyBalanceOutOfAave",
      "outputs": [
        {
          "internalType": "uint256",
          "name": "",
          "type": "uint256"
        }
      ],
      "stateMutability": "view",
      "type": "function"
    },
    {
      "inputs": [],
      "name": "getStrategyDebtTokenBalance",
      "outputs": [
        {
          "internalType": "uint256",
          "name": "",
          "type": "uint256"
        }
      ],
      "stateMutability": "view",
      "type": "function"
    },
    {
      "inputs": [],
      "name": "getTokenToBorrow",
      "outputs": [
        {
          "internalType": "address",
          "name": "",
          "type": "address"
        }
      ],
      "stateMutability": "view",
      "type": "function"
    },
    {
      "inputs": [],
      "name": "getTokenToDeposit",
      "outputs": [
        {
          "internalType": "address",
          "name": "",
          "type": "address"
        }
      ],
      "stateMutability": "view",
      "type": "function"
    },
    {
      "inputs": [],
      "name": "getTotalStrategyBalance",
      "outputs": [
        {
          "internalType": "uint256",
          "name": "",
          "type": "uint256"
        }
      ],
      "stateMutability": "nonpayable",
      "type": "function"
    },
    {
      "inputs": [],
      "name": "getUniswapAddress",
      "outputs": [
        {
          "internalType": "address",
          "name": "",
          "type": "address"
        }
      ],
      "stateMutability": "view",
      "type": "function"
    },
    {
      "inputs": [],
      "name": "getUniswapQuoterAddress",
      "outputs": [
        {
          "internalType": "address",
          "name": "",
          "type": "address"
        }
      ],
      "stateMutability": "view",
      "type": "function"
    },
    {
      "inputs": [
        {
          "internalType": "address",
          "name": "userAddress",
          "type": "address"
        }
      ],
      "name": "getUserBalance",
      "outputs": [
        {
          "internalType": "uint256",
          "name": "",
          "type": "uint256"
        }
      ],
      "stateMutability": "nonpayable",
      "type": "function"
    },
    {
      "inputs": [],
      "name": "healthFactor",
      "outputs": [
        {
          "internalType": "uint256",
          "name": "",
          "type": "uint256"
        }
      ],
      "stateMutability": "view",
      "type": "function"
    },
    {
      "inputs": [],
      "name": "owner",
      "outputs": [
        {
          "internalType": "address",
          "name": "",
          "type": "address"
        }
      ],
      "stateMutability": "view",
      "type": "function"
    },
    {
      "inputs": [],
      "name": "recolt",
      "outputs": [],
      "stateMutability": "nonpayable",
      "type": "function"
    },
    {
      "inputs": [],
      "name": "renounceOwnership",
      "outputs": [],
      "stateMutability": "nonpayable",
      "type": "function"
    },
    {
      "inputs": [
        {
          "internalType": "address",
          "name": "_aaveAddress",
          "type": "address"
        }
      ],
      "name": "setAaveAddress",
      "outputs": [],
      "stateMutability": "nonpayable",
      "type": "function"
    },
    {
      "inputs": [
        {
          "internalType": "address",
          "name": "_aaveRewardsAddress",
          "type": "address"
        }
      ],
      "name": "setAaveRewardsAddress",
      "outputs": [],
      "stateMutability": "nonpayable",
      "type": "function"
    },
    {
      "inputs": [
        {
          "internalType": "address",
          "name": "newTokenAddress",
          "type": "address"
        }
      ],
      "name": "setTokenToBorrow",
      "outputs": [],
      "stateMutability": "nonpayable",
      "type": "function"
    },
    {
      "inputs": [
        {
          "internalType": "address",
          "name": "newTokenAddress",
          "type": "address"
        }
      ],
      "name": "setTokenToDeposit",
      "outputs": [],
      "stateMutability": "nonpayable",
      "type": "function"
    },
    {
      "inputs": [
        {
          "internalType": "address",
          "name": "_uniswapAddress",
          "type": "address"
        }
      ],
      "name": "setUniswapAddress",
      "outputs": [],
      "stateMutability": "nonpayable",
      "type": "function"
    },
    {
      "inputs": [
        {
          "internalType": "address",
          "name": "_uniswapQuoterAddress",
          "type": "address"
        }
      ],
      "name": "setUniswapQuoterAddress",
      "outputs": [],
      "stateMutability": "nonpayable",
      "type": "function"
    },
    {
      "inputs": [
        {
          "internalType": "address",
          "name": "newOwner",
          "type": "address"
        }
      ],
      "name": "transferOwnership",
      "outputs": [],
      "stateMutability": "nonpayable",
      "type": "function"
    },
    {
      "inputs": [
        {
          "internalType": "address",
          "name": "_tokenAddress",
          "type": "address"
        }
      ],
      "name": "withdraw",
      "outputs": [],
      "stateMutability": "nonpayable",
      "type": "function"
    }
  ],
  "transactionHash": "0x03eea77904dca475139606711fdb7a80d6ba1332b0e2dbb1af439c1235a98625",
  "args": [
    "0xA2025B15a1757311bfD68cb14eaeFCc237AF5b43",
    "0xA2025B15a1757311bfD68cb14eaeFCc237AF5b43",
    "0x368EedF3f56ad10b9bC57eed4Dac65B26Bb667f6",
    "0x0eC5F4cD22a4EEF3fdC63a31c5b6A2418D429193",
    "0xE592427A0AEce92De3Edee1F18E0157C05861564",
    "0xb27308f9F90D607463bb33eA1BeBb41C27CE5AB6"
  ],
  "numDeployments": 1,
  "solcInputHash": "9ed2ff09fc66dbfab7a61c1a716912c4",
  "bytecode": "0x60a06040523480156200001157600080fd5b50604051620050a6380380620050a68339818101604052810190620000379190620008de565b620000576200004b6200079e60201b60201c565b620007a660201b60201c565b85600160006101000a81548173ffffffffffffffffffffffffffffffffffffffff021916908373ffffffffffffffffffffffffffffffffffffffff16021790555084600260006101000a81548173ffffffffffffffffffffffffffffffffffffffff021916908373ffffffffffffffffffffffffffffffffffffffff16021790555083600560006101000a81548173ffffffffffffffffffffffffffffffffffffffff021916908373ffffffffffffffffffffffffffffffffffffffff16021790555083600960006101000a81548173ffffffffffffffffffffffffffffffffffffffff021916908373ffffffffffffffffffffffffffffffffffffffff16021790555082600660006101000a81548173ffffffffffffffffffffffffffffffffffffffff021916908373ffffffffffffffffffffffffffffffffffffffff16021790555082600c60006101000a81548173ffffffffffffffffffffffffffffffffffffffff021916908373ffffffffffffffffffffffffffffffffffffffff16021790555081600760006101000a81548173ffffffffffffffffffffffffffffffffffffffff021916908373ffffffffffffffffffffffffffffffffffffffff16021790555081600a60006101000a81548173ffffffffffffffffffffffffffffffffffffffff021916908373ffffffffffffffffffffffffffffffffffffffff16021790555080600860006101000a81548173ffffffffffffffffffffffffffffffffffffffff021916908373ffffffffffffffffffffffffffffffffffffffff16021790555080600b60006101000a81548173ffffffffffffffffffffffffffffffffffffffff021916908373ffffffffffffffffffffffffffffffffffffffff1602179055506000600260009054906101000a900473ffffffffffffffffffffffffffffffffffffffff1673ffffffffffffffffffffffffffffffffffffffff16600160009054906101000a900473ffffffffffffffffffffffffffffffffffffffff1673ffffffffffffffffffffffffffffffffffffffff16141562000475576000600960009054906101000a900473ffffffffffffffffffffffffffffffffffffffff1673ffffffffffffffffffffffffffffffffffffffff166335ea6a75600160009054906101000a900473ffffffffffffffffffffffffffffffffffffffff166040518263ffffffff1660e01b8152600401620003dd91906200098b565b6101e060405180830381865afa158015620003fc573d6000803e3d6000fd5b505050506040513d601f19601f8201168201806040525081019062000422919062000d15565b9050806101000151600360006101000a81548173ffffffffffffffffffffffffffffffffffffffff021916908373ffffffffffffffffffffffffffffffffffffffff160217905550600191505062000789565b6000600960009054906101000a900473ffffffffffffffffffffffffffffffffffffffff1673ffffffffffffffffffffffffffffffffffffffff166335ea6a75600160009054906101000a900473ffffffffffffffffffffffffffffffffffffffff166040518263ffffffff1660e01b8152600401620004f691906200098b565b6101e060405180830381865afa15801562000515573d6000803e3d6000fd5b505050506040513d601f19601f820116820180604052508101906200053b919062000d15565b9050806101000151600360006101000a81548173ffffffffffffffffffffffffffffffffffffffff021916908373ffffffffffffffffffffffffffffffffffffffff1602179055506000600960009054906101000a900473ffffffffffffffffffffffffffffffffffffffff1673ffffffffffffffffffffffffffffffffffffffff166335ea6a75600260009054906101000a900473ffffffffffffffffffffffffffffffffffffffff166040518263ffffffff1660e01b81526004016200060491906200098b565b6101e060405180830381865afa15801562000623573d6000803e3d6000fd5b505050506040513d601f19601f8201168201806040525081019062000649919062000d15565b9050806101400151600460006101000a81548173ffffffffffffffffffffffffffffffffffffffff021916908373ffffffffffffffffffffffffffffffffffffffff160217905550600b60009054906101000a900473ffffffffffffffffffffffffffffffffffffffff1673ffffffffffffffffffffffffffffffffffffffff1663f7729d43600160009054906101000a900473ffffffffffffffffffffffffffffffffffffffff16600260009054906101000a900473ffffffffffffffffffffffffffffffffffffffff16610bb8600160006040518663ffffffff1660e01b81526004016200073e95949392919062000e2a565b6020604051808303816000875af11580156200075e573d6000803e3d6000fd5b505050506040513d601f19601f8201168201806040525081019062000784919062000e87565b925050505b80608081815250505050505050505062000eb9565b600033905090565b60008060009054906101000a900473ffffffffffffffffffffffffffffffffffffffff169050816000806101000a81548173ffffffffffffffffffffffffffffffffffffffff021916908373ffffffffffffffffffffffffffffffffffffffff1602179055508173ffffffffffffffffffffffffffffffffffffffff168173ffffffffffffffffffffffffffffffffffffffff167f8be0079c531659141344cd1fd0a4f28419497f9722a3daafe3b4186f6b6457e060405160405180910390a35050565b6000604051905090565b600080fd5b600073ffffffffffffffffffffffffffffffffffffffff82169050919050565b6000620008a68262000879565b9050919050565b620008b88162000899565b8114620008c457600080fd5b50565b600081519050620008d881620008ad565b92915050565b60008060008060008060c08789031215620008fe57620008fd62000874565b5b60006200090e89828a01620008c7565b96505060206200092189828a01620008c7565b95505060406200093489828a01620008c7565b94505060606200094789828a01620008c7565b93505060806200095a89828a01620008c7565b92505060a06200096d89828a01620008c7565b9150509295509295509295565b620009858162000899565b82525050565b6000602082019050620009a260008301846200097a565b92915050565b600080fd5b6000601f19601f8301169050919050565b7f4e487b7100000000000000000000000000000000000000000000000000000000600052604160045260246000fd5b620009f882620009ad565b810181811067ffffffffffffffff8211171562000a1a5762000a19620009be565b5b80604052505050565b600062000a2f6200086a565b905062000a3d8282620009ed565b919050565b6000819050919050565b62000a578162000a42565b811462000a6357600080fd5b50565b60008151905062000a778162000a4c565b92915050565b60006020828403121562000a965762000a95620009a8565b5b62000aa2602062000a23565b9050600062000ab48482850162000a66565b60008301525092915050565b60006fffffffffffffffffffffffffffffffff82169050919050565b62000ae78162000ac0565b811462000af357600080fd5b50565b60008151905062000b078162000adc565b92915050565b600064ffffffffff82169050919050565b62000b298162000b0d565b811462000b3557600080fd5b50565b60008151905062000b498162000b1e565b92915050565b600061ffff82169050919050565b62000b688162000b4f565b811462000b7457600080fd5b50565b60008151905062000b888162000b5d565b92915050565b60006101e0828403121562000ba85762000ba7620009a8565b5b62000bb56101e062000a23565b9050600062000bc78482850162000a7d565b600083015250602062000bdd8482850162000af6565b602083015250604062000bf38482850162000af6565b604083015250606062000c098482850162000af6565b606083015250608062000c1f8482850162000af6565b60808301525060a062000c358482850162000af6565b60a08301525060c062000c4b8482850162000b38565b60c08301525060e062000c618482850162000b77565b60e08301525061010062000c7884828501620008c7565b6101008301525061012062000c9084828501620008c7565b6101208301525061014062000ca884828501620008c7565b6101408301525061016062000cc084828501620008c7565b6101608301525061018062000cd88482850162000af6565b610180830152506101a062000cf08482850162000af6565b6101a0830152506101c062000d088482850162000af6565b6101c08301525092915050565b60006101e0828403121562000d2f5762000d2e62000874565b5b600062000d3f8482850162000b8e565b91505092915050565b6000819050919050565b600062ffffff82169050919050565b6000819050919050565b600062000d8c62000d8662000d808462000d48565b62000d61565b62000d52565b9050919050565b62000d9e8162000d6b565b82525050565b6000819050919050565b600062000dcf62000dc962000dc38462000da4565b62000d61565b62000a42565b9050919050565b62000de18162000dae565b82525050565b6000819050919050565b600062000e1262000e0c62000e068462000de7565b62000d61565b62000879565b9050919050565b62000e248162000df1565b82525050565b600060a08201905062000e4160008301886200097a565b62000e5060208301876200097a565b62000e5f604083018662000d93565b62000e6e606083018562000dd6565b62000e7d608083018462000e19565b9695505050505050565b60006020828403121562000ea05762000e9f62000874565b5b600062000eb08482850162000a66565b91505092915050565b6080516141bc62000eea600039600081816112a6015281816112c701528181611a080152611a2901526141bc6000f3fe60806040526004361061020f5760003560e01c806384c7dae611610118578063b6366d8d116100a0578063cafd617e1161006f578063cafd617e1461072c578063dc77b9ee14610757578063f10785b214610780578063f2fde38b146107bd578063faaf3e00146107e65761020f565b8063b6366d8d14610691578063b8837f00146106ba578063bea1805b146106d6578063c3bb0224146107015761020f565b806390693253116100e757806390693253146105bc578063afed6190146105e7578063b1035aa414610612578063b29c55bc1461063b578063b5a3298d146106665761020f565b806384c7dae6146105145780638748be0a1461053d5780638a7f4922146105665780638da5cb5b146105915761020f565b8063501b09451161019b5780636eb7fd6c1161016a5780636eb7fd6c14610453578063715018a61461047e578063742128a8146104955780637884e7c6146104c05780637c74a8d3146104e95761020f565b8063501b0945146103a957806351cff8d9146103d45780636835427e146103fd5780636dad4b35146104285761020f565b806322841f01116101e257806322841f01146102d45780633889f2d6146102ff57806340a950a61461031657806347734892146103415780634e47c85f1461037e5761020f565b806317845c6914610214578063182c6f991461025357806318b1e2421461027e5780631d4cdafa146102a9575b600080fd5b34801561022057600080fd5b5061023b60048036038101906102369190612e97565b61080f565b60405161024a93929190612ed3565b60405180910390f35b34801561025f57600080fd5b50610268610954565b6040516102759190612f0a565b60405180910390f35b34801561028a57600080fd5b506102936109fc565b6040516102a09190612f0a565b60405180910390f35b3480156102b557600080fd5b506102be610b38565b6040516102cb9190612f66565b60405180910390f35b3480156102e057600080fd5b506102e9610b62565b6040516102f69190612f0a565b60405180910390f35b34801561030b57600080fd5b50610314610b68565b005b34801561032257600080fd5b5061032b610d40565b6040516103389190612f0a565b60405180910390f35b34801561034d57600080fd5b5061036860048036038101906103639190612fad565b610de8565b6040516103759190612f0a565b60405180910390f35b34801561038a57600080fd5b50610393610eb3565b6040516103a09190612f66565b60405180910390f35b3480156103b557600080fd5b506103be610edd565b6040516103cb9190612f0a565b60405180910390f35b3480156103e057600080fd5b506103fb60048036038101906103f69190612fad565b610ee3565b005b34801561040957600080fd5b50610412610fe4565b60405161041f9190612f0a565b60405180910390f35b34801561043457600080fd5b5061043d61108c565b60405161044a9190612f66565b60405180910390f35b34801561045f57600080fd5b506104686110b6565b6040516104759190612f0a565b60405180910390f35b34801561048a57600080fd5b506104936110bc565b005b3480156104a157600080fd5b506104aa6110d0565b6040516104b79190612f66565b60405180910390f35b3480156104cc57600080fd5b506104e760048036038101906104e29190612fad565b6110fa565b005b3480156104f557600080fd5b506104fe6111f7565b60405161050b9190612f0a565b60405180910390f35b34801561052057600080fd5b5061053b60048036038101906105369190612fda565b6111fd565b005b34801561054957600080fd5b50610564600480360381019061055f9190612fad565b6114be565b005b34801561057257600080fd5b5061057b6115bb565b6040516105889190612f66565b60405180910390f35b34801561059d57600080fd5b506105a66115e5565b6040516105b39190612f66565b60405180910390f35b3480156105c857600080fd5b506105d161160e565b6040516105de9190612f66565b60405180910390f35b3480156105f357600080fd5b506105fc611638565b6040516106099190612f0a565b60405180910390f35b34801561061e57600080fd5b5061063960048036038101906106349190612fad565b61163e565b005b34801561064757600080fd5b5061065061173b565b60405161065d9190612f66565b60405180910390f35b34801561067257600080fd5b5061067b611765565b6040516106889190612f0a565b60405180910390f35b34801561069d57600080fd5b506106b860048036038101906106b39190612fad565b61178b565b005b6106d460048036038101906106cf919061301a565b611888565b005b3480156106e257600080fd5b506106eb611c23565b6040516106f89190612f66565b60405180910390f35b34801561070d57600080fd5b50610716611c4d565b6040516107239190612f0a565b60405180910390f35b34801561073857600080fd5b50610741611c53565b60405161074e9190612f0a565b60405180910390f35b34801561076357600080fd5b5061077e60048036038101906107799190612fad565b611c59565b005b34801561078c57600080fd5b506107a760048036038101906107a291906130e0565b611e1f565b6040516107b49190612f0a565b60405180910390f35b3480156107c957600080fd5b506107e460048036038101906107df9190612fad565b612169565b005b3480156107f257600080fd5b5061080d60048036038101906108089190612fad565b6121ed565b005b600080600080600080600080600960009054906101000a900473ffffffffffffffffffffffffffffffffffffffff1673ffffffffffffffffffffffffffffffffffffffff1663bf92857c306040518263ffffffff1660e01b81526004016108769190612f66565b60c060405180830381865afa158015610893573d6000803e3d6000fd5b505050506040513d601f19601f820116820180604052508101906108b79190613170565b9550509450945094509450806010819055508382866108d6919061322c565b6108e091906132b5565b600f8190555060006015819055508460118190555083601281905550826013819055508160148190555080600f54141561093d57888461092091906132e6565b828661092c919061322c565b61093691906132b5565b6015819055505b808360155497509750975050505050509193909250565b600080600160009054906101000a900473ffffffffffffffffffffffffffffffffffffffff1690508073ffffffffffffffffffffffffffffffffffffffff166370a08231306040518263ffffffff1660e01b81526004016109b59190612f66565b602060405180830381865afa1580156109d2573d6000803e3d6000fd5b505050506040513d601f19601f820116820180604052508101906109f6919061333c565b91505090565b600080600080600260009054906101000a900473ffffffffffffffffffffffffffffffffffffffff1673ffffffffffffffffffffffffffffffffffffffff16600160009054906101000a900473ffffffffffffffffffffffffffffffffffffffff1673ffffffffffffffffffffffffffffffffffffffff161415610aa157610a82610d40565b9150610a8c610fe4565b90508082610a9a9190613369565b9250610b2f565b610aa9610d40565b9150610ab3610fe4565b9050600080821415610ac85760009050610b1f565b610b1c600360009054906101000a900473ffffffffffffffffffffffffffffffffffffffff16600460009054906101000a900473ffffffffffffffffffffffffffffffffffffffff1684610bb860006123b3565b90505b8083610b2b9190613369565b9350505b82935050505090565b6000600460009054906101000a900473ffffffffffffffffffffffffffffffffffffffff16905090565b60105481565b6000600267ffffffffffffffff811115610b8557610b8461339d565b5b604051908082528060200260200182016040528015610bb35781602001602082028036833780820191505090505b509050600360009054906101000a900473ffffffffffffffffffffffffffffffffffffffff1681600081518110610bed57610bec6133cc565b5b602002602001019073ffffffffffffffffffffffffffffffffffffffff16908173ffffffffffffffffffffffffffffffffffffffff1681525050600460009054906101000a900473ffffffffffffffffffffffffffffffffffffffff1681600181518110610c5e57610c5d6133cc565b5b602002602001019073ffffffffffffffffffffffffffffffffffffffff16908173ffffffffffffffffffffffffffffffffffffffff1681525050600c60009054906101000a900473ffffffffffffffffffffffffffffffffffffffff1673ffffffffffffffffffffffffffffffffffffffff1663bf90f63a826040518263ffffffff1660e01b8152600401610cf391906134b9565b6000604051808303816000875af1158015610d12573d6000803e3d6000fd5b505050506040513d6000823e3d601f19601f82011682018060405250810190610d3b91906136dd565b505050565b600080600360009054906101000a900473ffffffffffffffffffffffffffffffffffffffff1690508073ffffffffffffffffffffffffffffffffffffffff166370a08231306040518263ffffffff1660e01b8152600401610da19190612f66565b602060405180830381865afa158015610dbe573d6000803e3d6000fd5b505050506040513d601f19601f82011682018060405250810190610de2919061333c565b91505090565b6000806000600e60008573ffffffffffffffffffffffffffffffffffffffff1673ffffffffffffffffffffffffffffffffffffffff168152602001908152602001600020541415610e3c5760009050610eaa565b6000600d54600e60008673ffffffffffffffffffffffffffffffffffffffff1673ffffffffffffffffffffffffffffffffffffffff16815260200190815260200160002054610e8b91906132b5565b90506000610e97611765565b90508181610ea5919061322c565b925050505b80915050919050565b6000600560009054906101000a900473ffffffffffffffffffffffffffffffffffffffff16905090565b600f5481565b60008190508073ffffffffffffffffffffffffffffffffffffffff1663a9059cbb338373ffffffffffffffffffffffffffffffffffffffff166370a08231306040518263ffffffff1660e01b8152600401610f3e9190612f66565b602060405180830381865afa158015610f5b573d6000803e3d6000fd5b505050506040513d601f19601f82011682018060405250810190610f7f919061333c565b6040518363ffffffff1660e01b8152600401610f9c929190613755565b6020604051808303816000875af1158015610fbb573d6000803e3d6000fd5b505050506040513d601f19601f82011682018060405250810190610fdf9190613793565b505050565b600080600460009054906101000a900473ffffffffffffffffffffffffffffffffffffffff1690508073ffffffffffffffffffffffffffffffffffffffff166370a08231306040518263ffffffff1660e01b81526004016110459190612f66565b602060405180830381865afa158015611062573d6000803e3d6000fd5b505050506040513d601f19601f82011682018060405250810190611086919061333c565b91505090565b6000600260009054906101000a900473ffffffffffffffffffffffffffffffffffffffff16905090565b60125481565b6110c46125a3565b6110ce6000612621565b565b6000600160009054906101000a900473ffffffffffffffffffffffffffffffffffffffff16905090565b6111026125a3565b600073ffffffffffffffffffffffffffffffffffffffff168173ffffffffffffffffffffffffffffffffffffffff161415611172576040517f08c379a00000000000000000000000000000000000000000000000000000000081526004016111699061381d565b60405180910390fd5b80600760006101000a81548173ffffffffffffffffffffffffffffffffffffffff021916908373ffffffffffffffffffffffffffffffffffffffff16021790555080600a60006101000a81548173ffffffffffffffffffffffffffffffffffffffff021916908373ffffffffffffffffffffffffffffffffffffffff16021790555050565b60155481565b8061120783610de8565b1015611248576040517f08c379a000000000000000000000000000000000000000000000000000000000815260040161123f906138af565b60405180910390fd5b600061129f600160009054906101000a900473ffffffffffffffffffffffffffffffffffffffff16600260009054906101000a900473ffffffffffffffffffffffffffffffffffffffff166001610bb860016123b3565b90506000817f00000000000000000000000000000000000000000000000000000000000000007f00000000000000000000000000000000000000000000000000000000000000006112f0919061322c565b6112fa91906132b5565b90508281611308919061322c565b600e60008673ffffffffffffffffffffffffffffffffffffffff1673ffffffffffffffffffffffffffffffffffffffff16815260200190815260200160002060008282546113569190613369565b925050819055508281611369919061322c565b600d600082825461137a9190613369565b92505081905550600260009054906101000a900473ffffffffffffffffffffffffffffffffffffffff1673ffffffffffffffffffffffffffffffffffffffff16600160009054906101000a900473ffffffffffffffffffffffffffffffffffffffff1673ffffffffffffffffffffffffffffffffffffffff16141561140757611402836126e5565b611411565b61141083612742565b5b6000600160009054906101000a900473ffffffffffffffffffffffffffffffffffffffff1690508073ffffffffffffffffffffffffffffffffffffffff1663a9059cbb33866040518363ffffffff1660e01b8152600401611473929190613755565b6020604051808303816000875af1158015611492573d6000803e3d6000fd5b505050506040513d601f19601f820116820180604052508101906114b69190613793565b505050505050565b6114c66125a3565b600073ffffffffffffffffffffffffffffffffffffffff168173ffffffffffffffffffffffffffffffffffffffff161415611536576040517f08c379a000000000000000000000000000000000000000000000000000000000815260040161152d9061381d565b60405180910390fd5b80600660006101000a81548173ffffffffffffffffffffffffffffffffffffffff021916908373ffffffffffffffffffffffffffffffffffffffff16021790555080600c60006101000a81548173ffffffffffffffffffffffffffffffffffffffff021916908373ffffffffffffffffffffffffffffffffffffffff16021790555050565b6000600860009054906101000a900473ffffffffffffffffffffffffffffffffffffffff16905090565b60008060009054906101000a900473ffffffffffffffffffffffffffffffffffffffff16905090565b6000600760009054906101000a900473ffffffffffffffffffffffffffffffffffffffff16905090565b60135481565b6116466125a3565b600073ffffffffffffffffffffffffffffffffffffffff168173ffffffffffffffffffffffffffffffffffffffff1614156116b6576040517f08c379a00000000000000000000000000000000000000000000000000000000081526004016116ad9061381d565b60405180910390fd5b80600560006101000a81548173ffffffffffffffffffffffffffffffffffffffff021916908373ffffffffffffffffffffffffffffffffffffffff16021790555080600960006101000a81548173ffffffffffffffffffffffffffffffffffffffff021916908373ffffffffffffffffffffffffffffffffffffffff16021790555050565b6000600360009054906101000a900473ffffffffffffffffffffffffffffffffffffffff16905090565b600080611770610954565b6117786109fc565b61178291906132e6565b90508091505090565b6117936125a3565b600073ffffffffffffffffffffffffffffffffffffffff168173ffffffffffffffffffffffffffffffffffffffff161415611803576040517f08c379a00000000000000000000000000000000000000000000000000000000081526004016117fa9061381d565b60405180910390fd5b80600860006101000a81548173ffffffffffffffffffffffffffffffffffffffff021916908373ffffffffffffffffffffffffffffffffffffffff16021790555080600b60006101000a81548173ffffffffffffffffffffffffffffffffffffffff021916908373ffffffffffffffffffffffffffffffffffffffff16021790555050565b600160009054906101000a900473ffffffffffffffffffffffffffffffffffffffff1673ffffffffffffffffffffffffffffffffffffffff168373ffffffffffffffffffffffffffffffffffffffff1614611918576040517f08c379a000000000000000000000000000000000000000000000000000000000815260040161190f90613941565b60405180910390fd5b600073ffffffffffffffffffffffffffffffffffffffff16600160009054906101000a900473ffffffffffffffffffffffffffffffffffffffff1673ffffffffffffffffffffffffffffffffffffffff1614156119aa576040517f08c379a00000000000000000000000000000000000000000000000000000000081526004016119a1906139d3565b60405180910390fd5b6000611a01600160009054906101000a900473ffffffffffffffffffffffffffffffffffffffff16600260009054906101000a900473ffffffffffffffffffffffffffffffffffffffff166001610bb860016123b3565b90506000817f00000000000000000000000000000000000000000000000000000000000000007f0000000000000000000000000000000000000000000000000000000000000000611a52919061322c565b611a5c91906132b5565b90508281611a6a919061322c565b600e60008673ffffffffffffffffffffffffffffffffffffffff1673ffffffffffffffffffffffffffffffffffffffff1681526020019081526020016000206000828254611ab891906132e6565b925050819055508281611acb919061322c565b600d6000828254611adc91906132e6565b925050819055506000600160009054906101000a900473ffffffffffffffffffffffffffffffffffffffff1690508073ffffffffffffffffffffffffffffffffffffffff166323b872dd3330876040518463ffffffff1660e01b8152600401611b47939291906139f3565b6020604051808303816000875af1158015611b66573d6000803e3d6000fd5b505050506040513d601f19601f82011682018060405250810190611b8a9190613793565b50600260009054906101000a900473ffffffffffffffffffffffffffffffffffffffff1673ffffffffffffffffffffffffffffffffffffffff16600160009054906101000a900473ffffffffffffffffffffffffffffffffffffffff1673ffffffffffffffffffffffffffffffffffffffff161415611c1157611c0c84612824565b611c1b565b611c1a846128cb565b5b505050505050565b6000600660009054906101000a900473ffffffffffffffffffffffffffffffffffffffff16905090565b60115481565b60145481565b611c616125a3565b600073ffffffffffffffffffffffffffffffffffffffff168173ffffffffffffffffffffffffffffffffffffffff161415611cd1576040517f08c379a0000000000000000000000000000000000000000000000000000000008152600401611cc89061381d565b60405180910390fd5b80600160006101000a81548173ffffffffffffffffffffffffffffffffffffffff021916908373ffffffffffffffffffffffffffffffffffffffff1602179055506000600960009054906101000a900473ffffffffffffffffffffffffffffffffffffffff1673ffffffffffffffffffffffffffffffffffffffff166335ea6a75600160009054906101000a900473ffffffffffffffffffffffffffffffffffffffff166040518263ffffffff1660e01b8152600401611d919190612f66565b6101e060405180830381865afa158015611daf573d6000803e3d6000fd5b505050506040513d601f19601f82011682018060405250810190611dd39190613c8e565b9050806101000151600360006101000a81548173ffffffffffffffffffffffffffffffffffffffff021916908373ffffffffffffffffffffffffffffffffffffffff1602179055505050565b60008060008790508073ffffffffffffffffffffffffffffffffffffffff1663095ea7b3600760009054906101000a900473ffffffffffffffffffffffffffffffffffffffff16886040518363ffffffff1660e01b8152600401611e84929190613755565b6020604051808303816000875af1158015611ea3573d6000803e3d6000fd5b505050506040513d601f19601f82011682018060405250810190611ec79190613793565b5083156120115760006040518061010001604052808a73ffffffffffffffffffffffffffffffffffffffff1681526020018973ffffffffffffffffffffffffffffffffffffffff1681526020018762ffffff1681526020013073ffffffffffffffffffffffffffffffffffffffff16815260200142815260200188815260200160008152602001600073ffffffffffffffffffffffffffffffffffffffff168152509050600a60009054906101000a900473ffffffffffffffffffffffffffffffffffffffff1673ffffffffffffffffffffffffffffffffffffffff1663414bf389826040518263ffffffff1660e01b8152600401611fc69190613d8b565b6020604051808303816000875af1158015611fe5573d6000803e3d6000fd5b505050506040513d601f19601f82011682018060405250810190612009919061333c565b92505061215b565b60006040518061010001604052808a73ffffffffffffffffffffffffffffffffffffffff1681526020018973ffffffffffffffffffffffffffffffffffffffff1681526020018762ffffff1681526020013073ffffffffffffffffffffffffffffffffffffffff168152602001428152602001888152602001600289612097919061322c565b8152602001600073ffffffffffffffffffffffffffffffffffffffff168152509050600a60009054906101000a900473ffffffffffffffffffffffffffffffffffffffff1673ffffffffffffffffffffffffffffffffffffffff1663db3e2198826040518263ffffffff1660e01b81526004016121149190613e49565b6020604051808303816000875af1158015612133573d6000803e3d6000fd5b505050506040513d601f19601f82011682018060405250810190612157919061333c565b9250505b819250505095945050505050565b6121716125a3565b600073ffffffffffffffffffffffffffffffffffffffff168173ffffffffffffffffffffffffffffffffffffffff1614156121e1576040517f08c379a00000000000000000000000000000000000000000000000000000000081526004016121d890613ed7565b60405180910390fd5b6121ea81612621565b50565b6121f56125a3565b600073ffffffffffffffffffffffffffffffffffffffff168173ffffffffffffffffffffffffffffffffffffffff161415612265576040517f08c379a000000000000000000000000000000000000000000000000000000000815260040161225c9061381d565b60405180910390fd5b80600260006101000a81548173ffffffffffffffffffffffffffffffffffffffff021916908373ffffffffffffffffffffffffffffffffffffffff1602179055506000600960009054906101000a900473ffffffffffffffffffffffffffffffffffffffff1673ffffffffffffffffffffffffffffffffffffffff166335ea6a75600260009054906101000a900473ffffffffffffffffffffffffffffffffffffffff166040518263ffffffff1660e01b81526004016123259190612f66565b6101e060405180830381865afa158015612343573d6000803e3d6000fd5b505050506040513d601f19601f820116820180604052508101906123679190613c8e565b9050806101400151600460006101000a81548173ffffffffffffffffffffffffffffffffffffffff021916908373ffffffffffffffffffffffffffffffffffffffff1602179055505050565b600080600260009054906101000a900473ffffffffffffffffffffffffffffffffffffffff1673ffffffffffffffffffffffffffffffffffffffff16600160009054906101000a900473ffffffffffffffffffffffffffffffffffffffff1673ffffffffffffffffffffffffffffffffffffffff1614156124375760019050612596565b82156124eb57600b60009054906101000a900473ffffffffffffffffffffffffffffffffffffffff1673ffffffffffffffffffffffffffffffffffffffff1663f7729d438888878960006040518663ffffffff1660e01b81526004016124a1959493929190613f4b565b6020604051808303816000875af11580156124c0573d6000803e3d6000fd5b505050506040513d601f19601f820116820180604052508101906124e4919061333c565b9050612595565b600b60009054906101000a900473ffffffffffffffffffffffffffffffffffffffff1673ffffffffffffffffffffffffffffffffffffffff166330d07f218888878960006040518663ffffffff1660e01b815260040161254f959493929190613f4b565b6020604051808303816000875af115801561256e573d6000803e3d6000fd5b505050506040513d601f19601f82011682018060405250810190612592919061333c565b90505b5b8091505095945050505050565b6125ab6129cb565b73ffffffffffffffffffffffffffffffffffffffff166125c96115e5565b73ffffffffffffffffffffffffffffffffffffffff161461261f576040517f08c379a000000000000000000000000000000000000000000000000000000000815260040161261690613fea565b60405180910390fd5b565b60008060009054906101000a900473ffffffffffffffffffffffffffffffffffffffff169050816000806101000a81548173ffffffffffffffffffffffffffffffffffffffff021916908373ffffffffffffffffffffffffffffffffffffffff1602179055508173ffffffffffffffffffffffffffffffffffffffff168173ffffffffffffffffffffffffffffffffffffffff167f8be0079c531659141344cd1fd0a4f28419497f9722a3daafe3b4186f6b6457e060405160405180910390a35050565b612713600160009054906101000a900473ffffffffffffffffffffffffffffffffffffffff168260026129d3565b61273f600160009054906101000a900473ffffffffffffffffffffffffffffffffffffffff1682612a7b565b50565b61276e600160009054906101000a900473ffffffffffffffffffffffffffffffffffffffff1682612a7b565b60006127c4600160009054906101000a900473ffffffffffffffffffffffffffffffffffffffff16600260009054906101000a900473ffffffffffffffffffffffffffffffffffffffff1684610bb86001611e1f565b90506127f4600260009054906101000a900473ffffffffffffffffffffffffffffffffffffffff16826002612b22565b612820600160009054906101000a900473ffffffffffffffffffffffffffffffffffffffff1682612a7b565b5050565b612850600160009054906101000a900473ffffffffffffffffffffffffffffffffffffffff1682612c73565b60006004600383612861919061322c565b61286b91906132b5565b905061289b600160009054906101000a900473ffffffffffffffffffffffffffffffffffffffff16826002612db2565b6128c7600160009054906101000a900473ffffffffffffffffffffffffffffffffffffffff1682612c73565b5050565b6128f7600160009054906101000a900473ffffffffffffffffffffffffffffffffffffffff1682612c73565b60006004600383612908919061322c565b61291291906132b5565b9050612942600260009054906101000a900473ffffffffffffffffffffffffffffffffffffffff16826002612db2565b6000612998600260009054906101000a900473ffffffffffffffffffffffffffffffffffffffff16600160009054906101000a900473ffffffffffffffffffffffffffffffffffffffff1684610bb86001611e1f565b90506129c6600160009054906101000a900473ffffffffffffffffffffffffffffffffffffffff1682612c73565b505050565b600033905090565b600960009054906101000a900473ffffffffffffffffffffffffffffffffffffffff1673ffffffffffffffffffffffffffffffffffffffff16632dad97d48484846040518463ffffffff1660e01b8152600401612a329392919061400a565b6020604051808303816000875af1158015612a51573d6000803e3d6000fd5b505050506040513d601f19601f82011682018060405250810190612a75919061333c565b50505050565b600960009054906101000a900473ffffffffffffffffffffffffffffffffffffffff1673ffffffffffffffffffffffffffffffffffffffff166369328dec8383306040518463ffffffff1660e01b8152600401612ada93929190614041565b6020604051808303816000875af1158015612af9573d6000803e3d6000fd5b505050506040513d601f19601f82011682018060405250810190612b1d919061333c565b505050565b60008390508073ffffffffffffffffffffffffffffffffffffffff1663095ea7b3600560009054906101000a900473ffffffffffffffffffffffffffffffffffffffff16856040518363ffffffff1660e01b8152600401612b84929190613755565b6020604051808303816000875af1158015612ba3573d6000803e3d6000fd5b505050506040513d601f19601f82011682018060405250810190612bc79190613793565b50600960009054906101000a900473ffffffffffffffffffffffffffffffffffffffff1673ffffffffffffffffffffffffffffffffffffffff1663573ade81858585306040518563ffffffff1660e01b8152600401612c299493929190614078565b6020604051808303816000875af1158015612c48573d6000803e3d6000fd5b505050506040513d601f19601f82011682018060405250810190612c6c919061333c565b5050505050565b60008290508073ffffffffffffffffffffffffffffffffffffffff1663095ea7b3600560009054906101000a900473ffffffffffffffffffffffffffffffffffffffff16846040518363ffffffff1660e01b8152600401612cd5929190613755565b6020604051808303816000875af1158015612cf4573d6000803e3d6000fd5b505050506040513d601f19601f82011682018060405250810190612d189190613793565b50600960009054906101000a900473ffffffffffffffffffffffffffffffffffffffff1673ffffffffffffffffffffffffffffffffffffffff1663617ba03784843060006040518563ffffffff1660e01b8152600401612d7b94939291906140ee565b600060405180830381600087803b158015612d9557600080fd5b505af1158015612da9573d6000803e3d6000fd5b50505050505050565b600960009054906101000a900473ffffffffffffffffffffffffffffffffffffffff1673ffffffffffffffffffffffffffffffffffffffff1663a415bcad8484846000306040518663ffffffff1660e01b8152600401612e16959493929190614133565b600060405180830381600087803b158015612e3057600080fd5b505af1158015612e44573d6000803e3d6000fd5b50505050505050565b6000604051905090565b600080fd5b600080fd5b6000819050919050565b612e7481612e61565b8114612e7f57600080fd5b50565b600081359050612e9181612e6b565b92915050565b600060208284031215612ead57612eac612e57565b5b6000612ebb84828501612e82565b91505092915050565b612ecd81612e61565b82525050565b6000606082019050612ee86000830186612ec4565b612ef56020830185612ec4565b612f026040830184612ec4565b949350505050565b6000602082019050612f1f6000830184612ec4565b92915050565b600073ffffffffffffffffffffffffffffffffffffffff82169050919050565b6000612f5082612f25565b9050919050565b612f6081612f45565b82525050565b6000602082019050612f7b6000830184612f57565b92915050565b612f8a81612f45565b8114612f9557600080fd5b50565b600081359050612fa781612f81565b92915050565b600060208284031215612fc357612fc2612e57565b5b6000612fd184828501612f98565b91505092915050565b60008060408385031215612ff157612ff0612e57565b5b6000612fff85828601612f98565b925050602061301085828601612e82565b9150509250929050565b60008060006060848603121561303357613032612e57565b5b600061304186828701612f98565b935050602061305286828701612f98565b925050604061306386828701612e82565b9150509250925092565b600062ffffff82169050919050565b6130858161306d565b811461309057600080fd5b50565b6000813590506130a28161307c565b92915050565b60008115159050919050565b6130bd816130a8565b81146130c857600080fd5b50565b6000813590506130da816130b4565b92915050565b600080600080600060a086880312156130fc576130fb612e57565b5b600061310a88828901612f98565b955050602061311b88828901612f98565b945050604061312c88828901612e82565b935050606061313d88828901613093565b925050608061314e888289016130cb565b9150509295509295909350565b60008151905061316a81612e6b565b92915050565b60008060008060008060c0878903121561318d5761318c612e57565b5b600061319b89828a0161315b565b96505060206131ac89828a0161315b565b95505060406131bd89828a0161315b565b94505060606131ce89828a0161315b565b93505060806131df89828a0161315b565b92505060a06131f089828a0161315b565b9150509295509295509295565b7f4e487b7100000000000000000000000000000000000000000000000000000000600052601160045260246000fd5b600061323782612e61565b915061324283612e61565b9250817fffffffffffffffffffffffffffffffffffffffffffffffffffffffffffffffff048311821515161561327b5761327a6131fd565b5b828202905092915050565b7f4e487b7100000000000000000000000000000000000000000000000000000000600052601260045260246000fd5b60006132c082612e61565b91506132cb83612e61565b9250826132db576132da613286565b5b828204905092915050565b60006132f182612e61565b91506132fc83612e61565b9250827fffffffffffffffffffffffffffffffffffffffffffffffffffffffffffffffff03821115613331576133306131fd565b5b828201905092915050565b60006020828403121561335257613351612e57565b5b60006133608482850161315b565b91505092915050565b600061337482612e61565b915061337f83612e61565b925082821015613392576133916131fd565b5b828203905092915050565b7f4e487b7100000000000000000000000000000000000000000000000000000000600052604160045260246000fd5b7f4e487b7100000000000000000000000000000000000000000000000000000000600052603260045260246000fd5b600081519050919050565b600082825260208201905092915050565b6000819050602082019050919050565b61343081612f45565b82525050565b60006134428383613427565b60208301905092915050565b6000602082019050919050565b6000613466826133fb565b6134708185613406565b935061347b83613417565b8060005b838110156134ac5781516134938882613436565b975061349e8361344e565b92505060018101905061347f565b5085935050505092915050565b600060208201905081810360008301526134d3818461345b565b905092915050565b600080fd5b6000601f19601f8301169050919050565b6134fa826134e0565b810181811067ffffffffffffffff821117156135195761351861339d565b5b80604052505050565b600061352c612e4d565b905061353882826134f1565b919050565b600067ffffffffffffffff8211156135585761355761339d565b5b602082029050602081019050919050565b600080fd5b60008151905061357d81612f81565b92915050565b60006135966135918461353d565b613522565b905080838252602082019050602084028301858111156135b9576135b8613569565b5b835b818110156135e257806135ce888261356e565b8452602084019350506020810190506135bb565b5050509392505050565b600082601f830112613601576136006134db565b5b8151613611848260208601613583565b91505092915050565b600067ffffffffffffffff8211156136355761363461339d565b5b602082029050602081019050919050565b60006136596136548461361a565b613522565b9050808382526020820190506020840283018581111561367c5761367b613569565b5b835b818110156136a55780613691888261315b565b84526020840193505060208101905061367e565b5050509392505050565b600082601f8301126136c4576136c36134db565b5b81516136d4848260208601613646565b91505092915050565b600080604083850312156136f4576136f3612e57565b5b600083015167ffffffffffffffff81111561371257613711612e5c565b5b61371e858286016135ec565b925050602083015167ffffffffffffffff81111561373f5761373e612e5c565b5b61374b858286016136af565b9150509250929050565b600060408201905061376a6000830185612f57565b6137776020830184612ec4565b9392505050565b60008151905061378d816130b4565b92915050565b6000602082840312156137a9576137a8612e57565b5b60006137b78482850161377e565b91505092915050565b600082825260208201905092915050565b7f546869732061646472657373206973206e6f7420617661696c61626c65000000600082015250565b6000613807601d836137c0565b9150613812826137d1565b602082019050919050565b60006020820190508181036000830152613836816137fa565b9050919050565b7f596f752063616e2774207769746864726177206d6f7265207468616e20796f7560008201527f722077616c6c65742066756e64732e0000000000000000000000000000000000602082015250565b6000613899602f836137c0565b91506138a48261383d565b604082019050919050565b600060208201905081810360008301526138c88161388c565b9050919050565b7f5468697320746f6b656e206973206e6f7420617661696c61626c6520696e207460008201527f6869732073747261746567792e00000000000000000000000000000000000000602082015250565b600061392b602d836137c0565b9150613936826138cf565b604082019050919050565b6000602082019050818103600083015261395a8161391e565b9050919050565b7f546869732061646472657373206973206e6f742076616c696420666f7220455260008201527f43323020746f6b656e2e00000000000000000000000000000000000000000000602082015250565b60006139bd602a836137c0565b91506139c882613961565b604082019050919050565b600060208201905081810360008301526139ec816139b0565b9050919050565b6000606082019050613a086000830186612f57565b613a156020830185612f57565b613a226040830184612ec4565b949350505050565b600080fd5b600060208284031215613a4557613a44613a2a565b5b613a4f6020613522565b90506000613a5f8482850161315b565b60008301525092915050565b60006fffffffffffffffffffffffffffffffff82169050919050565b613a9081613a6b565b8114613a9b57600080fd5b50565b600081519050613aad81613a87565b92915050565b600064ffffffffff82169050919050565b613acd81613ab3565b8114613ad857600080fd5b50565b600081519050613aea81613ac4565b92915050565b600061ffff82169050919050565b613b0781613af0565b8114613b1257600080fd5b50565b600081519050613b2481613afe565b92915050565b60006101e08284031215613b4157613b40613a2a565b5b613b4c6101e0613522565b90506000613b5c84828501613a2f565b6000830152506020613b7084828501613a9e565b6020830152506040613b8484828501613a9e565b6040830152506060613b9884828501613a9e565b6060830152506080613bac84828501613a9e565b60808301525060a0613bc084828501613a9e565b60a08301525060c0613bd484828501613adb565b60c08301525060e0613be884828501613b15565b60e083015250610100613bfd8482850161356e565b61010083015250610120613c138482850161356e565b61012083015250610140613c298482850161356e565b61014083015250610160613c3f8482850161356e565b61016083015250610180613c5584828501613a9e565b610180830152506101a0613c6b84828501613a9e565b6101a0830152506101c0613c8184828501613a9e565b6101c08301525092915050565b60006101e08284031215613ca557613ca4612e57565b5b6000613cb384828501613b2a565b91505092915050565b613cc58161306d565b82525050565b613cd481612e61565b82525050565b613ce381612f25565b82525050565b61010082016000820151613d006000850182613427565b506020820151613d136020850182613427565b506040820151613d266040850182613cbc565b506060820151613d396060850182613427565b506080820151613d4c6080850182613ccb565b5060a0820151613d5f60a0850182613ccb565b5060c0820151613d7260c0850182613ccb565b5060e0820151613d8560e0850182613cda565b50505050565b600061010082019050613da16000830184613ce9565b92915050565b61010082016000820151613dbe6000850182613427565b506020820151613dd16020850182613427565b506040820151613de46040850182613cbc565b506060820151613df76060850182613427565b506080820151613e0a6080850182613ccb565b5060a0820151613e1d60a0850182613ccb565b5060c0820151613e3060c0850182613ccb565b5060e0820151613e4360e0850182613cda565b50505050565b600061010082019050613e5f6000830184613da7565b92915050565b7f4f776e61626c653a206e6577206f776e657220697320746865207a65726f206160008201527f6464726573730000000000000000000000000000000000000000000000000000602082015250565b6000613ec16026836137c0565b9150613ecc82613e65565b604082019050919050565b60006020820190508181036000830152613ef081613eb4565b9050919050565b613f008161306d565b82525050565b6000819050919050565b6000819050919050565b6000613f35613f30613f2b84613f06565b613f10565b612f25565b9050919050565b613f4581613f1a565b82525050565b600060a082019050613f606000830188612f57565b613f6d6020830187612f57565b613f7a6040830186613ef7565b613f876060830185612ec4565b613f946080830184613f3c565b9695505050505050565b7f4f776e61626c653a2063616c6c6572206973206e6f7420746865206f776e6572600082015250565b6000613fd46020836137c0565b9150613fdf82613f9e565b602082019050919050565b6000602082019050818103600083015261400381613fc7565b9050919050565b600060608201905061401f6000830186612f57565b61402c6020830185612ec4565b6140396040830184612ec4565b949350505050565b60006060820190506140566000830186612f57565b6140636020830185612ec4565b6140706040830184612f57565b949350505050565b600060808201905061408d6000830187612f57565b61409a6020830186612ec4565b6140a76040830185612ec4565b6140b46060830184612f57565b95945050505050565b60006140d86140d36140ce84613f06565b613f10565b613af0565b9050919050565b6140e8816140bd565b82525050565b60006080820190506141036000830187612f57565b6141106020830186612ec4565b61411d6040830185612f57565b61412a60608301846140df565b95945050505050565b600060a0820190506141486000830188612f57565b6141556020830187612ec4565b6141626040830186612ec4565b61416f60608301856140df565b61417c6080830184612f57565b969550505050505056fea26469706673582212203d3bee7edc2305b00ecaa64799d86d6263d09c6d947310bcc0a4f58865369d2c64736f6c634300080a0033",
  "devdoc": {
    "kind": "dev",
    "methods": {
      "owner()": {
        "details": "Returns the address of the current owner."
      },
      "renounceOwnership()": {
        "details": "Leaves the contract without owner. It will not be possible to call `onlyOwner` functions anymore. Can only be called by the current owner. NOTE: Renouncing ownership will leave the contract without an owner, thereby removing any functionality that is only available to the owner."
      },
      "transferOwnership(address)": {
        "details": "Transfers ownership of the contract to a new account (`newOwner`). Can only be called by the current owner."
      }
    },
    "version": 1
  },
  "userdoc": {
    "kind": "user",
    "methods": {
      "enterStrategy(address,address,uint256)": {
        "notice": "Public functions ///"
      },
      "setAaveAddress(address)": {
        "notice": "Set & Get functions ///"
      }
    },
    "version": 1
  },
  "storageLayout": {
    "storage": [
      {
        "astId": 1750,
        "contract": "contracts/strategies/AaveBasicStrategy.sol:AaveBasicStrategy",
        "label": "_owner",
        "offset": 0,
        "slot": "0",
        "type": "t_address"
      },
      {
        "astId": 2749,
        "contract": "contracts/strategies/AaveBasicStrategy.sol:AaveBasicStrategy",
        "label": "tokenAddress",
        "offset": 0,
        "slot": "1",
        "type": "t_address"
      },
      {
        "astId": 2751,
        "contract": "contracts/strategies/AaveBasicStrategy.sol:AaveBasicStrategy",
        "label": "tokenToBorrow",
        "offset": 0,
        "slot": "2",
        "type": "t_address"
      },
      {
        "astId": 2753,
        "contract": "contracts/strategies/AaveBasicStrategy.sol:AaveBasicStrategy",
        "label": "aTokenAddress",
        "offset": 0,
        "slot": "3",
        "type": "t_address"
      },
      {
        "astId": 2755,
        "contract": "contracts/strategies/AaveBasicStrategy.sol:AaveBasicStrategy",
        "label": "vTokenAddress",
        "offset": 0,
        "slot": "4",
        "type": "t_address"
      },
      {
        "astId": 2757,
        "contract": "contracts/strategies/AaveBasicStrategy.sol:AaveBasicStrategy",
        "label": "aaveAddress",
        "offset": 0,
        "slot": "5",
        "type": "t_address"
      },
      {
        "astId": 2759,
        "contract": "contracts/strategies/AaveBasicStrategy.sol:AaveBasicStrategy",
        "label": "aaveRewardsAddress",
        "offset": 0,
        "slot": "6",
        "type": "t_address"
      },
      {
        "astId": 2761,
        "contract": "contracts/strategies/AaveBasicStrategy.sol:AaveBasicStrategy",
        "label": "uniswapAddress",
        "offset": 0,
        "slot": "7",
        "type": "t_address"
      },
      {
        "astId": 2763,
        "contract": "contracts/strategies/AaveBasicStrategy.sol:AaveBasicStrategy",
        "label": "uniswapQuoterAddress",
        "offset": 0,
        "slot": "8",
        "type": "t_address"
      },
      {
        "astId": 2766,
        "contract": "contracts/strategies/AaveBasicStrategy.sol:AaveBasicStrategy",
        "label": "aave",
        "offset": 0,
        "slot": "9",
        "type": "t_contract(IPool)636"
      },
      {
        "astId": 2769,
        "contract": "contracts/strategies/AaveBasicStrategy.sol:AaveBasicStrategy",
        "label": "uniswap",
        "offset": 0,
        "slot": "10",
        "type": "t_contract(ISwapRouter)2737"
      },
      {
        "astId": 2772,
        "contract": "contracts/strategies/AaveBasicStrategy.sol:AaveBasicStrategy",
        "label": "uniswapQuoter",
        "offset": 0,
        "slot": "11",
        "type": "t_contract(IQuoter)2637"
      },
      {
        "astId": 2775,
        "contract": "contracts/strategies/AaveBasicStrategy.sol:AaveBasicStrategy",
        "label": "aaveRewards",
        "offset": 0,
        "slot": "12",
        "type": "t_contract(IRewardsController)1454"
      },
      {
        "astId": 2779,
        "contract": "contracts/strategies/AaveBasicStrategy.sol:AaveBasicStrategy",
        "label": "totalBalance",
        "offset": 0,
        "slot": "13",
        "type": "t_uint256"
      },
      {
        "astId": 2783,
        "contract": "contracts/strategies/AaveBasicStrategy.sol:AaveBasicStrategy",
        "label": "userBalances",
        "offset": 0,
        "slot": "14",
        "type": "t_mapping(t_address,t_uint256)"
      },
      {
        "astId": 4013,
        "contract": "contracts/strategies/AaveBasicStrategy.sol:AaveBasicStrategy",
        "label": "calculatedHealthFactor",
        "offset": 0,
        "slot": "15",
        "type": "t_uint256"
      },
      {
        "astId": 4015,
        "contract": "contracts/strategies/AaveBasicStrategy.sol:AaveBasicStrategy",
        "label": "healthFactor",
        "offset": 0,
        "slot": "16",
        "type": "t_uint256"
      },
      {
        "astId": 4017,
        "contract": "contracts/strategies/AaveBasicStrategy.sol:AaveBasicStrategy",
        "label": "_totalCollateralBase",
        "offset": 0,
        "slot": "17",
        "type": "t_uint256"
      },
      {
        "astId": 4019,
        "contract": "contracts/strategies/AaveBasicStrategy.sol:AaveBasicStrategy",
        "label": "_totalDebtBase",
        "offset": 0,
        "slot": "18",
        "type": "t_uint256"
      },
      {
        "astId": 4021,
        "contract": "contracts/strategies/AaveBasicStrategy.sol:AaveBasicStrategy",
        "label": "_availableBorrowsBase",
        "offset": 0,
        "slot": "19",
        "type": "t_uint256"
      },
      {
        "astId": 4023,
        "contract": "contracts/strategies/AaveBasicStrategy.sol:AaveBasicStrategy",
        "label": "_currentLiquidationThreshold",
        "offset": 0,
        "slot": "20",
        "type": "t_uint256"
      },
      {
        "astId": 4025,
        "contract": "contracts/strategies/AaveBasicStrategy.sol:AaveBasicStrategy",
        "label": "futureHealthFactor",
        "offset": 0,
        "slot": "21",
        "type": "t_uint256"
      }
    ],
    "types": {
      "t_address": {
        "encoding": "inplace",
        "label": "address",
        "numberOfBytes": "20"
      },
      "t_contract(IPool)636": {
        "encoding": "inplace",
        "label": "contract IPool",
        "numberOfBytes": "20"
      },
      "t_contract(IQuoter)2637": {
        "encoding": "inplace",
        "label": "contract IQuoter",
        "numberOfBytes": "20"
      },
      "t_contract(IRewardsController)1454": {
        "encoding": "inplace",
        "label": "contract IRewardsController",
        "numberOfBytes": "20"
      },
      "t_contract(ISwapRouter)2737": {
        "encoding": "inplace",
        "label": "contract ISwapRouter",
        "numberOfBytes": "20"
      },
      "t_mapping(t_address,t_uint256)": {
        "encoding": "mapping",
        "key": "t_address",
        "label": "mapping(address => uint256)",
        "numberOfBytes": "32",
        "value": "t_uint256"
      },
      "t_uint256": {
        "encoding": "inplace",
        "label": "uint256",
        "numberOfBytes": "32"
      }
    }
  }
}